:020000040800F2
:1000000000500020491C0008D91B0008DB1B000819
:10001000DD1B0008DF1B0008E11B000800000000DA
:100020000000000000000000000000002115000892
:10003000E31B000800000000C1150008E51B0008D4
:10004000911C0008911C0008911C0008911C0008DC
:10005000911C0008911C0008911C0008911C0008CC
:10006000911C0008911C0008911C0008911C0008BC
:10007000911C0008911C0008911C0008911C0008AC
:10008000911C0008911C0008911C0008911C00089C
:10009000911C0008911C0008911C0008911C00088C
:1000A000911C0008ED1B0008911C0008911C000821
:1000B000911C0008911C0008911C0008911C00086C
:1000C000911C0008911C0008911C0008911C00085C
:1000D000911C0008911C0008911C0008911C00084C
:1000E000911C0008911C0008911C000800000000F1
:1000F0000000000000000000000000000000000000
:0C01000000000000000000005FF808F1A3
:1001100010B5054C237833B9044B13B10448AFF341
:1001200000800123237010BD10000020000000009B
:10013000DC1C000808B5034B1BB103490348AFF3AF
:10014000008008BD0000000014000020DC1C000836
:1001500008B5074A136843F010031360032000F04A
:100160001BF8002001F0FCFC01F0AAFC002008BDF7
:1001700000200240034A1168034B1B780B441360B4
:10018000704700BF780D002000000020014B186868
:10019000704700BF780D0020074AD36823F4E0635E
:1001A0001B041B0C000200F4E060184340F0BF6029
:1001B00040F40030D060704700ED00E030B4174BE1
:1001C000DB68C3F30223C3F10704042C28BF042413
:1001D0001D1D062D18D9033B4FF0FF3505FA04F419
:1001E00021EA0401994005FA03F322EA03031943C3
:1001F00000280BDB0901C9B200F1604000F5614045
:1002000080F8001330BC70470023E5E700F00F00D2
:100210000901C9B2024B1954F4E700BF00ED00E038
:1002200014ED00E000F01F02400901239340024A50
:1002300042F82030704700BF00E100E00138B0F123
:10024000807F0AD2064B5860064AF02182F82310BC
:100250000020986007221A6070470120704700BF95
:1002600010E000E000ED00E0042805D0054A136826
:1002700023F0040313607047024A136843F0040339
:100280001360704710E000E0F0B482B000263546FD
:10029000A1E0002C59D0012C00D1CE68FF2B68D8EA
:1002A0008446FF2B68D8AC00DCF800200F27A7405D
:1002B00022EA070206FA04F42243CCF800204A6836
:1002C00012F0805F00F086805E4A946944F0010479
:1002D0009461926902F001020192019AAC08A71C94
:1002E000594A52F8272005F00307BF004FF00F0CC2
:1002F0000CFA07FC22EA0C0C544A904242D002F558
:10030000806290427FD002F5806290427DD002F5FB
:100310008062904234D0042235E04D4FBC4214D06C
:100320000BD94C4FBC4210D007F58037BC420CD0E3
:10033000A7F58017BC42B1D107E0A7F58017BC42F2
:1003400003D007F58037BC42A8D18C687CB1012C62
:1003500008D042610826A1E7CE6808369EE7CE683D
:100360000C369BE70261082698E7002696E70426EC
:1003700094E700F1040C94E7A5F10804A40093E7C6
:10038000032200E00022BA4042EA0C0202342E4F5F
:1003900047F824204A6812F4803F38D02E4C226857
:1003A0001A4322604A6812F4003F36D02A4C626831
:1003B0001A4362604A6812F4801F34D0264CA26847
:1003C0001A43A2604A6812F4001F32D0224CE2683D
:1003D0001343E36001350F2D31D80122AA400B6889
:1003E00013409A42F6D14C68122CB8D095D8022C02
:1003F000B2D07FF64EAF032CB7D0112C7FF44EAFA6
:10040000CE6804364AE70122BDE70222BBE7124C60
:10041000226822EA03022260C4E70F4C626822EAE3
:1004200003026260C6E70C4CA26822EA0302A260E3
:10043000C8E7094CE26822EA0303E360CAE702B0B6
:10044000F0BC70470010024000000140000801406D
:1004500000002110000031100004014012B909040D
:10046000016170470161704782B0084B1B68084A00
:10047000A2FB03235B0A00FB03F0019000BF019B7A
:100480005A1E0192002BF9D102B070470C000020D7
:10049000D34D621070B582B00446036813F0010FAB
:1004A0002CD0AB4B5B6803F00C03042B1DD0A84B86
:1004B0005B6803F00C03082B12D06368B3F5803F30
:1004C00041D0002B55D103F1804303F504331A6862
:1004D00022F480321A601A6822F480221A6037E00F
:1004E0009B4B5B6813F4803FE7D0994B1B6813F478
:1004F000003F03D06368002B00F0AE81236813F047
:10050000020F76D0924B5B6813F00C0F5FD0904BCC
:100510005B6803F00C03082B54D02369002B00F018
:100520008A808C4B01221A60FFF730FE0546884B0B
:100530001B6813F0020F75D1FFF728FE401B02283D
:10054000F5D903208BE1824A136843F480331360AA
:10055000636843B3FFF71AFE05467D4B1B6813F42F
:10056000003FCBD1FFF712FE401B6428F5D90320D2
:1005700075E1B3F5A02F09D0754B1A6822F48032CB
:100580001A601A6822F480221A60E1E703F18043BE
:10059000A3F53C331A6842F480221A601A6842F4C8
:1005A00080321A60D4E7FFF7F1FD0546684B1B68FF
:1005B00013F4003FA2D0FFF7E9FD401B6428F5D9F2
:1005C00003204CE1624B5B6813F4803FA5D1604B84
:1005D0001B6813F0020F04D02369012B01D0012006
:1005E0003DE15B4A136823F0F803616943EAC10304
:1005F0001360236813F0080F32D0A369002B5BD07F
:10060000554B01221A60FFF7C1FD0546504B5B6A4E
:1006100013F0020F21D1FFF7B9FD401B0228F5D9D5
:1006200003201CE14A4A136823F0F803616943EA96
:10063000C1031360DDE7474B00221A60FFF7A6FDF8
:100640000546434B1B6813F0020FD2D0FFF79EFD07
:10065000401B0228F5D9032001E10120FFF704FF28
:10066000236813F0040F00F09780394BDB6913F017
:10067000805F33D1364BDA6942F08052DA61DB6950
:1006800003F080530193019B0125344B1B6813F445
:10069000807F25D0E368012B36D0002B4CD103F1AD
:1006A000804303F504331A6A22F001021A621A6ABF
:1006B00022F004021A622CE0274B00221A60FFF796
:1006C00065FD0546224B5B6A13F0020FC8D0FFF7A9
:1006D0005DFD401B0228F5D90320C0E00025D4E7CA
:1006E0001E4A136843F480731360FFF74FFD0646FC
:1006F0001A4B1B6813F4807FCCD1FFF747FD801B9A
:100700006428F5D90320AAE0114A136A43F00103D3
:100710001362E36873B3FFF739FD06460C4B1B6A9F
:1007200013F0020F37D1FFF731FD801B41F2883300
:100730009842F3D9032092E0052B11D0044B1A6A9A
:1007400022F001021A621A6A22F004021A62E0E739
:10075000001002400000424280044242007000400B
:10076000414B1A6A42F004021A621A6A42F001020C
:100770001A62CEE7FFF70AFD06463B4B1B6A13F0F1
:10078000020F08D0FFF702FD801B41F28833984228
:10079000F3D9032063E0E5B9E369002B5ED0324A68
:1007A000526802F00C02082A5BD0022B17D02F4BA4
:1007B00000221A60FFF7EAFC04462B4B1B6813F07B
:1007C000007F47D0FFF7E2FC001B0228F5D9032089
:1007D00045E0254AD36923F08053D361DCE7234BFE
:1007E00000221A60FFF7D2FC05461F4B1B6813F06E
:1007F000007F06D0FFF7CAFC401B0228F5D9032072
:100800002DE0236AB3F5803F1AD017494B6823F4D3
:100810007413226A606A024313434B60134B012234
:100820001A60FFF7B3FC04460F4B1B6813F0007F00
:100830000ED1FFF7ABFC001B0228F5D903200EE018
:10084000094A536823F40033A1680B435360DCE783
:10085000002004E0002002E0012000E0002002B0BF
:1008600070BD0120FBE700BF001002406000424263
:1008700010B487B0164C94E80F000DF1180C0CE979
:100880000F00238AADF80430124B5B6803F00C02B2
:10089000082A1AD1C3F38342624412F8102C13F4CD
:1008A000803F05D10C4800FB02F007B010BC704738
:1008B000084B5B68C3F34043634413F8143C074898
:1008C00000FB02F0B0FBF3F0EFE70448EDE700BFF8
:1008D000F41C00080010024000093D0000127A00DC
:1008E000594B1B6803F007038B420CD2564A13681E
:1008F00023F007030B431360136803F007038B42D5
:1009000001D00120704770B5036813F0020F06D0C4
:100910004E4A536823F0F0038468234353600C4627
:100920000546036813F0010F52D04368012B23D012
:10093000022B28D0454A126812F0020F00F0828084
:1009400042494A6822F0030213434B60FFF71EFC42
:1009500006466B68012B1DD0022B2AD03B4B5B68EF
:1009600013F00C0F34D0FFF711FC801B41F28833D9
:100970009842F3D9032064E0344A126812F4003F2D
:10098000DED101205DE0314A126812F0007FD7D13C
:10099000012056E02D4B5B6803F00C03042B17D0AD
:1009A000FFF7F4FB801B41F288339842F2D9032011
:1009B00047E0264B5B6803F00C03082B08D0FFF7D9
:1009C000E5FB801B41F288339842F2D9032038E0DE
:1009D0001D4B1B6803F00703A3420CD91A4A136886
:1009E00023F0070323431360136803F00703A342B4
:1009F00001D0012025E02B6813F0040F06D0134A24
:100A0000536823F4E063E9680B4353602B6813F0E9
:100A1000080F07D00D4A536823F46053296943EA4D
:100A2000C1035360FFF724FF084B5B68C3F3031354
:100A3000074AD35CD840074B1860002001F090F8BB
:100A4000002070BD0120FCE70020024000100240A1
:100A5000301D00080C000020014B1868704700BFD3
:100A60000C00002008B5FFF7F7FF044B5B68C3F3E9
:100A7000C223034AD35CD84008BD00BF0010024027
:100A8000401D00080F2303600B4B5A6802F003025D
:100A900042605A6802F0F00282605A6802F4E06232
:100AA000C2605B68DB0803F4E0630361034B1B680F
:100AB00003F007030B607047001002400020024063
:100AC00070470268D36843F00103D360026813687B
:100AD00043F0010313600020704770477047704770
:100AE000704710B5044603681A6912F0020F11D05E
:100AF000DA6812F0020F0DD06FF002021A610123C2
:100B0000037703689B6913F0030F70D0FFF7E6FFCC
:100B10000023237723681A6912F0040F12D0DA68D1
:100B200012F0040F0ED06FF004021A610223237733
:100B300023689B6913F4407F5FD02046FFF7CEFF08
:100B40000023237723681A6912F0080F12D0DA689D
:100B500012F0080F0ED06FF008021A6104232377F9
:100B60002368DB6913F0030F4ED02046FFF7B6FF72
:100B70000023237723681A6912F0100F12D0DA6865
:100B800012F0100F0ED06FF010021A6108232377B5
:100B90002368DB6913F4407F3DD02046FFF79EFFBA
:100BA0000023237723681A6912F0010F03D0DA6853
:100BB00012F0010F36D123681A6912F0800F03D0AA
:100BC000DA6812F0800F34D123681A6912F0400FEE
:100BD00003D0DA6812F0400F32D123681A6912F09C
:100BE000200F03D0DA6812F0200F30D110BDFFF7CC
:100BF00074FF2046FFF773FF8AE72046FFF76DFF7B
:100C00002046FFF76CFF9BE72046FFF766FF204674
:100C1000FFF765FFACE72046FFF75FFF2046FFF7D1
:100C20005EFFBDE76FF001021A61204600F0CEFEC4
:100C3000C1E76FF080021A61204600F063F8C3E755
:100C40006FF040021A612046FFF74AFFC5E76FF0D8
:100C500020021A61204600F054F8C7E703681B4AD7
:100C600090420AD0B0F1804F07D0A2F59432904262
:100C700003D002F58062904203D123F070034A68EA
:100C80001343124A90420AD0B0F1804F07D0A2F528
:100C90009432904203D002F58062904203D123F453
:100CA0004073CA68134323F080034A691343036007
:100CB0008B68C3620B688362044B984202D00123A5
:100CC000436170470B690363F9E700BF002C0140E3
:100CD000A8B110B5044690F83D305BB1022384F80A
:100CE0003D30211D2068FFF7B9FF012384F83D3016
:100CF000002010BD80F83C30FFF7E2FEEEE7012057
:100D0000704770477047842801D003307047002037
:100D1000704708B500F0C8F9002008BDF0B585B0EF
:100D20000F46446805680669B0F90800FFF7EBFF55
:100D300003AB019300903B46B2B22946204600F037
:100D400081F9012802D1039805B0F0BD0020FBE72E
:100D500008B5034600B90123184600F0E7FA002061
:100D600008BD08B500F08EFB012801D000F04AFC58
:100D700008BD00F1080343604FF0FF328260C3609A
:100D800003610023036070470023036170474368D9
:100D90004B609A688A609A6851609960086103683C
:100DA00001330360704730B40D68B5F1FF3F02D0E6
:100DB00000F1080202E0026904E01A4653681C6868
:100DC000AC42FAD953684B6099608A6051600861FF
:100DD00003680133036030BC70470369426881686F
:100DE00091608268416851605A68824205D0002251
:100DF0000261186801381860704782685A60F6E727
:100E0000074B9B6A1B6833B1054B9A6AD268D2685C
:100E10005268DA627047024B4FF0FF32DA62704775
:100E20002C00002010B50446006B00F03BFD20466E
:100E300000F038FD10BD2DE9F04780469946089D29
:100E4000099F0A9C266B02F18042013A06EB82065A
:100E500026F0070600230F2B07D8C85CE21882F89B
:100E60003400CA5C0AB10133F5E7002384F843304B
:100E7000062D00D90625E56265644FF0000AC4F826
:100E800048A0201DFFF780FF04F11800FFF77CFF4A
:100E90002461C5F10705A5616462C4F84CA084F81B
:100EA00050A04A464146304600F026FB206007B17C
:100EB0003C60BDE8F087000070B5002407E004EB5B
:100EC0008402930010481844FFF753FF0134062CA6
:100ED000F5D90E4C04F1BC063046FFF74AFF04F189
:100EE000D0052846FFF745FF04F11400FFF741FF46
:100EF00004F1E400FFF73DFF2046FFF73AFFA6624A
:100F0000C4F8F85070BD00BF5C0000202C00002029
:100F100038B5054600F016FB264BD3F8FC2001320D
:100F2000C3F8FC20D3F8003173B1224BD3F804315D
:100F30008BB9204BD3F80031DA6AEB6A9A420AD8AF
:100F40001C4BC3F8005106E01A4BC3F80051D3F80C
:100F5000FC30012B2AD0174CD4F808310133C4F8E7
:100F60000831EB6A01229A40D4F80C110A43C4F804
:100F70000C2104F1300003EB83039A00291D104477
:100F8000FFF705FF00F000FBD4F804316BB1D4F893
:100F90000031DA6AEB6A9A4207D2074B4FF080526F
:100FA0001A60BFF34F8FBFF36F8F38BDFFF784FF19
:100FB000D1E700BF2C00002004ED00E070B504462E
:100FC0000E461F4BD3F81051D3F800010430FFF741
:100FD00004FF60B91A4BD3F80021D16A012202FA4A
:100FE00001F1D3F80C2122EA0102C3F80C21B4F17B
:100FF000FF3F12D02C44124BD3F800315C60A54265
:1010000014D80F4DA86AD5F800110431FFF7CBFEB4
:10101000EB6AA34212D9EC6210E0002EEAD0084835
:10102000D0F800110431FFF7B2FE07E0044BD3F80B
:10103000F800D3F800110431FFF7B5FE70BD00BF12
:101040002C0000202DE9F04385B007468846154660
:101050009946900000F0A0FBF8B10646542000F03D
:101060009BFB0446A8B10663D4B10023039302940A
:101070000D9B01930C9B00934B462A4641463846F4
:10108000FFF7D9FE2046FFF743FF012005B0BDE87A
:10109000F083304600F006FCE6E74FF0FF30F5E75E
:1010A0004FF0FF30F2E7000000B583B0174B01931B
:1010B00000230093802216491648FFF7C3FF01283A
:1010C00005D0B0F1FF3F17D003B05DF804FB4FF03F
:1010D000500383F31188BFF36F8FBFF34F8F0E4B15
:1010E0004FF0FF32DA620122C3F804210022C3F874
:1010F000102100F0B3FAE7E74FF0500383F31188B3
:10110000BFF36F8FBFF34F8FFEE700BF4801002092
:10111000481D0008CD1300082C000020034AD2F817
:1011200018310133C2F81831704700BF2C0000207D
:101130002DE9F041404BD3F81831002B6CD13E4BD8
:10114000D3F810510135C3F81051CDB99B6A1B6813
:1011500043B14FF0500383F31188BFF36F8FBFF398
:101160004F8FFEE7344B9A6AD3F8F8109962C3F8B0
:10117000F820D3F820210132C3F82021FFF740FEE8
:101180002D4BDB6AAB423DD900242B4AD2F800310B
:10119000DB6A03EB830399000A44136B012B42D9EA
:1011A000012440E00124244B9B6A1B6863B3224B5B
:1011B0009B6ADB68DE6873689D422AD306F10408E7
:1011C0004046FFF70AFEB36A1BB106F11800FFF7AD
:1011D00004FEF36A01229A40174FD7F80C110A4314
:1011E000C7F80C2107F1300003EB83039A00414656
:1011F0001044FFF7CCFDF26AD7F80031DB6A9A425F
:10120000D0D2D0E70024CEE70B4B4FF0FF32DA62AA
:10121000BBE7094AD362B8E7074AD2F82431013361
:10122000C2F824310024044BD3F8283103B101243F
:101230002046BDE8F08100BF2C000020394BD3F8D8
:10124000183143B94FF0500383F31188BFF36F8F08
:10125000BFF34F8FFEE770B500F074F9314BD3F850
:101260001821013AC3F81821D3F81831002B54D1B2
:101270002C4BD3F8FC3023B9002400F085F920462C
:1012800070BD0024274B5B692BB3264D2B6ADC68AD
:1012900004F11800FFF7A1FD261D3046FFF79DFD64
:1012A000E36A01229A40D5F80C110A43C5F80C21D3
:1012B00005F1300003EB83039A0031461044FFF739
:1012C00066FDE26AD5F80031DB6A9A42DAD3012280
:1012D000C5F82821D6E70CB1FFF792FD114BD3F8E2
:1012E000244164B1FFF724FF18B10E4B0122C3F86B
:1012F0002821013CF6D10B4B0022C3F82421094BD5
:10130000D3F828315BB1084B4FF080521A60BFF31D
:101310004F8FBFF36F8F0124AFE70024ADE70024A8
:10132000ABE700BF2C00002004ED00E010B5B0B129
:1013300004460F4BD3F8183143B14FF0500383F3F9
:101340001188BFF36F8FBFF34F8FFEE7FFF7E6FE05
:1013500000212046FFF732FEFFF770FF38B9054B3A
:101360004FF080521A60BFF34F8FBFF36F8F10BDE5
:101370002C00002004ED00E038B5134BD3F81431F5
:101380000BB3FFF7CBFE104BD3F8E440FFF756FF4B
:10139000002CF2D000F0D6F80B4CD4F8F030DD6819
:1013A000281DFFF71AFDD4F8FC30013BC4F8FC30CF
:1013B000D4F81431013BC4F8143100F0E5F82846A4
:1013C000FFF730FDD9E738BD2C00002008B5FFF746
:1013D000D3FF064B1B6B012BF9D9054B4FF0805205
:1013E0001A60BFF34F8FBFF36F8FF0E72C00002020
:1013F00004ED00E0224BD3F8183123B1204B012239
:10140000C3F8282170471E4A0023C2F82831D2F8B9
:101410000C31B3FA83F3DBB2C3F11F0303EB830098
:1014200081000A44126B42B94FF0500383F31188D4
:10143000BFF36F8FBFF34F8FFEE710B4104A9900D0
:10144000CC18A0001044446B6468446330321944E3
:1014500088000830024494420AD0094903EB830310
:101460009A000A44536BDB68C1F8003110BC704726
:1014700061680348142202FB03025163EDE700BFD9
:101480002C000020064BD3F804313BB1044BD3F8B9
:1014900018310BB1002070470220704701207047BF
:1014A0002C0000200B4B1B68B3F1FF3F08D04FF01E
:1014B000500383F31188BFF36F8FBFF34F8FFEE7A5
:1014C0004FF0500383F31188BFF36F8FBFF34F8F3B
:1014D000FEE700BF0800002006480068006880F3AF
:1014E000088862B661B6BFF34F8FBFF36F8F00DF1E
:1014F00000BF000008ED00E04FF0807340F8043CAE
:1015000021F0010140F8081C034B40F80C3C40F866
:10151000202C4038704700BFA514000800000000D0
:10152000074B19680868B0E8F00F80F30988BFF32B
:101530006F8F4FF0000080F311884EF00D0E704752
:101540002C0100204FF0500383F31188BFF36F8FFD
:10155000BFF34F8F0A4A136801331360012B00D089
:101560007047084B1B6813F0FF0FF9D04FF0500382
:1015700083F31188BFF36F8FBFF34F8FFEE700BF78
:101580000800002004ED00E0094B1B6843B94FF050
:10159000500383F31188BFF36F8FBFF34F8FFEE7C4
:1015A000013B034A13600BB983F31188704700BFF6
:1015B0000800002000000000000000000000000003
:1015C000EFF30980BFF36F8F0D4B1A6820E9F00F1E
:1015D00010602DE908404FF0500080F31188FFF7AC
:1015E00009FF4FF0000080F31188BDE8084019683A
:1015F0000868B0E8F00F80F30988BFF36F8F704779
:101600002C01002008B54FF0500383F31188BFF37D
:101610006F8FBFF34F8FFFF78BFD18B1034B4FF068
:1016200080521A60002383F3118808BD04ED00E0A6
:10163000064B1B68064AA2FB03239B09013B054A94
:101640001360054B07221A60704700BF0C00002092
:10165000D34D621014E000E010E000E000B583B06C
:101660001E4B1A78D2B20192FF221A701B78DBB29D
:101670008DF803309DF8033003F05003184A1370BF
:101680000723536009E0164A5368013B53609DF8F5
:1016900003305B00DBB28DF803309DF8033013F0AC
:1016A000800FF0D10E4A53681B0203F4E0635360CD
:1016B000019BDBB2094A13700A4B1A6842F47002AC
:1016C0001A601A6842F070421A60FFF7B1FF064BC9
:1016D00000221A60FFF700FFFFF7E4FE00E400E0DD
:1016E0005801002020ED00E008000020134A12F00D
:1016F000070F20D0D11D21F00701C1F5406313442D
:101700000A460E49C1F8002C0020C1F8040C13440D
:10171000083B23F00703C1F8083C58601860981A8A
:1017200050601360C1F80C0CC1F8100C4FF000436E
:10173000C1F8143C70474FF44063E2E760010020B9
:1017400010B4134B1A6882421BD359685C18844248
:1017500003D1406801445960184641684418A242C8
:1017600013D10C4CD4F8084CA2420CD0526811444E
:1017700041601A6812680260984200D0186010BC7C
:1017800070471346DEE70460F6E70260F4E700BF47
:10179000600D00206001002070B50446FFF7BEFC1C
:1017A0003F4BD3F8083CC3B13D4BD3F8143C1C422B
:1017B0006CD1ACB1083414F0070F11D024F0070439
:1017C000083404F007035BB14FF0500383F3118832
:1017D000BFF36F8FBFF34F8FFEE7FFF787FFE3E79E
:1017E000002C55D02E4BD3F8103CA34252D32C4B97
:1017F000D3F8005C03F5406301E02B4615466A68A8
:10180000A24202D22A68002AF7D1254AD2F8082C2F
:10181000AA4241D01E6808362A681A606B681B1BF2
:10182000102B10D9281910F0070F08D04FF05003D3
:1018300083F31188BFF36F8FBFF34F8FFEE74360D1
:101840006C60FFF77DFF6968154AD2F8103C5B1A9F
:10185000C2F8103CD2F80C2C934202D2104AC2F8C3
:101860000C3C0F4BD3F8143C0B436B6000232B60F4
:10187000FFF7E4FC16F0070F10D04FF0500383F38E
:101880001188BFF36F8FBFF34F8FFEE70026EFE79E
:101890000026EDE70026EBE70026E9E7304670BDBD
:1018A0006001002098B338B50446A0F1080550F84F
:1018B000042C1749D1F8141C0A4208D14FF05003E8
:1018C00083F31188BFF36F8FBFF34F8FFEE750F89C
:1018D000080C40B14FF0500383F31188BFF36F8FB2
:1018E000BFF34F8FFEE722EA010244F8042CFFF712
:1018F00015FC54F8041C064AD2F8103C0B44C2F8FC
:10190000103C2846FFF71CFFFFF798FC38BD7047D6
:101910006001002010B586B0134B9A6942F0200296
:101920009A619A6902F020020092009A9A6942F044
:1019300004029A619B6903F004030193019B0B4C21
:10194000012203212046FEF789FD03230293012390
:101950000393002304930223059302A92046FEF774
:1019600093FC06B010BD00BF00100240000801400B
:1019700008B50A4C002201212046FEF76FFD4FF406
:101980007A70FFF7E5F9012211462046FEF766FD61
:101990004FF47A70FFF7DCF9EBE700BF0008014075
:1019A00008B5094C002202212046FEF757FDC82049
:1019B000FFF7CEF9012202212046FEF74FFDC82095
:1019C000FFF7C6F9EDE700BF0008014008B502685F
:1019D000034B9A4200D008BDFEF7CCFBFBE700BFEB
:1019E000002C0140FEE7000000B591B001220692F4
:1019F0004FF480330793002108910A9202220D923E
:101A00000E934FF4E0130F9306A8FEF743FD08BBB7
:101A10000F23019302210291002303934FF480626C
:101A20000492059301A8FEF75BFFB8B9FFF714F81D
:101A30000C4BA3FB00308009FEF700FC0420FEF7EE
:101A400013FC00220F214FF0FF30FEF7B7FB11B05F
:101A50005DF804FB65210448FFF7C4FF73210248C9
:101A6000FFF7C0FFD34D6210501D000800B58BB0CA
:101A7000FEF76EFBFFF7B8FFFFF74CFF0D4C05AD0F
:101A800026460FCE0FC533682B60002105A8FFF74F
:101A900045F9094B18606D4614340FCC0FC5236807
:101AA0002B6000216846FFF739F9044B1860FFF7F7
:101AB00030F9FEE7081D0008800D00207C0D002095
:101AC00000B583B0244B9A6942F001029A619A6989
:101AD00002F001020092009ADA6942F08052DA6163
:101AE000DB6903F080530193019B0320FEF754FB55
:101AF000002211466FF00B00FEF760FB002211463A
:101B00006FF00A00FEF75AFB002211466FF0090041
:101B1000FEF754FB002211466FF00400FEF74EFB67
:101B2000002211466FF00300FEF748FB00220F2150
:101B30006FF00100FEF742FB00220F214FF0FF3053
:101B4000FEF73CFB054A536823F0E06343F08063F3
:101B5000536003B05DF804FB001002400000014038
:101B600000B589B0002201461920FEF727FB192095
:101B7000FEF758FB144B9A6942F400629A619B6924
:101B800003F400630193019B02A903A8FEF77AFF07
:101B9000FEF768FF0D4BA3FB00239B0C013B0C4899
:101BA0000C4A026040F2E732C260436000230361E6
:101BB0008360FFF78DF818B1012009B05DF804FBD0
:101BC0000348FEF77EFFF8E70010024083DE1B4368
:101BD000840D0020002C01407047FEE7FEE7FEE781
:101BE000FEE7704708B5FFF7BCF808BD08B5024826
:101BF000FEF777FF08BD00BF840D00200F4B1A6869
:101C000042F001021A6059680D4A0A405A601A6887
:101C100022F0847222F480321A601A6822F4802240
:101C20001A605A6822F4FE025A604FF41F029A604A
:101C3000044B4FF000629A60704700BF00100240F2
:101C40000000FFF800ED00E0002103E00B4B5B58C3
:101C5000435004310A480B4B42189A42F6D30A4AC1
:101C600002E0002342F8043B084B9A42F9D3FFF705
:101C7000C5FF00F00FF8FFF7F9FE7047801D000860
:101C8000000000201000002010000020C40D0020E3
:101C9000FEE7000070B500250C4E0D4CA41BA410EF
:101CA000A54209D100F01AF800250A4E0A4CA41BDF
:101CB000A410A54205D170BD56F8253098470135CE
:101CC000EEE756F8253098470135F2E7781D000811
:101CD000781D0008781D00087C1D0008F8B500BFBD
:101CE000F8BC08BC9E467047F8B500BFF8BC08BCFD
:041CF0009E46704755
:101CF40002030405060708090A0B0C0D0E0F101049
:101D0400010200006C1D00087119000800000000A9
:101D14000000000080000000601D0008A1190008F8
:101D2400000000000000000080000000000000002F
:101D34000000000001020304060708090000000077
:101D44000102030449444C45000000002E2E2F5389
:101D540072632F6D61696E2E630000007365636F9B
:101D64006E645461736B000064656661756C7454D1
:041D740061736B002C
:041D78003501000829
:041D7C001101000849
:101D80000100000010000000AAAAAAAA00A24A04AA
:0400000508001C498A
:00000001FF
