:020000040800F2
:1000000000500020E51900087D1900087F1900083C
:1000100081190008831900088519000800000000F4
:100020000000000000000000000000008719000828
:1000300089190008000000008B1900088D190008BC
:100040002D1A00082D1A00082D1A00082D1A000874
:100050002D1A00082D1A00082D1A00082D1A000864
:100060002D1A00082D1A00082D1A00082D1A000854
:100070002D1A00082D1A00082D1A00082D1A000844
:100080002D1A00082D1A00082D1A00082D1A000834
:100090002D1A00082D1A00082D1A00082D1A000824
:1000A0002D1A00082D1A00082D1A00082D1A000814
:1000B0002D1A00082D1A00082D1A00082D1A000804
:1000C0002D1A00082D1A00082D1A00082D1A0008F4
:1000D0002D1A00082D1A00082D1A00082D1A0008E4
:1000E0002D1A00082D1A00082D1A00080000000023
:1000F0000000000000000000000000000000000000
:0C01000000000000000000005FF808F1A3
:10010C0010B5054C237833B9044B13B10448AFF345
:10011C0000800123237010BD0C00002000000000A3
:10012C00781A000808B5034B1BB103490348AFF319
:10013C00008008BD0000000010000020781A0008A4
:10014C0010B504460E4B18784FF47A73B3FBF0F3EA
:10015C000C4A1068B0FBF3F000F052FB68B90F2C9E
:10016C0001D901200AE0002221464FF0FF3000F0B7
:10017C0013FB034B5C60002000E0012010BD00BFAE
:10018C00000000200800002008B5074A136843F05F
:10019C0010031360032000F0EDFA0020FFF7D0FFEE
:1001AC0001F05CFB002008BD00200240034A1168EE
:1001BC00034B1B780B441360704700BF28000020D2
:1001CC0000000020014B1868704700BF2800002079
:1001DC0038B50446FFF7F6FF0546B4F1FF3F02D0F1
:1001EC00044B1B781C44FFF7EDFF401BA042FAD3D5
:1001FC0038BD00BF00000020F0B583B005460C46AA
:10020C0000230193FFF7DEFF2B689A6812F4807FBE
:10021C0023D106465A6812F4807F03D1DB6A13F4AB
:10022C00700F24D04B4B1F68022000F09DFFB7FBD2
:10023C00F0F02B681969484A11422FD1D96802F1A4
:10024C005C4211422AD11969444A114239D1DA6807
:10025C00434B1A4237D029273AE0AB6A43F02003CC
:10026C00AB62002385F82430012003B0F0BD2B686D
:10027C001B6813F0020F48D1B4F1FF3FF7D024B143
:10028C00FFF7A0FF801BA042F1D9AB6A43F0040337
:10029C00AB62002385F824300320E6E719692F4A66
:1002AC00114204D1D96802F16E4211420DD0196984
:1002BC002C4A0A405AB9DA682A4B13405BB1FC2726
:1002CC0006E0292704E0142702E0542700E0FC276D
:1002DC0007FB00F704E05427FAE7019B0133019375
:1002EC00019BBB4211D2B4F1FF3FF6D024B1FFF712
:1002FC0069FF801BA042F0D9AB6A43F00403AB62E8
:10030C00002385F824300320AFE72B686FF012022E
:10031C001A60AB6A43F40073AB622B689B6803F4FE
:10032C006023B3F5602F01D000209EE7EB686BB91A
:10033C00AB6A23F48073AB62AB6A13F4805F07D1B2
:10034C00AB6A43F00103AB6200208EE700208CE720
:10035C0000208AE7080000202449922492244912A4
:10036C0092244900499224000368D86C704700001D
:10037C0030B482B00023019390F82430012B00F0AC
:10038C008B800246012380F824304B68062B29D839
:10039C000568686B03EB8303053B1F249C4020EA34
:1003AC0004000C6804FA03F303436B630B68092B1A
:1003BC0038D91568E86803EB43031E3B07249C40BF
:1003CC0020EA04008C6804FA03F30343EB600B6827
:1003DC00103B012B34D90020002382F8243002B0CA
:1003EC0030BC70470C2B0ED80568286B03EB8303CD
:1003FC00233B1F249C4020EA04000C6804FA03F3FE
:10040C0003432B63D2E70568E86A03EB8303413BA4
:10041C001F249C4020EA04000C6804FA03F30343F5
:10042C00EB62C3E71568286903EB430307249C4080
:10043C0020EA04008C6804FA03F303432B61C6E73B
:10044C0013681648834205D0936A43F020039362E5
:10045C000120C1E7986810F4000F1BD1986840F494
:10046C00000098600B68102B01D00020B4E70C4BF7
:10047C001B680C49A1FB03139B0C03EB8303590072
:10048C00019102E0019B013B0193019B002BF9D1EF
:10049C000020A1E700209FE70220A0E700240140F4
:1004AC000800002083DE1B43806A704730B583B0A0
:1004BC000023019303689A6812F0010F2ED19A68F9
:1004CC0042F001029A60174B1B68174AA2FB0323E8
:1004DC009B0C019302E0019B013B0193019B002BC0
:1004EC00F9D10446FFF76EFE054623689B6813F0AE
:1004FC00010F11D1FFF766FE401B0228F5D9A36A44
:10050C0043F01003A362E36A43F00103E3620023A8
:10051C0084F82430012002E0002000E0002003B029
:10052C0030BD00BF0800002083DE1B4390F8243050
:10053C00012B6AD010B50446012380F82430FFF754
:10054C00B5FF024600285BD1A36A23F4407323F065
:10055C00010343F48073A36223682D498B4227D097
:10056C00A16A21F48011A162596811F4806F05D041
:10057C00A16A21F4405141F48051A162A16A11F4A5
:10058C00805F2BD0E16A21F00601E162002184F842
:10059C0024106FF0020119602368996801F460213E
:1005AC00B1F5602F1DD0996841F4801199602AE053
:1005BC00A1F58061496811F4702FD1D0A16A41F482
:1005CC008011A1621349496811F4806FD6D0A16AD9
:1005DC0021F4405141F48051A162CFE70021E16246
:1005EC00D4E70B498B4204D0996841F4A00199607F
:1005FC0009E0A1F58061496811F4702FD3D1F3E7BC
:10060C00002384F82430104610BD02221046704797
:10061C00002801400024014038B503689A6812F0A4
:10062C00010F01D1002038BD04469A6822F0010266
:10063C009A60FFF7C7FD054623689B6813F0010F0E
:10064C000ED0FFF7BFFD401B0228F5D9A36A43F07B
:10065C001003A362E36A43F00103E3620120E2E7C3
:10066C000020E0E700287FD038B50446836A002BD1
:10067C0033D02046FFF7D0FFA36A13F010036DD1DF
:10068C0000286BD1A26A22F4885222F0020242F0B6
:10069C000202A2626268E1690A43E56842EA450225
:1006AC00A168B1F5807F21D001291CD06169012995
:1006BC001FD02568696821F469410B436B60216880
:1006CC008D682A4B2B4013438B60A368B3F5807F56
:1006DC0020D0012B1ED000211FE0C36280F82430F3
:1006EC0001F00CF9C5E74FF48073DFE74FF480732A
:1006FC00DCE735B9A169013943EA413343F40063BE
:10070C00D7E7A16A41F02001A162E16A41F0010141
:10071C00E162CEE72369013B19052568EB6A23F4F6
:10072C0070030B43EB6223689968114B0B409A42A0
:10073C000BD0A36A23F0120343F01003A362E36A05
:10074C0043F00103E36201200DE00023E362A36A9E
:10075C0023F0030343F00103A36204E0A36A43F014
:10076C001003A362012038BD01207047FDF7E1FFA3
:10077C00FE0E1FFF074AD36823F4E0631B041B0C17
:10078C00000200F4E060184340F0BF6040F4003019
:10079C00D060704700ED00E030B4174BDB68C3F35A
:1007AC000223C3F10704042C28BF04241D1D062DAD
:1007BC0018D9033B4FF0FF3505FA04F421EA040184
:1007CC00994005FA03F322EA0303194300280BDBD3
:1007DC000901C9B200F1604000F5614080F80013D6
:1007EC0030BC70470023E5E700F00F000901C9B2E7
:1007FC00024B1954F4E700BF00ED00E014ED00E0EB
:10080C000138B0F1807F0AD2064B5860064AF021BD
:10081C0082F823100020986007221A60704701208C
:10082C00704700BF10E000E000ED00E0042805D0A8
:10083C00054A136823F0040313607047024A1368D7
:10084C0043F004031360704710E000E0704708B5F4
:10085C00FFF7FCFF08BD0000F0B482B0002635465F
:10086C00A1E0002C59D0012C00D1CE68FF2B68D808
:10087C008446FF2B68D8AC00DCF800200F27A7407B
:10088C0022EA070206FA04F42243CCF800204A6854
:10089C0012F0805F00F086805E4A946944F0010497
:1008AC009461926902F001020192019AAC08A71CB2
:1008BC00594A52F8272005F00307BF004FF00F0CE0
:1008CC000CFA07FC22EA0C0C544A904242D002F576
:1008DC00806290427FD002F5806290427DD002F51A
:1008EC008062904234D0042235E04D4FBC4214D08B
:1008FC000BD94C4FBC4210D007F58037BC420CD002
:10090C00A7F58017BC42B1D107E0A7F58017BC4210
:10091C0003D007F58037BC42A8D18C687CB1012C80
:10092C0008D042610826A1E7CE6808369EE7CE685B
:10093C000C369BE70261082698E7002696E704260A
:10094C0094E700F1040C94E7A5F10804A40093E7E4
:10095C00032200E00022BA4042EA0C0202342E4F7D
:10096C0047F824204A6812F4803F38D02E4C226875
:10097C001A4322604A6812F4003F36D02A4C62684F
:10098C001A4362604A6812F4801F34D0264CA26865
:10099C001A43A2604A6812F4001F32D0224CE2685B
:1009AC001343E36001350F2D31D80122AA400B68A7
:1009BC0013409A42F6D14C68122CB8D095D8022C20
:1009CC00B2D07FF64EAF032CB7D0112C7FF44EAFC4
:1009DC00CE6804364AE70122BDE70222BBE7124C7F
:1009EC00226822EA03022260C4E70F4C626822EA02
:1009FC0003026260C6E70C4CA26822EA0302A26002
:100A0C00C8E7094CE26822EA0303E360CAE702B0D4
:100A1C00F0BC70470010024000000140000801408B
:100A2C0000002110000031100004014012B909042B
:100A3C00016170470161704782B0084B1B68084A1E
:100A4C00A2FB03235B0A00FB03F0019000BF019B98
:100A5C005A1E0192002BF9D102B0704708000020F9
:100A6C00D34D621070B582B00446036813F0010FC9
:100A7C002CD0AB4B5B6803F00C03042B1DD0A84BA4
:100A8C005B6803F00C03082B12D06368B3F5803F4E
:100A9C0041D0002B55D103F1804303F504331A6880
:100AAC0022F480321A601A6822F480221A6037E02D
:100ABC009B4B5B6813F4803FE7D0994B1B6813F496
:100ACC00003F03D06368002B00F0AE81236813F065
:100ADC00020F76D0924B5B6813F00C0F5FD0904BEB
:100AEC005B6803F00C03082B54D02369002B00F037
:100AFC008A808C4B01221A60FFF764FB0546884BF9
:100B0C001B6813F0020F75D1FFF75CFB401B02282A
:100B1C00F5D903208BE1824A136843F480331360C8
:100B2C00636843B3FFF74EFB05467D4B1B6813F41C
:100B3C00003FCBD1FFF746FB401B6428F5D90320BF
:100B4C0075E1B3F5A02F09D0754B1A6822F48032E9
:100B5C001A601A6822F480221A60E1E703F18043DC
:100B6C00A3F53C331A6842F480221A601A6842F4E6
:100B7C0080321A60D4E7FFF725FB0546684B1B68EB
:100B8C0013F4003FA2D0FFF71DFB401B6428F5D9DE
:100B9C0003204CE1624B5B6813F4803FA5D1604BA2
:100BAC001B6813F0020F04D02369012B01D0012024
:100BBC003DE15B4A136823F0F803616943EAC10322
:100BCC001360236813F0080F32D0A369002B5BD09D
:100BDC00554B01221A60FFF7F5FA0546504B5B6A3C
:100BEC0013F0020F21D1FFF7EDFA401B0228F5D9C3
:100BFC0003201CE14A4A136823F0F803616943EAB5
:100C0C00C1031360DDE7474B00221A60FFF7DAFAE5
:100C1C000546434B1B6813F0020FD2D0FFF7D2FAF4
:100C2C00401B0228F5D9032001E10120FFF704FF46
:100C3C00236813F0040F00F09780394BDB6913F035
:100C4C00805F33D1364BDA6942F08052DA61DB696E
:100C5C0003F080530193019B0125344B1B6813F463
:100C6C00807F25D0E368012B36D0002B4CD103F1CB
:100C7C00804303F504331A6A22F001021A621A6ADD
:100C8C0022F004021A622CE0274B00221A60FFF7B4
:100C9C0099FA0546224B5B6A13F0020FC8D0FFF796
:100CAC0091FA401B0228F5D90320C0E00025D4E7B7
:100CBC001E4A136843F480731360FFF783FA0646E9
:100CCC001A4B1B6813F4807FCCD1FFF77BFA801B87
:100CDC006428F5D90320AAE0114A136A43F00103F2
:100CEC001362E36873B3FFF76DFA06460C4B1B6A8D
:100CFC0013F0020F37D1FFF765FA801B41F28833EE
:100D0C009842F3D9032092E0052B11D0044B1A6AB8
:100D1C0022F001021A621A6A22F004021A62E0E757
:100D2C000010024000004242800442420070004029
:100D3C00414B1A6A42F004021A621A6A42F001022A
:100D4C001A62CEE7FFF73EFA06463B4B1B6A13F0DE
:100D5C00020F08D0FFF736FA801B41F28833984215
:100D6C00F3D9032063E0E5B9E369002B5ED0324A86
:100D7C00526802F00C02082A5BD0022B17D02F4BC2
:100D8C0000221A60FFF71EFA04462B4B1B6813F067
:100D9C00007F47D0FFF716FA001B0228F5D9032075
:100DAC0045E0254AD36923F08053D361DCE7234B1C
:100DBC0000221A60FFF706FA05461F4B1B6813F05A
:100DCC00007F06D0FFF7FEF9401B0228F5D903205F
:100DDC002DE0236AB3F5803F1AD017494B6823F4F2
:100DEC007413226A606A024313434B60134B012253
:100DFC001A60FFF7E7F904460F4B1B6813F0007FEE
:100E0C000ED1FFF7DFF9001B0228F5D903200EE005
:100E1C00094A536823F40033A1680B435360DCE7A1
:100E2C00002004E0002002E0012000E0002002B0DD
:100E3C0070BD0120FBE700BF001002406000424281
:100E4C0010B487B0164C94E80F000DF1180C0CE997
:100E5C000F00238AADF80430124B5B6803F00C02D0
:100E6C00082A1AD1C3F38342624412F8102C13F4EB
:100E7C00803F05D10C4800FB02F007B010BC704756
:100E8C00084B5B68C3F34043634413F8143C0748B6
:100E9C0000FB02F0B0FBF3F0EFE70448EDE700BF16
:100EAC00901A00080010024000093D0000127A0060
:100EBC00594B1B6803F007038B420CD2564A13683C
:100ECC0023F007030B431360136803F007038B42F3
:100EDC0001D00120704770B5036813F0020F06D0E3
:100EEC004E4A536823F0F0038468234353600C4646
:100EFC000546036813F0010F52D04368012B23D031
:100F0C00022B28D0454A126812F0020F00F08280A2
:100F1C0042494A6822F0030213434B60FFF752F92F
:100F2C0006466B68012B1DD0022B2AD03B4B5B680D
:100F3C0013F00C0F34D0FFF745F9801B41F28833C6
:100F4C009842F3D9032064E0344A126812F4003F4B
:100F5C00DED101205DE0314A126812F0007FD7D15A
:100F6C00012056E02D4B5B6803F00C03042B17D0CB
:100F7C00FFF728F9801B41F288339842F2D90320FD
:100F8C0047E0264B5B6803F00C03082B08D0FFF7F7
:100F9C0019F9801B41F288339842F2D9032038E0CA
:100FAC001D4B1B6803F00703A3420CD91A4A1368A4
:100FBC0023F0070323431360136803F00703A342D2
:100FCC0001D0012025E02B6813F0040F06D0134A42
:100FDC00536823F4E063E9680B4353602B6813F008
:100FEC00080F07D00D4A536823F46053296943EA6C
:100FFC00C1035360FFF724FF084B5B68C3F3031373
:10100C00074AD35CD840074B18600020FFF798F8CC
:10101C00002070BD0120FCE70020024000100240BF
:10102C00B81A000808000020014B1868704700BF70
:10103C000800002008B5FFF7F7FF044B5B68C3F30B
:10104C00C223034AD35CD84008BD00BF0010024045
:10105C00C81A000870B582B00446036813F0010F7B
:10106C0034D03E4BDB6913F0805F48D13B4BDA69DF
:10107C0042F08052DA61DB6903F080530193019BEB
:10108C000125374B1B6813F4807F3AD0334B1B6A16
:10109C0013F4407311D0626802F440729A420CD07F
:1010AC002E4A136A23F440702E4901260E60002646
:1010BC000E60106213F0010F37D1284A136A23F423
:1010CC00407361680B431362002D3FD1236813F00A
:1010DC00020F06D0214A536823F44043A1680B4306
:1010EC005360236813F0100F35D01C4A536823F457
:1010FC008003E1680B435360002002B070BD0025F3
:10110C00BFE7174A136843F480731360FFF75AF86C
:10111C000646134B1B6813F4807FB7D1FFF752F8C8
:10112C00801B6428F5D90320E7E7FFF74BF8064648
:10113C000A4B1B6A13F0020FBFD1FFF743F8801B59
:10114C0041F288339842F3D90320D6E7D36923F0D0
:10115C008053D361BAE70020CFE700BF00100240F4
:10116C00007000404004424230B587B00546384C10
:10117C0094E80F000DF1180C0CE90F00238AADF860
:10118C000430022D50D0102D03D0012D2BD0002077
:10119C0054E0304B5A681B6813F0807F50D0C2F378
:1011AC00834306A90B4413F8100C12F4803F16D09D
:1011BC00284B5B68C3F340430B4413F8142C264BA9
:1011CC00B3FBF2F300FB03F0224B5B6813F4800FCC
:1011DC0034D14000214BA3FB003040082EE0204BC3
:1011EC0003FB00F0F0E71B4B1B6A40F202321A4083
:1011FC00B2F5817F26D003F44073B3F5007F04D0A1
:10120C00B3F5407F09D0002018E0124A526A12F060
:10121C00020FF5D049F6404010E00E4B1B6813F45A
:10122C00003F12D1002009E0FFF704FF094B5B6877
:10123C00C3F3813301335B00B0FBF3F007B030BD77
:10124C000020FBE74FF40040F8E74FF22440F5E7AD
:10125C00A41A00080010024000127A00ABAAAAAA35
:10126C0000093D0082B00190094B1B68094AA2FBA2
:10127C0003239B0C019A02FB03F3019302E0019BF5
:10128C00013B0193019B002BF9D102B0704700BFC9
:10129C000800002083DE1B4310B5064CE36843F0C6
:1012AC002003E3600120FFF7DDFFE36823F0200358
:1012BC00E36010BD000C014010F0800F1DD11B4AE3
:1012CC00D36823F40043D36010F0400F1BD0174AAF
:1012DC00D36843F48043D36010F0200F19D0134A25
:1012EC00D36843F40053D36010F0100F17D10F4A9A
:1012FC00D36823F48053D36070470C4AD36843F40B
:10130C000043D360E0E7094AD36823F48043D360F9
:10131C00E2E7064AD36823F40053D360E4E7034AB8
:10132C00D36843F48053D360704700BF000C014076
:10133C0010F0080F1DD01B4AD36843F40043D36050
:10134C0010F0040F1BD0174AD36843F48043D360CA
:10135C0010F0020F19D0134AD36843F40053D36032
:10136C0010F0010F17D10F4AD36823F48053D360C8
:10137C0070470C4AD36823F40043D360E0E7094A72
:10138C00D36823F48043D360E2E7064AD36823F49E
:10139C000053D360E4E7034AD36843F48053D3602B
:1013AC00704700BF000C014010B50446FFF784FFE6
:1013BC00FFF772FF2046FFF7BBFFFFF76DFF05201D
:1013CC00FFF750FF10BD000010B504460C4AD3685F
:1013DC0023F01003D360FFF76FFFFFF75DFF0520CD
:1013EC00FFF740FFFFF758FF0520FFF73BFF2046B4
:1013FC00FFF79EFFFFF750FF0520FFF733FF10BDEF
:10140C00000C014008B5064AD36823F01003D360E2
:10141C000120FFF7C9FFC820FFF724FF08BD00BF5C
:10142C00000C014008B5064AD36823F01003D360C2
:10143C000220FFF7B9FFC820FFF714FF08BD00BF5B
:10144C00000C014008B5094AD36823F01003D3609F
:10145C003C2802D03E2804D008BD1020FFF7A4FF82
:10146C00FAE71420FFF7A0FFF6E700BF000C0140DD
:10147C0008B5134AD36823F01003D360013804284D
:10148C0008D8DFE800F003080D12170041F08000C7
:10149C00FFF78AFF08BD41F0C000FFF785FFF9E7B1
:1014AC0041F09000FFF780FFF4E741F0D000FFF728
:1014BC007BFFEFE741F04000FFF776FFEAE700BF64
:1014CC00000C014008B5044AD36823F01003D36024
:1014DC00FFF76AFF08BD00BF000C014008B5054AC4
:1014EC00D36843F01003D360FFF75EFF0120FFF7D2
:1014FC00B9FE08BD000C014038B505460FE00021CF
:10150C000220FFF7B5FF09E0FFF78CFF06E03E2055
:10151C00FFF798FF0134E4B2032CF8D90135287891
:10152C0050B10A28EBD00D28EED0092802D0FFF7D5
:10153C00D5FFF3E70024EFE738BD000070B5061EB9
:10154C0001DB012507E02D20FFF7C8FF7642F8E705
:10155C0005EB8504650096FBF5F00928F8DC3030C6
:10156C00C0B2FFF7BBFF0E4B83FB0523EC17C4EB9C
:10157C00A30412E004EB8402530096FBF3F003FB8C
:10158C00106090FBF4F03030C0B2FFF7A7FF044BB3
:10159C0083FB0423E417C4EBA304002CEADC70BD2A
:1015AC006766666608B53020FFF7FEFE4FF4C8701C
:1015BC00FFF758FE3020FFF7F7FE4FF4C870FFF727
:1015CC0051FE2820FFF700FF0C20FFF77BFF0620C1
:1015DC00FFF778FFFFF716FFFFF724FF08BD0000A9
:1015EC0010B588B0184B9A6942F020029A619A693A
:1015FC0002F020020192019A9A6942F004029A6167
:10160C009A6902F004020292029A9A6942F0080264
:10161C009A619B6903F008030393039B0B4C002214
:10162C004FF230012046FFF701FA4FF230030493DA
:10163C0001230593002306930223079304A9204654
:10164C00FFF70AF908B010BD00100240000C014071
:10165C00FEE7000000B585B01248134B0360002371
:10166C008360C36043614FF46022C2614360012315
:10167C000361FEF7F7FF60B9002301930122029288
:10168C00039301A90748FEF773FE30B905B05DF866
:10169C0004FBDF210548FFF7DBFFE9210348FFF7D7
:1016AC00D7FF00BF5C00002000240140D01A0008C6
:1016BC0000B585B01248134B036000238360C360F0
:1016CC0043614FF46022C261436001230361FEF762
:1016DC00C9FF60B90123019302930023039301A96D
:1016EC000748FEF745FE30B905B05DF804FBFF2155
:1016FC000548FFF7ADFF40F209110348FFF7A8FFBB
:10170C002C00002000280140D01A000800B595B02C
:10171C0001220A924FF480330B9300210C910E920C
:10172C000222119212934FF4E01313930AA8FFF7BD
:10173C0099F950BB0F2305930221069100230793BF
:10174C004FF480620892099305A8FFF7B1FB00BB28
:10175C00022301934FF40043039301A8FFF77AFC93
:10176C00D8B9FFF761FC0F4BA3FB00308009FFF7E2
:10177C0047F80420FFF75AF8002211464FF0FF30CB
:10178C00FFF70AF815B05DF804FBAA210648FFF72D
:10179C005FFFB8210448FFF75BFFBF210248FFF74A
:1017AC0057FF00BFD34D6210D01A000810B5FEF7DA
:1017BC00EBFCFFF7ABFFFFF713FFFFF74BFFFFF758
:1017CC0077FF6420FEF704FDFFF7ECFE0AE02046ED
:1017DC00FEF7CAFD80B2FFF7B1FE1AE04FF47A7043
:1017EC00FEF7F6FCFFF70EFE00210120FFF740FE8E
:1017FC001648FFF781FE164C2046FEF797FE322165
:10180C002046FEF7F9FC2046FEF74EFE10F4007F52
:10181C00DDD100210220FFF72BFE0E48FFF76CFEF6
:10182C000D4C2046FEF782FE32212046FEF7E4FCEA
:10183C002046FEF739FE10F4007FCFD02046FEF78D
:10184C0093FD80B2FFF77AFEC8E700BFE01A0008EC
:10185C005C000020E81A00082C00002000B583B0C2
:10186C00244B9A6942F001029A619A6902F00102D2
:10187C000092009ADA6942F08052DA61DB6903F077
:10188C0080530193019B0320FEF774FF0022114645
:10189C006FF00B00FEF780FF002211466FF00A007C
:1018AC00FEF77AFF002211466FF00900FEF774FF75
:1018BC00002211466FF00400FEF76EFF0022114665
:1018CC006FF00300FEF768FF002211466FF0010075
:1018DC00FEF762FF002211464FF0FF30FEF75CFF6F
:1018EC00054A536823F0E06343F00073536003B080
:1018FC005DF804FB001002400000014000B587B009
:10190C000368174A934205D0164A934215D007B084
:10191C005DF804FB144B9A6942F400729A619B695E
:10192C0003F400730093009B01230293032303939E
:10193C0002A90E48FEF790FFE9E70B4B9A6942F4B7
:10194C0080629A619B6903F480630193019B02237B
:10195C0002930323039302A90448FEF77DFFD6E705
:10196C000024014000280140001002400008014002
:10197C007047FEE7FEE7FEE7FEE7704770477047EB
:10198C0008B5FEF713FCFEF762FF08BD0F4B1A6893
:10199C0042F001021A6059680D4A0A405A601A68EE
:1019AC0022F0847222F480321A601A6822F48022A7
:1019BC001A605A6822F4FE025A604FF41F029A60B1
:1019CC00044B4FF000629A60704700BF0010024059
:1019DC000000FFF800ED00E0002103E00B4B5B582A
:1019EC00435004310A480B4B42189A42F6D30A4A28
:1019FC0002E0002342F8043B084B9A42F9D3FFF76C
:101A0C00C5FF00F00FF8FFF7D1FE7047F81A000879
:101A1C00000000200C0000200C0000208C00002096
:101A2C00FEE7000070B500250C4E0D4CA41BA41055
:101A3C00A54209D100F01AF800250A4E0A4CA41B45
:101A4C00A410A54205D170BD56F825309847013534
:101A5C00EEE756F8253098470135F2E7F01A000802
:101A6C00F01A0008F01A0008F41A0008F8B500BFC4
:101A7C00F8BC08BC9E467047F8B500BFF8BC08BC63
:041A8C009E467047BB
:101A900002030405060708090A0B0C0D0E0F1010AF
:101AA0000102000002030405060708090A0B0C0DD9
:101AB0000E0F1010010200000000000000000000E6
:101AC00001020304060708090000000001020304E4
:101AD0002E2E2F5372632F6D61696E2E63000000EE
:101AE000494E303D00000000494E313D00000000ED
:041AF00031010008B8
:041AF4000D010008D8
:0C1AF800010000001000000000A24A04E1
:04000005080019E5F1
:00000001FF
