:020000040800F2
:1000000000500020751300080D1300080F1300089E
:100010001113000813130008151300080000000056
:10002000000000000000000000000000171300089E
:1000300019130008000000001B1300081D1300081E
:10004000BD130008BD130008BD130008BD13000850
:10005000BD130008BD130008BD130008BD13000840
:10006000BD130008BD130008BD130008BD13000830
:10007000BD130008BD130008BD130008BD13000820
:10008000BD130008BD130008BD130008BD13000810
:10009000BD130008BD130008BD130008BD13000800
:1000A000BD130008BD130008BD130008BD130008F0
:1000B000BD130008BD130008BD130008BD130008E0
:1000C000BD130008BD130008BD130008BD130008D0
:1000D000BD130008BD130008BD130008BD130008C0
:1000E000BD130008BD130008BD1300080000000088
:1000F0000000000000000000000000000000000000
:0C01000000000000000000005FF808F1A3
:10010C0010B5054C237833B9044B13B10448AFF345
:10011C0000800123237010BD10000020000000009F
:10012C000814000808B5034B1BB103490348AFF38F
:10013C00008008BD00000000140000200814000816
:10014C0010B504460E4B18784FF47A73B3FBF0F3EA
:10015C000C4A1068B0FBF3F000F094F868B90F2C5F
:10016C0001D901200AE0002221464FF0FF3000F0B7
:10017C0055F8034B5C60002000E0012010BD00BF6F
:10018C00000000200C00002008B5074A136843F05B
:10019C0010031360032000F02FF80020FFF7D0FFAE
:1001AC0001F03AF8002008BD00200240034A116813
:1001BC00034B1B780B441360704700BF30000020CA
:1001CC0000000020014B1868704700BF3000002071
:1001DC0038B50446FFF7F6FF0546B4F1FF3F02D0F1
:1001EC00044B1B781C44FFF7EDFF401BA042FAD3D5
:1001FC0038BD00BF00000020074AD36823F4E06339
:10020C001B041B0C000200F4E060184340F0BF60BC
:10021C0040F40030D060704700ED00E030B4174B74
:10022C00DB68C3F30223C3F10704042C28BF0424A6
:10023C001D1D062D18D9033B4FF0FF3505FA04F4AC
:10024C0021EA0401994005FA03F322EA0303194356
:10025C0000280BDB0901C9B200F1604000F56140D8
:10026C0080F8001330BC70470023E5E700F00F0066
:10027C000901C9B2024B1954F4E700BF00ED00E0CC
:10028C0014ED00E00138B0F1807F0AD2064B5860C3
:10029C00064AF02182F823100020986007221A6089
:1002AC0070470120704700BF10E000E000ED00E057
:1002BC00042805D0054A136823F004031360704723
:1002CC00024A136843F004031360704710E000E027
:1002DC00704708B5FFF7FCFF08BD0000F0B482B012
:1002EC0000263546A1E0002C59D0012C00D1CE6857
:1002FC00FF2B68D88446FF2B68D8AC00DCF80020B4
:10030C000F27A74022EA070206FA04F42243CCF88E
:10031C0000204A6812F0805F00F086805E4A946983
:10032C0044F001049461926902F001020192019A75
:10033C00AC08A71C594A52F8272005F00307BF0048
:10034C004FF00F0C0CFA07FC22EA0C0C544A9042AA
:10035C0042D002F5806290427FD002F580629042DA
:10036C007DD002F58062904234D0042235E04D4FAE
:10037C00BC4214D00BD94C4FBC4210D007F580377F
:10038C00BC420CD0A7F58017BC42B1D107E0A7F551
:10039C008017BC4203D007F58037BC42A8D18C68CB
:1003AC007CB1012C08D042610826A1E7CE68083642
:1003BC009EE7CE680C369BE70261082698E700267C
:1003CC0096E7042694E700F1040C94E7A5F10804E1
:1003DC00A40093E7032200E00022BA4042EA0C0298
:1003EC0002342E4F47F824204A6812F4803F38D04C
:1003FC002E4C22681A4322604A6812F4003F36D011
:10040C002A4C62681A4362604A6812F4801F34D026
:10041C00264CA2681A43A2604A6812F4001F32D01C
:10042C00224CE2681343E36001350F2D31D80122D1
:10043C00AA400B6813409A42F6D14C68122CB8D0E3
:10044C0095D8022CB2D07FF64EAF032CB7D0112C1E
:10045C007FF44EAFCE6804364AE70122BDE7022294
:10046C00BBE7124C226822EA03022260C4E70F4C5D
:10047C00626822EA03026260C6E70C4CA26822EAB8
:10048C000302A260C8E7094CE26822EA0303E360B6
:10049C00CAE702B0F0BC70470010024000000140F7
:1004AC000008014000002110000031100004014040
:1004BC0012B90904016170470161704782B0084BA1
:1004CC001B68084AA2FB03235B0A00FB03F00190A4
:1004DC0000BF019B5A1E0192002BF9D102B070474C
:1004EC000C000020D34D621070B582B00446036836
:1004FC0013F0010F2CD0AB4B5B6803F00C03042BF7
:10050C001DD0A84B5B6803F00C03082B12D063685A
:10051C00B3F5803F41D0002B55D103F1804303F557
:10052C0004331A6822F480321A601A6822F480228A
:10053C001A6037E09B4B5B6813F4803FE7D0994B14
:10054C001B6813F4003F03D06368002B00F0AE81EE
:10055C00236813F0020F76D0924B5B6813F00C0FEC
:10056C005FD0904B5B6803F00C03082B54D02369CD
:10057C00002B00F08A808C4B01221A60FFF722FEC0
:10058C000546884B1B6813F0020F75D1FFF71AFE56
:10059C00401B0228F5D903208BE1824A136843F4EF
:1005AC0080331360636843B3FFF70CFE05467D4B45
:1005BC001B6813F4003FCBD1FFF704FE401B6428EB
:1005CC00F5D9032075E1B3F5A02F09D0754B1A6846
:1005DC0022F480321A601A6822F480221A60E1E751
:1005EC0003F18043A3F53C331A6842F480221A606D
:1005FC001A6842F480321A60D4E7FFF7E3FD05462F
:10060C00684B1B6813F4003FA2D0FFF7DBFD401BC7
:10061C006428F5D903204CE1624B5B6813F4803FEE
:10062C00A5D1604B1B6813F0020F04D02369012B7A
:10063C0001D001203DE15B4A136823F0F8036169A6
:10064C0043EAC1031360236813F0080F32D0A36987
:10065C00002B5BD0554B01221A60FFF7B3FD05460A
:10066C00504B5B6A13F0020F21D1FFF7ABFD401B1F
:10067C000228F5D903201CE14A4A136823F0F80339
:10068C00616943EAC1031360DDE7474B00221A603E
:10069C00FFF798FD0546434B1B6813F0020FD2D0B1
:1006AC00FFF790FD401B0228F5D9032001E1012042
:1006BC00FFF704FF236813F0040F00F09780394B09
:1006CC00DB6913F0805F33D1364BDA6942F080522C
:1006DC00DA61DB6903F080530193019B0125344BF4
:1006EC001B6813F4807F25D0E368012B36D0002BD8
:1006FC004CD103F1804303F504331A6A22F0010252
:10070C001A621A6A22F004021A622CE0274B0022A9
:10071C001A60FFF757FD0546224B5B6A13F0020F78
:10072C00C8D0FFF74FFD401B0228F5D90320C0E0CD
:10073C000025D4E71E4A136843F480731360FFF757
:10074C0041FD06461A4B1B6813F4807FCCD1FFF792
:10075C0039FD801B6428F5D90320AAE0114A136ADD
:10076C0043F001031362E36873B3FFF72BFD0646F6
:10077C000C4B1B6A13F0020F37D1FFF723FD801BC4
:10078C0041F288339842F3D9032092E0052B11D023
:10079C00044B1A6A22F001021A621A6A22F004024D
:1007AC001A62E0E70010024000004242800442421C
:1007BC0000700040414B1A6A42F004021A621A6A35
:1007CC0042F001021A62CEE7FFF7FCFC06463B4BF7
:1007DC001B6A13F0020F08D0FFF7F4FC801B41F2E8
:1007EC0088339842F3D9032063E0E5B9E369002B21
:1007FC005ED0324A526802F00C02082A5BD0022BFF
:10080C0017D02F4B00221A60FFF7DCFC04462B4B51
:10081C001B6813F0007F47D0FFF7D4FC001B0228A5
:10082C00F5D9032045E0254AD36923F08053D361E1
:10083C00DCE7234B00221A60FFF7C4FC05461F4B74
:10084C001B6813F0007F06D0FFF7BCFC401B02288E
:10085C00F5D903202DE0236AB3F5803F1AD0174950
:10086C004B6823F47413226A606A024313434B608F
:10087C00134B01221A60FFF7A5FC04460F4B1B68B3
:10088C0013F0007F0ED1FFF79DFC001B0228F5D959
:10089C0003200EE0094A536823F40033A1680B438C
:1008AC005360DCE7002004E0002002E0012000E0BF
:1008BC00002002B070BD0120FBE700BF0010024019
:1008CC006000424210B487B0164C94E80F000DF152
:1008DC00180C0CE90F00238AADF80430124B5B683E
:1008EC0003F00C02082A1AD1C3F38342624412F8B3
:1008FC00102C13F4803F05D10C4800FB02F007B01C
:10090C0010BC7047084B5B68C3F34043634413F857
:10091C00143C074800FB02F0B0FBF3F0EFE704488F
:10092C00EDE700BF201400080010024000093D0054
:10093C0000127A00594B1B6803F007038B420CD250
:10094C00564A136823F007030B431360136803F034
:10095C0007038B4201D00120704770B5036813F078
:10096C00020F06D04E4A536823F0F00384682343E9
:10097C0053600C460546036813F0010F52D04368D0
:10098C00012B23D0022B28D0454A126812F0020FFB
:10099C0000F0828042494A6822F0030213434B6004
:1009AC00FFF710FC06466B68012B1DD0022B2AD0DA
:1009BC003B4B5B6813F00C0F34D0FFF703FC801B30
:1009CC0041F288339842F3D9032064E0344A126828
:1009DC0012F4003FDED101205DE0314A126812F0C2
:1009EC00007FD7D1012056E02D4B5B6803F00C0340
:1009FC00042B17D0FFF7E6FB801B41F2883398429B
:100A0C00F2D9032047E0264B5B6803F00C03082B5C
:100A1C0008D0FFF7D7FB801B41F288339842F2D9FC
:100A2C00032038E01D4B1B6803F00703A3420CD9CD
:100A3C001A4A136823F0070323431360136803F067
:100A4C000703A34201D0012025E02B6813F0040F0B
:100A5C0006D0134A536823F4E063E9680B435360F0
:100A6C002B6813F0080F07D00D4A536823F460531A
:100A7C00296943EAC1035360FFF724FF084B5B6805
:100A8C00C3F30313074AD35CD840074B186000200C
:100A9C00FFF756FB002070BD0120FCE70020024050
:100AAC0000100240341400080C000020014B1868A0
:100ABC00704700BF0C00002003681B4A90420AD00C
:100ACC00B0F1804F07D0A2F59432904203D002F5DA
:100ADC008062904203D123F070034A681343124A98
:100AEC0090420AD0B0F1804F07D0A2F594329042D8
:100AFC0003D002F58062904203D123F44073CA689C
:100B0C00134323F080034A69134303608B68C36269
:100B1C000B688362044B984202D0012343617047F7
:100B2C000B690363F9E700BF002C0140002847D094
:100B3C00F8B505460C4690F83D30002B3BD002230F
:100B4C0085F83D30294651F8042B936823F00703B0
:100B5C0093602868FFF7B0FF29688A688E690F6A6E
:100B6C002068104326F4407626F00306A268A36999
:100B7C0042EA0323334323F47C4323F0FC03E6686B
:100B8C00E26946EA02261E43226A1303226943EAFB
:100B9C000213334327F0AA076268646942EA04121D
:100BAC003A43886029688B612B681A62012385F8A7
:100BBC003D300020F8BD80F83C3000F07DFBBEE7F6
:100BCC000120704710B4012303FA01F4036A23EAED
:100BDC0004030362036A8A401343036210BC704728
:100BEC0010B5044661B1042916D001220021006819
:100BFC00FFF7E8FF012204212068FFF7E3FF04E080
:100C0C00012200210068FFF7DDFF2268136843F022
:100C1C0001031360002010BD012204210068FFF7BE
:100C2C00D1FFF2E790F83C30012B22D030B40122F6
:100C3C0080F83C20022380F83D300468636823F080
:100C4C0070036360046863680D682B436360046819
:100C5C00A36823F08003A3600468A36849680B436E
:100C6C00A36080F83D20002380F83C30184630BC4F
:100C7C00704702207047000082B00190094B1B683E
:100C8C00094AA2FB03239B0C019A02FB03F3019379
:100C9C0002E0019B013B0193019B002BF9D102B0B7
:100CAC00704700BF0C00002083DE1B4310B5064CC0
:100CBC00E36843F02003E3600120FFF7DDFFE36806
:100CCC0023F02003E36010BD000C014010F0800FF6
:100CDC001DD11B4AD36823F40043D36010F0400F9E
:100CEC001BD0174AD36843F48043D36010F0200F15
:100CFC0019D0134AD36843F40053D36010F0100F8B
:100D0C0017D10F4AD36823F48053D36070470C4A31
:100D1C00D36843F40043D360E0E7094AD36823F473
:100D2C008043D360E2E7064AD36823F40053D360D0
:100D3C00E4E7034AD36843F48053D360704700BFA1
:100D4C00000C014010F0080F1DD01B4AD36843F46F
:100D5C000043D36010F0040F1BD0174AD36843F440
:100D6C008043D36010F0020F19D0134AD36843F4B8
:100D7C000053D36010F0010F17D10F4AD36823F43E
:100D8C008053D36070470C4AD36823F40043D3607C
:100D9C00E0E7094AD36823F48043D360E2E7064ACC
:100DAC00D36823F40053D360E4E7034AD36843F4D5
:100DBC008053D360704700BF000C014010B504464F
:100DCC00FFF784FFFFF772FF2046FFF7BBFFFFF72B
:100DDC006DFF0520FFF750FF10BD000010B5044655
:100DEC000C4AD36823F01003D360FFF76FFFFFF7B3
:100DFC005DFF0520FFF740FFFFF758FF0520FFF7C9
:100E0C003BFF2046FFF79EFFFFF750FF0520FFF743
:100E1C0033FF10BD000C014008B5064AD36823F01F
:100E2C001003D3600120FFF7C9FFC820FFF724FF90
:100E3C0008BD00BF000C014008B5064AD36823F07A
:100E4C001003D3600220FFF7B9FFC820FFF714FF8F
:100E5C0008BD00BF000C014008B5094AD36823F057
:100E6C001003D3603C2802D03E2804D008BD1020CB
:100E7C00FFF7A4FFFAE71420FFF7A0FFF6E700BF87
:100E8C00000C014008B5134AD36823F01003D3605B
:100E9C000138042808D8DFE800F003080D12170009
:100EAC0041F08000FFF78AFF08BD41F0C000FFF75A
:100EBC0085FFF9E741F09000FFF780FFF4E741F080
:100ECC00D000FFF77BFFEFE741F04000FFF776FF24
:100EDC00EAE700BF000C014008B5044AD36823F0D0
:100EEC001003D360FFF76AFF08BD00BF000C014080
:100EFC0008B5054AD36843F01003D360FFF75EFFD3
:100F0C000120FFF7B9FE08BD000C014038B50546BD
:100F1C000FE000210220FFF7B5FF09E0FFF78CFF7F
:100F2C0006E03E20FFF798FF0134E4B2032CF8D919
:100F3C000135287850B10A28EBD00D28EED00928BD
:100F4C0002D0FFF7D5FFF3E70024EFE738BD000030
:100F5C0070B5061E01DB012507E02D20FFF7C8FF49
:100F6C007642F8E705EB8504650096FBF5F0092859
:100F7C00F8DC3030C0B2FFF7BBFF0E4B83FB052310
:100F8C00EC17C4EBA30412E004EB8402530096FBB1
:100F9C00F3F003FB106090FBF4F03030C0B2FFF7BD
:100FAC00A7FF044B83FB0423E417C4EBA304002C1E
:100FBC00EADC70BD6766666608B53020FFF7FEFE9A
:100FCC004FF4C870FFF758FE3020FFF7F7FE4FF4D0
:100FDC00C870FFF751FE2820FFF700FF0C20FFF729
:100FEC007BFF0620FFF778FFFFF716FFFFF724FFC4
:100FFC0008BD000010B588B0184B9A6942F0200269
:10100C009A619A6902F020020192019A9A6942F05F
:10101C0008029A619A6902F008020292029A9A698D
:10102C0042F004029A619B6903F004030393039B4F
:10103C000B4C00224FF230012046FFF739FA4FF2E9
:10104C003003049301230593002306930223079393
:10105C0004A92046FFF742F908B010BD0010024069
:10106C00000C0140FEE7000000B58DB01648174B90
:10107C000360002343608360FF22C2604FF48072E0
:10108C0002614361836101220392049305920693EA
:10109C000793089309920A930B9303A9FFF746FD54
:1010AC0050B900230193029301A90748FFF7BAFD39
:1010BC0030B90DB05DF804FBE0210548FFF7D2FF15
:1010CC00E7210348FFF7CEFF38000020002C014039
:1010DC004C14000800B591B0012206924FF48033F5
:1010EC000793002108910A9202220D920E934FF45D
:1010FC00E0130F9306A8FFF7F7F908BB0F23019332
:10110C0002210291002303934FF480620492059311
:10111C0001A8FFF70FFCB8B9FFF7C8FC0C4BA3FBF9
:10112C0000308009FFF7AEF80420FFF7C1F8002269
:10113C0011464FF0FF30FFF771F811B05DF804FB6A
:10114C00AA210448FFF78EFFB8210248FFF78AFF57
:10115C00D34D62104C14000808B5FFF715F8FFF7D3
:10116C00B9FFFFF747FFFFF77FFF6420FFF730F869
:10117C00FFF722FF18212048FFF732FDFFF74CFE46
:10118C0000210120FFF77EFE1C48FFF7BFFE1C4B21
:10119C001878FFF7DDFE09E01A4A13701A4A00218D
:1011AC0011700CE0194B1B78012B12D0184B5B6A99
:1011BC00DBB2134A1370144A1278012AECD0114A8C
:1011CC0012789342EED00F4A1370104B01221A7012
:1011DC00E8E700210220FFF755FE0E48FFF796FEC8
:1011EC0006210220FFF74EFE054B1878FFF7B0FEE4
:1011FC00064B00221A70D9E7380000205C14000856
:10120C003500002034000020080000202C000020B5
:10121C00002C01406C14000800B583B0244B9A6973
:10122C0042F001029A619A6902F001020092009A5E
:10123C00DA6942F08052DA61DB6903F08053019382
:10124C00019B0320FEF7D8FF002211466FF00B0024
:10125C00FEF7E4FF002211466FF00A00FEF7DEFFF6
:10126C00002211466FF00900FEF7D8FF002211464C
:10127C006FF00400FEF7D2FF002211466FF003005E
:10128C00FEF7CCFF002211466FF00100FEF7C6FFFF
:10129C00002211464FF0FF30FEF7C0FF054A53689D
:1012AC0023F0E06343F00073536003B05DF804FB7C
:1012BC00001002400000014002680F4B9A4200D01F
:1012CC00704700B587B003F564439A6942F4006235
:1012DC009A619B6903F400630193019B4FF4407383
:1012EC000293002303930123049302A90348FEF7FE
:1012FC00F5FF07B05DF804FB002C0140000801402D
:10130C007047FEE7FEE7FEE7FEE770477047704761
:10131C0008B5FEF74BFFFEF7DCFF08BD0F4B1A6854
:10132C0042F001021A6059680D4A0A405A601A6864
:10133C0022F0847222F480321A601A6822F480221D
:10134C001A605A6822F4FE025A604FF41F029A6027
:10135C00044B4FF000629A60704700BF00100240CF
:10136C000000FFF800ED00E0002103E00B4B5B58A0
:10137C00435004310A480B4B42189A42F6D30A4A9E
:10138C0002E0002342F8043B084B9A42F9D3FFF7E2
:10139C00C5FF00F00FF8FFF7DFFE70478014000860
:1013AC000000002010000020100000207800002019
:1013BC00FEE7000070B500250C4E0D4CA41BA410CC
:1013CC00A54209D100F01AF800250A4E0A4CA41BBC
:1013DC00A410A54205D170BD56F8253098470135AB
:1013EC00EEE756F8253098470135F2E778140008F7
:1013FC0078140008781400087C140008F8B500BFB5
:10140C00F8BC08BC9E467047F8B500BFF8BC08BCD9
:04141C009E46704731
:1014200002030405060708090A0B0C0D0E0F101025
:10143000010200000000000000000000010203049F
:101440000607080900000000010203042E2E2F5396
:1014500072632F6D61696E2E63000000456E636FCD
:101460006465723A0A56616C6F723D0056616C6F2A
:08147000723D20202020000045
:041478003101000836
:04147C000D01000856
:1014800001000000100000000100000000A24A045A
:040000050800137567
:00000001FF
