:020000040800F2
:1000000000500020D51100085D1100085F110008A4
:10001000611100086311000865110008000000006C
:100020000000000000000000000000006711000850
:1000300069110008000000006B1100086D11000834
:100040001D1200081D1200081D1200081D120008D4
:100050001D1200081D1200081D1200081D120008C4
:100060001D1200081D1200081D1200081D120008B4
:100070001D1200081D1200081D1200081D120008A4
:100080001D1200081D1200081D1200081D12000894
:100090001D1200081D1200081D1200081D12000884
:1000A0001D120008791100081D1200081D12000819
:1000B0001D1200081D1200081D1200081D12000864
:1000C0001D1200081D1200081D1200081D12000854
:1000D0001D1200081D1200081D1200081D12000844
:1000E0001D1200081D1200081D120008000000006B
:1000F0000000000000000000000000000000000000
:0C01000000000000000000005FF808F1A3
:10010C0010B5054C237833B9044B13B10448AFF345
:10011C0000800123237010BD0C00002000000000A3
:10012C006812000808B5034B1BB103490348AFF331
:10013C00008008BD000000001000002068120008BC
:10014C0010B504460E4B18784FF47A73B3FBF0F3EA
:10015C000C4A1068B0FBF3F000F08CF868B90F2C67
:10016C0001D901200AE0002221464FF0FF3000F0B7
:10017C0041F8034B5C60002000E0012010BD00BF83
:10018C00000000200800002008B5074A136843F05F
:10019C0010031360032000F01BF80020FFF7D0FFC2
:1001AC0000F066FF002008BD00200240034A1168E1
:1001BC00034B1B780B441360704700BF28000020D2
:1001CC0000000020014B1868704700BF2800002079
:1001DC00074AD36823F4E0631B041B0C000200F4F1
:1001EC00E060184340F0BF6040F40030D0607047CE
:1001FC0000ED00E030B4174BDB68C3F30223C3F10E
:10020C000704042C28BF04241D1D062D18D9033BFC
:10021C004FF0FF3505FA04F421EA0401994005FA80
:10022C0003F322EA0303194300280BDB0901C9B2CB
:10023C0000F1604000F5614080F8001330BC70475D
:10024C000023E5E700F00F000901C9B2024B195475
:10025C00F4E700BF00ED00E014ED00E000F01F0239
:10026C00400901239340024A42F82030704700BFF6
:10027C0000E100E00138B0F1807F0AD2064B5860F3
:10028C00064AF02182F823100020986007221A6099
:10029C0070470120704700BF10E000E000ED00E067
:1002AC00042805D0054A136823F004031360704733
:1002BC00024A136843F004031360704710E000E037
:1002CC00704708B5FFF7FCFF08BD0000F0B482B022
:1002DC0000263546A1E0002C59D0012C00D1CE6867
:1002EC00FF2B68D88446FF2B68D8AC00DCF80020C4
:1002FC000F27A74022EA070206FA04F42243CCF89F
:10030C0000204A6812F0805F00F086805E4A946993
:10031C0044F001049461926902F001020192019A85
:10032C00AC08A71C594A52F8272005F00307BF0058
:10033C004FF00F0C0CFA07FC22EA0C0C544A9042BA
:10034C0042D002F5806290427FD002F580629042EA
:10035C007DD002F58062904234D0042235E04D4FBE
:10036C00BC4214D00BD94C4FBC4210D007F580378F
:10037C00BC420CD0A7F58017BC42B1D107E0A7F561
:10038C008017BC4203D007F58037BC42A8D18C68DB
:10039C007CB1012C08D042610826A1E7CE68083652
:1003AC009EE7CE680C369BE70261082698E700268C
:1003BC0096E7042694E700F1040C94E7A5F10804F1
:1003CC00A40093E7032200E00022BA4042EA0C02A8
:1003DC0002342E4F47F824204A6812F4803F38D05C
:1003EC002E4C22681A4322604A6812F4003F36D021
:1003FC002A4C62681A4362604A6812F4801F34D037
:10040C00264CA2681A43A2604A6812F4001F32D02C
:10041C00224CE2681343E36001350F2D31D80122E1
:10042C00AA400B6813409A42F6D14C68122CB8D0F3
:10043C0095D8022CB2D07FF64EAF032CB7D0112C2E
:10044C007FF44EAFCE6804364AE70122BDE70222A4
:10045C00BBE7124C226822EA03022260C4E70F4C6D
:10046C00626822EA03026260C6E70C4CA26822EAC8
:10047C000302A260C8E7094CE26822EA0303E360C6
:10048C00CAE702B0F0BC7047001002400000014007
:10049C000008014000002110000031100004014050
:1004AC0012B909040161704701617047C368594072
:1004BC00C160704782B0084B1B68084AA2FB03233B
:1004CC005B0A00FB03F0019000BF019B5A1E0192D6
:1004DC00002BF9D102B0704708000020D34D6210F8
:1004EC0070B582B00446036813F0010F2CD0AB4BEF
:1004FC005B6803F00C03042B1DD0A84B5B6803F066
:10050C000C03082B12D06368B3F5803F41D0002B4D
:10051C0055D103F1804303F504331A6822F4803279
:10052C001A601A6822F480221A6037E09B4B5B68D1
:10053C0013F4803FE7D0994B1B6813F4003F03D0B2
:10054C006368002B00F0AE81236813F0020F76D0A5
:10055C00924B5B6813F00C0F5FD0904B5B6803F011
:10056C000C03082B54D02369002B00F08A808C4B91
:10057C0001221A60FFF726FE0546884B1B6813F014
:10058C00020F75D1FFF71EFE401B0228F5D9032080
:10059C008BE1824A136843F480331360636843B37E
:1005AC00FFF710FE05467D4B1B6813F4003FCBD1C3
:1005BC00FFF708FE401B6428F5D9032075E1B3F55D
:1005CC00A02F09D0754B1A6822F480321A601A6871
:1005DC0022F480221A60E1E703F18043A3F53C3357
:1005EC001A6842F480221A601A6842F480321A6047
:1005FC00D4E7FFF7E7FD0546684B1B6813F4003F93
:10060C00A2D0FFF7DFFD401B6428F5D903204CE195
:10061C00624B5B6813F4803FA5D1604B1B6813F0F1
:10062C00020F04D02369012B01D001203DE15B4A6C
:10063C00136823F0F803616943EAC103136023686C
:10064C0013F0080F32D0A369002B5BD0554B01225D
:10065C001A60FFF7B7FD0546504B5B6A13F0020FAB
:10066C0021D1FFF7AFFD401B0228F5D903201CE177
:10067C004A4A136823F0F803616943EAC103136023
:10068C00DDE7474B00221A60FFF79CFD0546434B04
:10069C001B6813F0020FD2D0FFF794FD401B022809
:1006AC00F5D9032001E10120FFF704FF236813F0C3
:1006BC00040F00F09780394BDB6913F0805F33D166
:1006CC00364BDA6942F08052DA61DB6903F0805311
:1006DC000193019B0125344B1B6813F4807F25D0BB
:1006EC00E368012B36D0002B4CD103F1804303F58A
:1006FC0004331A6A22F001021A621A6A22F0040206
:10070C001A622CE0274B00221A60FFF75BFD0546AE
:10071C00224B5B6A13F0020FC8D0FFF753FD401B4E
:10072C000228F5D90320C0E00025D4E71E4A13683F
:10073C0043F480731360FFF745FD06461A4B1B68A4
:10074C0013F4807FCCD1FFF73DFD801B6428F5D9D5
:10075C000320AAE0114A136A43F001031362E36811
:10076C0073B3FFF72FFD06460C4B1B6A13F0020FF9
:10077C0037D1FFF727FD801B41F288339842F3D91C
:10078C00032092E0052B11D0044B1A6A22F00102CF
:10079C001A621A6A22F004021A62E0E700100240A0
:1007AC00000042428004424200700040414B1A6AF1
:1007BC0042F004021A621A6A42F001021A62CEE78F
:1007CC00FFF700FD06463B4B1B6A13F0020F08D0E7
:1007DC00FFF7F8FC801B41F288339842F3D90320D1
:1007EC0063E0E5B9E369002B5ED0324A526802F04F
:1007FC000C02082A5BD0022B17D02F4B00221A6058
:10080C00FFF7E0FC04462B4B1B6813F0007F47D02E
:10081C00FFF7D8FC001B0228F5D9032045E0254A38
:10082C00D36923F08053D361DCE7234B00221A6099
:10083C00FFF7C8FC05461F4B1B6813F0007F06D062
:10084C00FFF7C0FC401B0228F5D903202DE0236ADA
:10085C00B3F5803F1AD017494B6823F47413226AFE
:10086C00606A024313434B60134B01221A60FFF77B
:10087C00A9FC04460F4B1B6813F0007F0ED1FFF749
:10088C00A1FC001B0228F5D903200EE0094A53688D
:10089C0023F40033A1680B435360DCE7002004E031
:1008AC00002002E0012000E0002002B070BD012019
:1008BC00FBE700BF001002406000424210B487B05A
:1008CC00164C94E80F000DF1180C0CE90F00238A5C
:1008DC00ADF80430124B5B6803F00C02082A1AD1F5
:1008EC00C3F38342624412F8102C13F4803F05D1F9
:1008FC000C4800FB02F007B010BC7047084B5B685B
:10090C00C3F34043634413F8143C074800FB02F064
:10091C00B0FBF3F0EFE70448EDE700BF80120008EE
:10092C000010024000093D0000127A00594B1B6870
:10093C0003F007038B420CD2564A136823F00703CB
:10094C000B431360136803F007038B4201D00120A3
:10095C00704770B5036813F0020F06D04E4A536807
:10096C0023F0F0038468234353600C460546036868
:10097C0013F0010F52D04368012B23D0022B28D047
:10098C00454A126812F0020F00F0828042494A6810
:10099C0022F0030213434B60FFF714FC06466B680E
:1009AC00012B1DD0022B2AD03B4B5B6813F00C0F94
:1009BC0034D0FFF707FC801B41F288339842F3D9FF
:1009CC00032064E0344A126812F4003FDED10120A7
:1009DC005DE0314A126812F0007FD7D1012056E059
:1009EC002D4B5B6803F00C03042B17D0FFF7EAFBCD
:1009FC00801B41F288339842F2D9032047E0264B02
:100A0C005B6803F00C03082B08D0FFF7DBFB801BA3
:100A1C0041F288339842F2D9032038E01D4B1B6811
:100A2C0003F00703A3420CD91A4A136823F00703F7
:100A3C0023431360136803F00703A34201D0012082
:100A4C0025E02B6813F0040F06D0134A536823F4E7
:100A5C00E063E9680B4353602B6813F0080F07D071
:100A6C000D4A536823F46053296943EAC103536068
:100A7C00FFF724FF084B5B68C3F30313074AD35CEF
:100A8C00D840074B18600020FFF75AFB002070BDC0
:100A9C000120FCE7002002400010024094120008E4
:100AAC0008000020014B1868704700BF08000020A8
:100ABC0010B4036A046A24F001040462846924F00B
:100ACC00F00444EA021223F00A030B43826103622E
:100ADC0010BC704710B4036A23F0100303628469DE
:100AEC00036A24F4704444EA023223F0A00343EA7C
:100AFC0001138261036210BC7047836823F070039A
:100B0C0041F0070119438160704710B4846824F4E4
:100B1C007F4442EA03230B432343836010BC70479A
:100B2C000268D36843F00103D3600268136843F092
:100B3C00010313600020704790F83C30012B7DD0EE
:100B4C0010B50446012380F83C30022380F83D3078
:100B5C000268936823F47F4323F0770393600B6858
:100B6C00402B57D010D9702B3ED01FD8502B47D0CC
:100B7C00602B32D1CA6849680068FFF7ABFF60216F
:100B8C002068FFF7BAFF28E0102B4DD008D9202B96
:100B9C004FD0302B21D130210068FFF7AEFF1CE085
:100BAC00DBB900210068FFF7A8FF16E0B3F5805F02
:100BBC000ED0B3F5005F10D1CB684A688968006825
:100BCC00FFF7A3FF2268936843F48043936004E02B
:100BDC000268936823F007039360012384F83D3087
:100BEC00002084F83C0010BDCB684A688968006816
:100BFC00FFF78BFF2268936843F077039360ECE771
:100C0C00CA6849680068FFF753FF50212068FFF756
:100C1C0074FFE2E7CA6849680068FFF749FF4021A2
:100C2C002068FFF76AFFD8E710210068FFF765FF1F
:100C3C00D3E720210068FFF760FFCEE70220704762
:100C4C00704770477047704710B5044603681A69BF
:100C5C0012F0020F11D0DA6812F0020F0DD06FF003
:100C6C0002021A610123037703689B6913F0030FD7
:100C7C0070D0FFF7E6FF0023237723681A6912F080
:100C8C00040F12D0DA6812F0040F0ED06FF00402C9
:100C9C001A610223237723689B6913F4407F5FD08A
:100CAC002046FFF7CEFF0023237723681A6912F042
:100CBC00080F12D0DA6812F0080F0ED06FF008028D
:100CCC001A61042323772368DB6913F0030F4ED0DA
:100CDC002046FFF7B6FF0023237723681A6912F02A
:100CEC00100F12D0DA6812F0100F0ED06FF0100245
:100CFC001A61082323772368DB6913F4407F3DD006
:100D0C002046FFF79EFF0023237723681A6912F011
:100D1C00010F03D0DA6812F0010F36D123681A697B
:100D2C0012F0800F03D0DA6812F0800F34D12368F0
:100D3C001A6912F0400F03D0DA6812F0400F32D16A
:100D4C0023681A6912F0200F03D0DA6812F0200F12
:100D5C0030D110BDFFF774FF2046FFF773FF8AE711
:100D6C002046FFF76DFF2046FFF76CFF9BE7204600
:100D7C00FFF766FF2046FFF765FFACE72046FFF75D
:100D8C005FFF2046FFF75EFFBDE76FF001021A61BF
:100D9C00204600F0CDF8C1E76FF080021A612046C2
:100DAC0000F08DF8C3E76FF040021A612046FFF7A0
:100DBC004AFFC5E76FF020021A61204600F07EF86A
:100DCC00C7E7000003681B4A90420AD0B0F1804F7D
:100DDC0007D0A2F59432904203D002F58062904283
:100DEC0003D123F070034A681343124A90420AD08D
:100DFC00B0F1804F07D0A2F59432904203D002F5A7
:100E0C008062904203D123F44073CA68134323F0E9
:100E1C0080034A69134303608B68C3620B68836267
:100E2C00044B984202D00123436170470B69036362
:100E3C00F9E700BF002C0140A8B110B5044690F8AA
:100E4C003D305BB1022384F83D30211D2068FFF753
:100E5C00B9FF012384F83D30002010BD80F83C30F0
:100E6C0000F056F9EEE70120704790F83C30012B6A
:100E7C0022D030B4012280F83C20022380F83D308F
:100E8C000468636823F070036360046863680D682A
:100E9C002B4363600468A36823F08003A360046899
:100EAC00A36849680B43A36080F83D20002380F8B9
:100EBC003C30184630BC7047022070477047704772
:100ECC0010B588B0184B9A6942F010029A619A6971
:100EDC0002F010020192019A9A6942F020029A6182
:100EEC009A6902F020020292029A9A6942F0040274
:100EFC009A619B6903F004030393039B0B4C01223F
:100F0C004FF400512046FFF7CBFA4FF400530493F3
:100F1C0001230593002306930223079304A920467B
:100F2C00FFF7D4F908B010BD0010024000100140CA
:100F3C0008B50268054B1B689A4200D008BD4FF4F7
:100F4C0000510348FFF7B2FAF8E700BF2C0000206D
:100F5C0000100140FEE7000000B587B01848194B9F
:100F6C00036048F69F4343600023836040F2E732FE
:100F7C00C260036143618361FFF75EFF98B906A904
:100F8C004FF4805341F8103D0D48FFF7D5FD70B973
:100F9C0000230093019369460948FFF766FF50B997
:100FAC0007B05DF804FBB7210748FFF7D3FFBD215D
:100FBC000548FFF7CFFFC4210348FFF7CBFF00BF65
:100FCC002C000020002C0140AC12000800B591B0A0
:100FDC00012206924FF480330793002108910A9264
:100FEC0002220D920E934FF4E0130F9306A8FFF715
:100FFC0077FA08BB0F23019302210291002303937C
:10100C004FF480620492059301A8FFF78FFCB8B9E6
:10101C00FFF748FD0C4BA3FB00308009FFF72AF9C2
:10102C000420FFF73DF9002211464FF0FF30FFF787
:10103C00E1F811B05DF804FB8A210448FFF78AFF40
:10104C0098210248FFF786FFD34D6210AC120008BE
:10105C0008B5FFF799F8FFF7B9FFFFF731FFFFF776
:10106C007BFF0248FFF75CFDFEE700BF2C00002071
:10107C0000B583B0244B9A6942F001029A619A69D7
:10108C0002F001020092009ADA6942F08052DA61B1
:10109C00DB6903F080530193019B0320FFF798F861
:1010AC00002211466FF00B00FFF7A4F80022114646
:1010BC006FF00A00FFF79EF8002211466FF009004E
:1010CC00FFF798F8002211466FF00400FFF792F832
:1010DC00002211466FF00300FFF78CF80022114636
:1010EC006FF00100FFF786F8002211464FF0FF3039
:1010FC00FFF780F8054A536823F0E06343F0007370
:10110C00536003B05DF804FB001002400000014086
:10111C0002680E4B9A4200D0704700B583B003F5BD
:10112C0064439A6942F400629A619B6903F4006318
:10113C000193019B002211461920FFF75BF819203F
:10114C00FFF78CF803B05DF804FB00BF002C0140E6
:10115C007047FEE7FEE7FEE7FEE770477047704713
:10116C0008B5FFF723F8FFF7ACF808BD08B502483F
:10117C00FFF76AFD08BD00BF2C0000200F4B1A685A
:10118C0042F001021A6059680D4A0A405A601A6806
:10119C0022F0847222F480321A601A6822F48022BF
:1011AC001A605A6822F4FE025A604FF41F029A60C9
:1011BC00044B4FF000629A60704700BF0010024071
:1011CC000000FFF800ED00E0002103E00B4B5B5842
:1011DC00435004310A480B4B42189A42F6D30A4A40
:1011EC0002E0002342F8043B084B9A42F9D3FFF784
:1011FC00C5FF00F00FF8FFF72BFF7047C412000873
:10120C00000000200C0000200C0000206C000020CE
:10121C00FEE7000070B500250C4E0D4CA41BA4106D
:10122C00A54209D100F01AF800250A4E0A4CA41B5D
:10123C00A410A54205D170BD56F82530984701354C
:10124C00EEE756F8253098470135F2E7BC12000856
:10125C00BC120008BC120008C0120008F8B500BF90
:10126C00F8BC08BC9E467047F8B500BFF8BC08BC7B
:04127C009E467047D3
:1012800002030405060708090A0B0C0D0E0F1010C7
:101290000102000000000000000000000102030441
:1012A0000607080900000000010203042E2E2F5338
:0C12B00072632F6D61696E2E63000000F8
:0412BC0031010008F4
:0412C0000D01000814
:0C12C400010000001000000000A24A041D
:04000005080011D509
:00000001FF
