:020000040800F2
:10000000005000202D1B0008C51A0008C71A000860
:10001000C91A0008CB1A0008CD1A00080000000019
:10002000000000000000000000000000CF1A0008DF
:10003000D11A000800000000D31A0008D51A0008E1
:10004000751B0008751B0008751B0008751B000850
:10005000751B0008751B0008751B0008751B000840
:10006000751B0008751B0008751B0008751B000830
:10007000751B0008751B0008751B0008751B000820
:10008000751B0008751B0008751B0008751B000810
:10009000751B0008751B0008751B0008751B000800
:1000A000751B0008751B0008751B0008751B0008F0
:1000B000751B0008751B0008751B0008751B0008E0
:1000C000751B0008751B0008751B0008751B0008D0
:1000D000751B0008751B0008751B0008751B0008C0
:1000E000751B0008751B0008751B00080000000048
:1000F0000000000000000000000000000000000000
:0C01000000000000000000005FF808F1A3
:10010C0010B5054C237833B9044B13B10448AFF345
:10011C0000800123237010BD0C00002000000000A3
:10012C00C01B000808B5034B1BB103490348AFF3D0
:10013C00008008BD0000000010000020C01B00085B
:10014C0080F0004002E000BF81F0004142001FBF80
:10015C005FEA410392EA030F7FEA226C7FEA236C89
:10016C006AD04FEA1262D2EB1363C1BFD21841407E
:10017C0048404140B8BF5B42192B88BF704710F014
:10018C00004F40F4000020F07F4018BF404211F0B7
:10019C00004F41F4000121F07F4118BF494292EA1F
:1001AC00030F3FD0A2F1010241FA03FC10EB0C004B
:1001BC00C3F1200301FA03F100F0004302D54942D8
:1001CC0060EB4000B0F5000F13D3B0F1807F06D385
:1001DC0040084FEA310102F10102FE2A51D2B1F17D
:1001EC00004F40EBC25008BF20F0010040EA030072
:1001FC007047490040EB000010F4000FA2F101021F
:10020C00EDD1B0FA80FCACF1080CB2EB0C0200FAA8
:10021C000CF0AABF00EBC25052421843BCBFD040F6
:10022C001843704792F0000F81F4000106BF80F470
:10023C0000000132013BB5E74FEA41037FEA226C33
:10024C0018BF7FEA236C21D092EA030F04D092F0FE
:10025C00000F08BF0846704790EA010F1CBF002032
:10026C00704712F07F4F04D1400028BF40F000408F
:10027C00704712F100723CBF00F50000704700F0AF
:10028C00004343F0FE4040F4000070477FEA2262D6
:10029C0016BF08467FEA23630146420206BF5FEAA7
:1002AC00412390EA010F40F4800070474FF00003A7
:1002BC0004E000BF10F0004348BF40425FEA000C6E
:1002CC0008BF704743F0964301464FF000001CE016
:1002DC0050EA010208BF70474FF000030AE000BF6C
:1002EC0050EA010208BF704711F0004302D54042AA
:1002FC0061EB41015FEA010C02BF8446014600201C
:10030C0043F0B64308BFA3F18053A3F50003BCFA36
:10031C008CF2083AA3EBC25310DB01FA02FC6344E3
:10032C0000FA02FCC2F12002BCF1004F20FA02F2EA
:10033C0043EB020008BF20F00100704702F12002DD
:10034C0001FA02FCC2F1200250EA4C0021FA02F23E
:10035C0043EB020008BF20EADC7070474FF0FF0C43
:10036C001CEAD0521EBF1CEAD15392EA0C0F93EA3E
:10037C000C0F6FD01A4480EA010C400218BF5FEAE0
:10038C0041211ED04FF0006343EA501043EA511153
:10039C00A0FB01310CF00040B1F5000F3EBF49004D
:1003AC0041EAD3715B0040EA010062F17F02FD2A51
:1003BC001DD8B3F1004F40EBC25008BF20F0010034
:1003CC00704790F0000F0CF0004C08BF49024CEA4B
:1003DC00502040EA51207F3AC2BFD2F1FF0340EADD
:1003EC00C250704740F400004FF00003013A5DDC4E
:1003FC0012F1190FDCBF00F000407047C2F100028F
:10040C00410021FA02F1C2F1200200FA02FC5FEA7B
:10041C00310040F1000053EA4C0308BF20EADC70C5
:10042C00704792F0000F00F0004C02BF400010F437
:10043C00000F013AF9D040EA0C0093F0000F01F0E4
:10044C00004C02BF490011F4000F013BF9D041EA06
:10045C000C018FE70CEAD15392EA0C0F18BF93EA08
:10046C000C0F0AD030F0004C18BF31F0004CD8D132
:10047C0080EA010000F00040704790F0000F17BFB9
:10048C0090F0004F084691F0000F91F0004F14D0FF
:10049C0092EA0C0F01D142020FD193EA0C0F03D157
:1004AC004B0218BF084608D180EA010000F000405A
:1004BC0040F0FE4040F40000704740F0FE4040F435
:1004CC00400070474FF0FF0C1CEAD0521EBF1CEAD4
:1004DC00D15392EA0C0F93EA0C0F69D0A2EB0302F2
:1004EC0080EA010C49024FEA402037D04FF080538C
:1004FC0043EA111143EA10130CF000408B4238BF51
:10050C005B0042F17D024FF4000C8B4224BF5B1A5E
:10051C0040EA0C00B3EB510F24BFA3EB510340EAAC
:10052C005C00B3EB910F24BFA3EB910340EA9C005A
:10053C00B3EBD10F24BFA3EBD10340EADC001B01CA
:10054C0018BF5FEA1C1CE0D1FD2A3FF650AF8B426E
:10055C0040EBC25008BF20F0010070470CF0004C7B
:10056C004CEA50207F32C2BFD2F1FF0340EAC250A6
:10057C00704740F400004FF00003013A37E792F067
:10058C00000F00F0004C02BF400010F4000F013AC5
:10059C00F9D040EA0C0093F0000F01F0004C02BFC0
:1005AC00490011F4000F013BF9D041EA0C0195E729
:1005BC000CEAD15392EA0C0F08D142027FF47DAFC2
:1005CC0093EA0C0F7FF470AF084676E793EA0C0FB2
:1005DC0004D14B023FF44CAF08466EE730F0004CB0
:1005EC0018BF31F0004CCAD130F000427FF45CAF40
:1005FC0031F000437FF43CAF5FE700BF4FF0FF3CAE
:10060C0006E000BF4FF0010C02E000BF4FF0010C00
:10061C004DF804CD4FEA40024FEA41037FEA226CC9
:10062C0018BF7FEA236C11D001B052EA530C18BFEB
:10063C0090EA010F58BFB2EB030088BFC81738BF50
:10064C006FEAE17018BF40F0010070477FEA226C3E
:10065C0002D15FEA402C05D17FEA236CE4D15FEA3A
:10066C00412CE1D05DF8040B704700BF844608466E
:10067C006146FFE70FB5FFF7C9FF002848BF10F12F
:10068C00000F0FBD4DF808EDFFF7F4FF0CBF012074
:10069C0000205DF808FB00BF4DF808EDFFF7EAFFFE
:1006AC0034BF012000205DF808FB00BF4DF808EDB9
:1006BC00FFF7E0FF94BF012000205DF808FB00BFAE
:1006CC004DF808EDFFF7D2FF94BF012000205DF834
:1006DC0008FB00BF4DF808EDFFF7C8FF34BF012041
:1006EC0000205DF808FB00BF4FEA4002B2F1FE4F5C
:1006FC000FD34FF09E03B3EB12620DD94FEA0023D8
:10070C0043F0004310F0004F23FA02F018BF4042B0
:10071C0070474FF00000704712F1610F01D1420297
:10072C0005D110F0004008BF6FF0004070474FF04B
:10073C000000704742000ED2B2F1FE4F0BD34FF0C7
:10074C009E03B3EB126209D44FEA002343F000433B
:10075C0023FA02F070474FF00000704712F1610F5E
:10076C0001D1420202D14FF0FF3070474FF0000030
:10077C00704700BF10B504460E4B18784FF47A73CF
:10078C00B3FBF0F30C4A1068B0FBF3F000F094F8F4
:10079C0068B90F2C01D901200AE0002221464FF044
:1007AC00FF3000F055F8034B5C60002000E00120A6
:1007BC0010BD00BF000000200800002008B5074A4B
:1007CC00136843F010031360032000F02FF800208F
:1007DC00FFF7D0FF01F020F9002008BD00200240F7
:1007EC00034A1168034B1B780B441360704700BF1E
:1007FC002C00002000000020014B1868704700BF3F
:10080C002C00002038B50446FFF7F6FF0546B4F17E
:10081C00FF3F02D0044B1B781C44FFF7EDFF401B3D
:10082C00A042FAD338BD00BF00000020074AD368AD
:10083C0023F4E0631B041B0C000200F4E06018437B
:10084C0040F0BF6040F40030D060704700ED00E035
:10085C0030B4174BDB68C3F30223C3F10704042C39
:10086C0028BF04241D1D062D18D9033B4FF0FF355E
:10087C0005FA04F421EA0401994005FA03F322EA8B
:10088C000303194300280BDB0901C9B200F16040D6
:10089C0000F5614080F8001330BC70470023E5E799
:1008AC0000F00F000901C9B2024B1954F4E700BF64
:1008BC0000ED00E014ED00E00138B0F1807F0AD2C9
:1008CC00064B5860064AF02182F8231000209860ED
:1008DC0007221A6070470120704700BF10E000E04B
:1008EC0000ED00E0042805D0054A136823F004034A
:1008FC0013607047024A136843F004031360704797
:10090C0010E000E0704708B5FFF7FCFF08BD0000E1
:10091C00F0B482B000263546A1E0002C59D0012C51
:10092C0000D1CE68FF2B68D88446FF2B68D8AC006A
:10093C00DCF800200F27A74022EA070206FA04F48D
:10094C002243CCF800204A6812F0805F00F08680C9
:10095C005E4A946944F001049461926902F00102C8
:10096C000192019AAC08A71C594A52F8272005F0AD
:10097C000307BF004FF00F0C0CFA07FC22EA0C0C1B
:10098C00544A904242D002F5806290427FD002F5E8
:10099C00806290427DD002F58062904234D0042275
:1009AC0035E04D4FBC4214D00BD94C4FBC4210D04B
:1009BC0007F58037BC420CD0A7F58017BC42B1D1EB
:1009CC0007E0A7F58017BC4203D007F58037BC427F
:1009DC00A8D18C687CB1012C08D042610826A1E713
:1009EC00CE6808369EE7CE680C369BE70261082677
:1009FC0098E7002696E7042694E700F1040C94E7A8
:100A0C00A5F10804A40093E7032200E00022BA40F9
:100A1C0042EA0C0202342E4F47F824204A6812F4A2
:100A2C00803F38D02E4C22681A4322604A6812F458
:100A3C00003F36D02A4C62681A4362604A6812F44E
:100A4C00801F34D0264CA2681A43A2604A6812F464
:100A5C00001F32D0224CE2681343E36001350F2DA6
:100A6C0031D80122AA400B6813409A42F6D14C6847
:100A7C00122CB8D095D8022CB2D07FF64EAF032CE6
:100A8C00B7D0112C7FF44EAFCE6804364AE7012262
:100A9C00BDE70222BBE7124C226822EA0302226065
:100AAC00C4E70F4C626822EA03026260C6E70C4C92
:100ABC00A26822EA0302A260C8E7094CE26822EAB3
:100ACC000303E360CAE702B0F0BC704700100240B9
:100ADC00000001400008014000002110000031100E
:100AEC000004014012B909040161704701617047AB
:100AFC0082B0084B1B68084AA2FB03235B0A00FB6D
:100B0C0003F0019000BF019B5A1E0192002BF9D1FA
:100B1C0002B0704708000020D34D621070B582B04F
:100B2C000446036813F0010F2CD0AB4B5B6803F049
:100B3C000C03042B1DD0A84B5B6803F00C03082B93
:100B4C0012D06368B3F5803F41D0002B55D103F12F
:100B5C00804303F504331A6822F480321A601A6851
:100B6C0022F480221A6037E09B4B5B6813F4803FC1
:100B7C00E7D0994B1B6813F4003F03D06368002B3C
:100B8C0000F0AE81236813F0020F76D0924B5B68B5
:100B9C0013F00C0F5FD0904B5B6803F00C03082B29
:100BAC0054D02369002B00F08A808C4B01221A60F0
:100BBC00FFF722FE0546884B1B6813F0020F75D118
:100BCC00FFF71AFE401B0228F5D903208BE1824A5D
:100BDC00136843F480331360636843B3FFF70CFE70
:100BEC0005467D4B1B6813F4003FCBD1FFF704FE89
:100BFC00401B6428F5D9032075E1B3F5A02F09D06B
:100C0C00754B1A6822F480321A601A6822F480221A
:100C1C001A60E1E703F18043A3F53C331A6842F410
:100C2C0080221A601A6842F480321A60D4E7FFF707
:100C3C00E3FD0546684B1B6813F4003FA2D0FFF799
:100C4C00DBFD401B6428F5D903204CE1624B5B684B
:100C5C0013F4803FA5D1604B1B6813F0020F04D036
:100C6C002369012B01D001203DE15B4A136823F07D
:100C7C00F803616943EAC1031360236813F0080F9A
:100C8C0032D0A369002B5BD0554B01221A60FFF7C1
:100C9C00B3FD0546504B5B6A13F0020F21D1FFF7F1
:100CAC00ABFD401B0228F5D903201CE14A4A13680E
:100CBC0023F0F803616943EAC1031360DDE7474B96
:100CCC0000221A60FFF798FD0546434B1B6813F092
:100CDC00020FD2D0FFF790FD401B0228F5D903205C
:100CEC0001E10120FFF704FF236813F0040F00F06B
:100CFC009780394BDB6913F0805F33D1364BDA695F
:100D0C0042F08052DA61DB6903F080530193019B5E
:100D1C000125344B1B6813F4807F25D0E368012B2D
:100D2C0036D0002B4CD103F1804303F504331A6AFF
:100D3C0022F001021A621A6A22F004021A622CE0F2
:100D4C00274B00221A60FFF757FD0546224B5B6AC2
:100D5C0013F0020FC8D0FFF74FFD401B0228F5D946
:100D6C000320C0E00025D4E71E4A136843F48073C7
:100D7C001360FFF741FD06461A4B1B6813F4807F86
:100D8C00CCD1FFF739FD801B6428F5D90320AAE0EC
:100D9C00114A136A43F001031362E36873B3FFF75C
:100DAC002BFD06460C4B1B6A13F0020F37D1FFF7D5
:100DBC0023FD801B41F288339842F3D9032092E043
:100DCC00052B11D0044B1A6A22F001021A621A6A1E
:100DDC0022F004021A62E0E70010024000004242D6
:100DEC008004424200700040414B1A6A42F00402F7
:100DFC001A621A6A42F001021A62CEE7FFF7FCFC93
:100E0C0006463B4B1B6A13F0020F08D0FFF7F4FCAD
:100E1C00801B41F288339842F3D9032063E0E5B993
:100E2C00E369002B5ED0324A526802F00C02082AA9
:100E3C005BD0022B17D02F4B00221A60FFF7DCFC83
:100E4C0004462B4B1B6813F0007F47D0FFF7D4FCF4
:100E5C00001B0228F5D9032045E0254AD36923F06D
:100E6C008053D361DCE7234B00221A60FFF7C4FCEC
:100E7C0005461F4B1B6813F0007F06D0FFF7BCFC28
:100E8C00401B0228F5D903202DE0236AB3F5803FDF
:100E9C001AD017494B6823F47413226A606A024310
:100EAC0013434B60134B01221A60FFF7A5FC044659
:100EBC000F4B1B6813F0007F0ED1FFF79DFC001B3E
:100ECC000228F5D903200EE0094A536823F40033B5
:100EDC00A1680B435360DCE7002004E0002002E033
:100EEC00012000E0002002B070BD0120FBE700BF34
:100EFC00001002406000424210B487B0164C94E8D7
:100F0C000F000DF1180C0CE90F00238AADF804301A
:100F1C00124B5B6803F00C02082A1AD1C3F383420C
:100F2C00624412F8102C13F4803F05D10C4800FBDE
:100F3C0002F007B010BC7047084B5B68C3F340432A
:100F4C00634413F8143C074800FB02F0B0FBF3F0C9
:100F5C00EFE70448EDE700BFD81B00080010024083
:100F6C0000093D0000127A00594B1B6803F007037F
:100F7C008B420CD2564A136823F007030B431360C1
:100F8C00136803F007038B4201D00120704770B542
:100F9C00036813F0020F06D04E4A536823F0F00397
:100FAC008468234353600C460546036813F0010F15
:100FBC0052D04368012B23D0022B28D0454A12680B
:100FCC0012F0020F00F0828042494A6822F00302BC
:100FDC0013434B60FFF710FC06466B68012B1DD0CA
:100FEC00022B2AD03B4B5B6813F00C0F34D0FFF76D
:100FFC0003FC801B41F288339842F3D9032064E050
:10100C00344A126812F4003FDED101205DE0314A0F
:10101C00126812F0007FD7D1012056E02D4B5B688F
:10102C0003F00C03042B17D0FFF7E6FB801B41F2F7
:10103C0088339842F2D9032047E0264B5B6803F0D3
:10104C000C03082B08D0FFF7D7FB801B41F2883329
:10105C009842F2D9032038E01D4B1B6803F00703BC
:10106C00A3420CD91A4A136823F0070323431360D5
:10107C00136803F00703A34201D0012025E02B687D
:10108C0013F0040F06D0134A536823F4E063E968A5
:10109C000B4353602B6813F0080F07D00D4A5368AD
:1010AC0023F46053296943EAC1035360FFF724FF1B
:1010BC00084B5B68C3F30313074AD35CD840074B58
:1010CC0018600020FFF756FB002070BD0120FCE7E4
:1010DC000020024000100240041C00080800002000
:1010EC00014B1868704700BF0800002082B00190C7
:1010FC00094B1B68094AA2FB03239B0C019A02FBB8
:10110C0003F3019302E0019B013B0193019B002B34
:10111C00F9D102B0704700BF0800002083DE1B43EA
:10112C0010B5064CE36843F02003E3600120FFF7A1
:10113C00DDFFE36823F02003E36010BD000C0140E9
:10114C0010F0800F1DD11B4AD36823F40043D360E9
:10115C0010F0400F1BD0174AD36843F48043D36080
:10116C0010F0200F19D0134AD36843F40053D36006
:10117C0010F0100F17D10F4AD36823F48053D360AB
:10118C0070470C4AD36843F40043D360E0E7094A44
:10119C00D36823F48043D360E2E7064AD36823F490
:1011AC000053D360E4E7034AD36843F48053D3601D
:1011BC00704700BF000C014010F0080F1DD01B4AF7
:1011CC00D36843F40043D36010F0040F1BD0174ACC
:1011DC00D36843F48043D36010F0020F19D0134A44
:1011EC00D36843F40053D36010F0010F17D10F4AAA
:1011FC00D36823F48053D36070470C4AD36823F42C
:10120C000043D360E0E7094AD36823F48043D360FA
:10121C00E2E7064AD36823F40053D360E4E7034AB9
:10122C00D36843F48053D360704700BF000C014077
:10123C0010B50446FFF784FFFFF772FF2046FFF757
:10124C00BBFFFFF76DFF0520FFF750FF10BD00003F
:10125C0010B504460C4AD36823F01003D360FFF793
:10126C006FFFFFF75DFF0520FFF740FFFFF758FF0B
:10127C000520FFF73BFF2046FFF79EFFFFF750FFCF
:10128C000520FFF733FF10BD000C0140012304E0E3
:10129C0003EB830253000138C0B20028F8D1184682
:1012AC007047000008B5064AD36823F01003D360DA
:1012BC000120FFF7BDFFC820FFF718FF08BD00BFD6
:1012CC00000C014008B5064AD36823F01003D36024
:1012DC000220FFF7ADFFC820FFF708FF08BD00BFD5
:1012EC00000C014008B5094AD36823F01003D36001
:1012FC003C2802D03E2804D008BD1820FFF798FFE8
:10130C00FAE71C20FFF794FFF6E700BF000C014042
:10131C0008B5094AD36823F01003D3603C2802D0E7
:10132C003E2804D008BD1020FFF782FFFAE71420F6
:10133C00FFF77EFFF6E700BF000C014008B5134A2B
:10134C00D36823F01003D3600138042808D8DFE8F1
:10135C0000F003080D12170041F08000FFF768FF42
:10136C0008BD41F0C000FFF763FFF9E741F09000C2
:10137C00FFF75EFFF4E741F0D000FFF759FFEFE70E
:10138C0041F04000FFF754FFEAE700BF000C0140BA
:10139C0008B5044AD36823F01003D360FFF748FF65
:1013AC0008BD00BF000C014008B5054AD36843F0E6
:1013BC001003D360FFF73CFF0120FFF797FE08BD39
:1013CC00000C014038B505460FE000210220FFF764
:1013DC00B5FF09E0FFF776FF06E03E20FFF798FF28
:1013EC000134E4B2032CF8D90135287850B10A281D
:1013FC00EBD00D28EED0092802D0FFF7D5FFF3E78C
:10140C000024EFE738BD38B50546C90001F0F801F6
:10141C000520FFF793FF002404E0285DFFF7C4FFCD
:10142C000134E4B2072CF8D900210120FFF786FF24
:10143C0038BD08B53C20FFF76BFF2020FFF7B4FF49
:10144C003C20FFF765FF08BD70B5061E01DB0125CA
:10145C0007E02D20FFF7A8FF7642F8E705EB85049F
:10146C00650096FBF5F00928F8DC3030C0B2FFF7C8
:10147C009BFF0E4B83FB0523EC17C4EBA30412E07C
:10148C0004EB8402530096FBF3F003FB106090FB1B
:10149C00F4F03030C0B2FFF787FF044B83FB04231A
:1014AC00E417C4EBA304002CEADC70BD6766666627
:1014BC00D9B170B50646481EC0B2FFF7E7FE054627
:1014CC0010E0B6FBF5F2094CA4FB0213DB0803EBAE
:1014DC0083035800131A3033D8B2FFF765FFA4FB0F
:1014EC000534E508002DECD170BD7047CDCCCCCCCB
:1014FC0038B504460D460021FFF7CEF830B920462A
:10150C00FFF7F2F8FFF7A0FF35B938BD2D20FFF734
:10151C004BFF04F10044F2E72E20FFF745FF28466D
:10152C00FFF7B4FEFEF7C2FE2146FEF717FFFFF7EA
:10153C0001F92946FFF7BCFFE7E7000038B5044680
:10154C00294D2978294BA3FB013189080220FFF78B
:10155C00F5FE2B78A34209D3A34225D80620FFF72A
:10156C0017FF00210120FFF7E9FE38BD0620FFF729
:10157C000FFF322C04D9322402E03C20FFF7C8FEC6
:10158C00194B1B78A342E9D0174D01332B706878A7
:10159C000130C0B26870FFF707FF6B78042BECD9F1
:1015AC00114B00225A70EBE70420FFF7F1FE0FE01D
:1015BC000D4D2B78013B2B7068780138C0B26870E8
:1015CC00FFF7F2FE3E20FFF7A3FE2B78A342C5D017
:1015DC00054B5B78002BEBD13C20FFF799FE024BBF
:1015EC0005225A70E4E700BF28000020CDCCCCCCFB
:1015FC0010B509210220FFF7A1FE0420FFF7C8FE59
:10160C00002404E00020FFF7CFFE0134E4B2092CE3
:10161C00F8D9064B00241C705C700620FFF7B8FE4E
:10162C0021460120FFF78AFE10BD00BF28000020D4
:10163C0038B500250FE00020FFF7B6FE0134E4B208
:10164C00072C06D8042CF6D8094B585DFFF7ACFED6
:10165C00F4E70135EDB2052D07D8E90001F0F801EA
:10166C000520FFF76BFE0024EAE7FFF7C1FF38BD4A
:10167C00EC1B000808B53020FFF7DAFD4FF4C870FA
:10168C00FFF734FD3020FFF7D3FD4FF4C870FFF7A0
:10169C002DFD2820FFF7DCFD0C20FFF779FE06203E
:1016AC00FFF776FEFFF7FEFDFFF70CFEFFF7C0FF1E
:1016BC0008BD000010B588B0184B9A6942F02002A2
:1016CC009A619A6902F020020192019A9A6942F099
:1016DC0008029A619A6902F008020292029A9A69C7
:1016EC0042F004029A619B6903F004030393039B89
:1016FC000B4C00224FF230012046FFF7F3F94FF26A
:10170C0030030493012305930023069302230793CC
:10171C0004A92046FFF7FCF808B010BD00100240E9
:10172C00000C014010B504460E20FFF731FE05E019
:10173C000134FFF739FE6420FFF764F820780028A5
:10174C00F6D10C20FFF724FE10BDFEE700B591B0DA
:10175C00012206924FF480330793002108910A92DC
:10176C0002220D920E934FF4E0130F9306A8FFF78D
:10177C00D5F908BB0F230193022102910023039397
:10178C004FF480620492059301A8FFF7EDFBB8B902
:10179C00FFF7A6FC0C4BA3FB00308009FFF78CF87D
:1017AC000420FFF79FF8002211464FF0FF30FFF79F
:1017BC004FF811B05DF804FBE7210448FFF7C5FFB3
:1017CC00F5210248FFF7C1FFD34D62101C1C000825
:1017DC00F0B58BB0FFF784FC064600230593069307
:1017EC00079308938DF824307E4B03AA93E80300EB
:1017FC0082E8030001AA083393E8030082E803009F
:10180C00FEF7DCFFFFF7A2FFFFF754FFFFF732FFF5
:10181C00CFE03E20FFF766FDFA20FEF7F3FF013420
:10182C000F2CF6DDFFF73EFD05AC6F4B0FCB84E8BC
:10183C000F002046FFF776FF25466C4F0FCF0FC5E4
:10184C003B682B7000210220FFF778FD2046FFF744
:10185C0069FF40F6B830FEF7D5FF002406E03C20C7
:10186C00FFF740FDFA20FEF7CDFF01340F2CF6DD1B
:10187C004FF47A70FEF7C6FF002406E03E20FFF717
:10188C0031FDFA20FEF7BEFF01340F2CF6DD4FF4CC
:10189C00FA60FEF7B7FFFFF705FD5548FFF792FD1D
:1018AC0002215448FFF724FE00210220FFF746FDD9
:1018BC005148FFF787FD7B20FFF7C6FD40F6B83097
:1018CC00FEF7A0FF0E20FFF763FD10210220FFF7AB
:1018DC0035FD002405E0FFF7ACFD6420FEF792FF18
:1018EC0001340F2CF7DD10210120FFF727FD002418
:1018FC0005E0FFF79EFD6420FEF784FF01340F2CFA
:10190C00F7DD0C20FFF744FDFFF7DCFC3B48FFF74D
:10191C0059FD0A210220FFF711FD3948FFF752FD4E
:10192C00002415E00B210220FFF708FD642505FBC0
:10193C0004F0344BA3FB003003210009FFF7B8FD82
:10194C002046FFF7FBFD2846FEF75CFF0134E4B2AE
:10195C00322CE7D940F6B830FEF754FFFFF7A2FC63
:10196C00062103A8FFF74FFD072101A8FFF74BFD48
:10197C002548FFF727FD002419E00620FFF714FD8A
:10198C00FA20FEF73FFF3C20FFF7C2FC2020FFF7B8
:10199C000BFD0720FFF708FDFA20FEF733FF3C2074
:1019AC00FFF7B6FC2020FFF7FFFC0134E4B2072C54
:1019BC00E3D9FFF777FC00210120FFF7BFFC1348A8
:1019CC00FFF700FD1248A0FB0630800CFFF73CFD32
:1019DC001048FFF7F7FC40F6B830FEF713FF002471
:1019EC001EE700BFF41B0008501C00089C1C0008DC
:1019FC00601C0008C3F548406C1C0008781C0008EB
:101A0C00841C00081F85EB518C1C00082C1C000842
:101A1C0083DE1B43481C000800B583B0244B9A6935
:101A2C0042F001029A619A6902F001020092009A56
:101A3C00DA6942F08052DA61DB6903F0805301937A
:101A4C00019B0320FEF7F2FE002211466FF00B0003
:101A5C00FEF7FEFE002211466FF00A00FEF7F8FEBC
:101A6C00002211466FF00900FEF7F2FE002211462B
:101A7C006FF00400FEF7ECFE002211466FF003003D
:101A8C00FEF7E6FE002211466FF00100FEF7E0FEC5
:101A9C00002211464FF0FF30FEF7DAFE054A53687C
:101AAC0023F0E06343F00073536003B05DF804FB74
:101ABC0000100240000001407047FEE7FEE7FEE721
:101ACC00FEE770477047704708B5FEF789FEFEF7D2
:101ADC001AFF08BD0F4B1A6842F001021A605968D0
:101AEC000D4A0A405A601A6822F0847222F480323D
:101AFC001A601A6822F480221A605A6822F4FE02D4
:101B0C005A604FF41F029A60044B4FF000629A60C7
:101B1C00704700BF001002400000FFF800ED00E02D
:101B2C00002103E00B4B5B58435004310A480B4B2C
:101B3C0042189A42F6D30A4A02E0002342F8043BC8
:101B4C00084B9A42F9D3FFF7C5FF00F00FF8FFF7E7
:101B5C003FFE7047B81C0008000000200C0000205D
:101B6C000C00002030000020FEE7000070B50025BE
:101B7C000C4E0D4CA41BA410A54209D100F01AF870
:101B8C0000250A4E0A4CA41BA410A54205D170BD19
:101B9C0056F8253098470135EEE756F8253098472A
:101BAC000135F2E7B01C0008B01C0008B01C00089E
:101BBC00B41C0008F8B500BFF8BC08BC9E467047C2
:0C1BCC00F8B500BFF8BC08BC9E4670478E
:101BD80002030405060708090A0B0C0D0E0F101066
:101BE800010200000010181C1E1F00000E0E041F2A
:101BF800041A010007070A0702050900000000008F
:101C080000000000010203040607080900000000A4
:101C1800010203042E2E2F5372632F6D61696E2EFD
:101C28006300000053797374656D20576F726B629F
:101C3800656E63680A46726571204D435520000041
:101C4800204D687A0000000053544D33324631303D
:101C580033433820616E6400466C6F6174203D2008
:101C680000000000496E7465676572203D20000021
:101C7800094C6F6164696E672E2E2E005B20202050
:101C8800255D00000952756E6E696E67206D656E80
:101C98000A0000004C434420574831363032412076
:081CA80044656D6F00000000AF
:041CB00031010008F6
:041CB4000D01000816
:0C1CB800010000001000000000A24A041F
:0400000508001B2DA7
:00000001FF
