:020000040800F2
:10000000005000204D31000805210008072100089C
:10001000092100080B2100080D2100080000000044
:100020000000000000000000000000000F21000898
:10003000112100080000000013210008152100080C
:100040009531000895310008953100089531000878
:100050009531000895310008953100089531000868
:100060009531000895310008953100089531000858
:100070009531000895310008953100089531000848
:100080009531000895310008953100089531000838
:100090009531000895310008953100089531000828
:1000A0009531000895310008953100089531000818
:1000B0009531000895310008953100089531000808
:1000C00095310008953100089531000895310008F8
:1000D00095310008953100089531000895310008E8
:1000E00095310008953100089531000800000000A6
:1000F0000000000000000000000000000000000000
:0C01000000000000000000005FF808F1A3
:1001100010B5054C237833B9044B13B10448AFF341
:1001200000800123237010BD480100200000000062
:10013000BC44000808B5034B1BB103490348AFF3A7
:10014000008008BD000000004C010020BC440008F5
:1001500081F0004102E000BF83F0004330B54FEA78
:1001600041044FEA430594EA050F08BF90EA020FE5
:100170001FBF54EA000C55EA020C7FEA645C7FEA78
:10018000655C00F0E2804FEA5454D4EB5555B8BF9B
:100190006D420CDD2C4480EA020281EA030382EA0C
:1001A000000083EA010180EA020281EA0303362D9E
:1001B00088BF30BD11F0004F4FEA01314FF4801C71
:1001C0004CEA113102D0404261EB410113F0004F83
:1001D0004FEA03334CEA133302D0524263EB43033A
:1001E00094EA050F00F0A780A4F10104D5F1200ED8
:1001F0000DDB02FA0EFC22FA05F2801841F1000133
:1002000003FA0EF2801843FA05F359410EE0A5F106
:1002100020050EF1200E012A03FA0EFC28BF4CF037
:10022000020C43FA05F3C01851EBE37101F00045ED
:1002300007D54FF0000EDCF1000C7EEB00006EEBFA
:100240000101B1F5801F1BD3B1F5001F0CD3490884
:100250005FEA30004FEA3C0C04F101044FEA4452DB
:1002600012F5800F80F09A80BCF1004F08BF5FEA62
:10027000500C50F1000041EB045141EA050130BD42
:100280005FEA4C0C404141EB010111F4801FA4F1E5
:100290000104E9D191F0000F04BF01460020B1FA3A
:1002A00081F308BF2033A3F10B03B3F120020CDA72
:1002B0000C3208DD02F1140CC2F10C0201FA0CF050
:1002C00021FA02F10CE002F11402D8BFC2F1200CB5
:1002D00001FA02F120FA0CFCDCBF41EA0C0190406B
:1002E000E41AA2BF01EB0451294330BD6FEA0404B4
:1002F0001F3C1CDA0C340EDC04F11404C4F120029F
:1003000020FA04F001FA02F340EA030021FA04F3B0
:1003100045EA030130BDC4F10C04C4F1200220FA07
:1003200002F001FA04F340EA0300294630BD21FA45
:1003300004F0294630BD94F0000F83F4801306BF0B
:1003400081F480110134013D4EE77FEA645C18BFFF
:100350007FEA655C29D094EA050F08BF90EA020F96
:1003600005D054EA000C04BF1946104630BD91EA8E
:10037000030F1EBF0021002030BD5FEA545C05D191
:100380004000494128BF41F0004130BD14F58004D0
:100390003CBF01F5801130BD01F0004545F0FE4144
:1003A00041F470014FF0000030BD7FEA645C1ABF79
:1003B000194610467FEA655C1CBF0B46024650EAB0
:1003C000013406BF52EA033591EA030F41F40021DC
:1003D00030BD00BF90F0000F04BF0021704730B562
:1003E0004FF4806404F132044FF000054FF0000137
:1003F00050E700BF90F0000F04BF0021704730B5F8
:100400004FF4806404F1320410F0004548BF4042CC
:100410004FF000013EE700BF42004FEAE2014FEA21
:1004200031014FEA02701FBF12F07F4393F07F4FFC
:1004300081F06051704732F07F4208BF704793F0FF
:100440007F4F04BF41F40021704730B54FF4607412
:1004500001F0004521F000411CE700BF50EA010215
:1004600008BF704730B54FF000050AE050EA0102BE
:1004700008BF704730B511F0004502D5404261EB2E
:1004800041014FF4806404F132045FEA915C3FF46F
:10049000D8AE4FF003025FEADC0C18BF03325FEA0C
:1004A000DC0C18BF033202EBDC02C2F1200300FABD
:1004B00003FC20FA02F001FA03FE40EA0E0021FAE2
:1004C00002F11444BDE600BF70B54FF0FF0C4CF4D0
:1004D000E06C1CEA11541DBF1CEA135594EA0C0F82
:1004E00095EA0C0F00F0DEF82C4481EA030621EABD
:1004F0004C5123EA4C5350EA013518BF52EA0335F8
:1005000041F4801143F4801338D0A0FB02CE4FF0A9
:100510000005E1FB02E506F00042E0FB03E54FF0D9
:100520000006E1FB03569CF0000F18BF4EF0010ED1
:10053000A4F1FF04B6F5007F64F5407404D25FEACD
:100540004E0E6D4146EB060642EAC62141EA555180
:100550004FEAC52040EA5E504FEACE2EB4F1FD0CC2
:1005600088BFBCF5E06F1ED8BEF1004F08BF5FEA40
:10057000500E50F1000041EB045170BD06F00046F2
:1005800046EA010140EA020081EA0301B4EB5C049F
:10059000C2BFD4EB0C0541EA045170BD41F4801197
:1005A0004FF0000E013C00F3AB8014F1360FDEBFBC
:1005B000002001F0004170BDC4F10004203C35DA98
:1005C0000C341BDC04F11404C4F1200500FA05F31B
:1005D00020FA04F001FA05F240EA020001F00042BC
:1005E00021F0004110EBD37021FA04F642EB060132
:1005F0005EEA430E08BF20EAD37070BDC4F10C045C
:10060000C4F1200500FA04F320FA05F001FA04F21F
:1006100040EA020001F0004110EBD37041F100010B
:100620005EEA430E08BF20EAD37070BDC4F1200516
:1006300000FA05F24EEA020E20FA04F301FA05F27E
:1006400043EA020321FA04F001F0004121FA04F226
:1006500020EA020000EBD3705EEA430E08BF20EAF6
:10066000D37070BD94F0000F0FD101F00046400030
:1006700041EB010111F4801F08BF013CF7D041EAB2
:10068000060195F0000F18BF704703F000465200B6
:1006900043EB030313F4801F08BF013DF7D043EA87
:1006A0000603704794EA0C0F0CEA135518BF95EA3D
:1006B0000C0F0CD050EA410618BF52EA4306D1D1C4
:1006C00081EA030101F000414FF0000070BD50EAE3
:1006D000410606BF1046194652EA430619D094EA6D
:1006E0000C0F02D150EA013613D195EA0C0F05D157
:1006F00052EA03361CBF104619460AD181EA0301AB
:1007000001F0004141F0FE4141F470014FF0000062
:1007100070BD41F0FE4141F4780170BD70B54FF0FD
:10072000FF0C4CF4E06C1CEA11541DBF1CEA13557D
:1007300094EA0C0F95EA0C0F00F0A7F8A4EB05045F
:1007400081EA030E52EA03354FEA013100F0888056
:100750004FEA03334FF0805545EA131343EA12631F
:100760004FEA022245EA111545EA10654FEA0026D4
:100770000EF000419D4208BF964244F1FD0404F58D
:10078000407402D25B084FEA3202B61A65EB0305E9
:100790005B084FEA32024FF480104FF4002CB6EBA6
:1007A000020E75EB030E22BFB61A754640EA0C0026
:1007B0005B084FEA3202B6EB020E75EB030E22BF66
:1007C000B61A754640EA5C005B084FEA3202B6EBA7
:1007D000020E75EB030E22BFB61A754640EA9C0066
:1007E0005B084FEA3202B6EB020E75EB030E22BF36
:1007F000B61A754640EADC0055EA060E18D04FEAF4
:10080000051545EA16754FEA06164FEAC30343EA93
:1008100052734FEAC2025FEA1C1CC0D111F4801F60
:100820000BD141EA00014FF000004FF0004CB6E759
:1008300011F4801F04BF01430020B4F1FD0C88BFF8
:10084000BCF5E06F3FF6AFAEB5EB030C04BFB6EB03
:10085000020C5FEA500C50F1000041EB045170BDF6
:100860000EF0004E4EEA113114EB5C04C2BFD4EB23
:100870000C0541EA045170BD41F480114FF0000EA7
:10088000013C90E645EA060E8DE60CEA135594EA23
:100890000C0F08BF95EA0C0F3FF43BAF94EA0C0F26
:1008A0000AD150EA01347FF434AF95EA0C0F7FF49B
:1008B00025AF104619462CE795EA0C0F06D152EAEF
:1008C00003353FF4FDAE1046194622E750EA4106D3
:1008D00018BF52EA43067FF4C5AE50EA41047FF4E4
:1008E0000DAF52EA43057FF4EBAE12E74FF0FF3C49
:1008F00006E000BF4FF0010C02E000BF4FF0010C1A
:100900004DF804CD4FEA410C7FEA6C5C4FEA430C92
:1009100018BF7FEA6C5C1BD001B050EA410C0CBFE1
:1009200052EA430C91EA030F02BF90EA020F002043
:10093000704710F1000F91EA030F58BF994208BFAA
:1009400090422CBFD8176FEAE37040F00100704767
:100950004FEA410C7FEA6C5C02D150EA013C07D1BE
:100960004FEA430C7FEA6C5CD6D152EA033CD3D009
:100970005DF8040B704700BF8446104662468C4603
:100980001946634600E000BF01B5FFF7B7FF002836
:1009900048BF10F1000F01BD4DF808EDFFF7F4FF5F
:1009A0000CBF012000205DF808FB00BF4DF808EDEA
:1009B000FFF7EAFF34BF012000205DF808FB00BF0D
:1009C0004DF808EDFFF7E0FF94BF012000205DF82F
:1009D00008FB00BF4DF808EDFFF7CEFF94BF0120E4
:1009E00000205DF808FB00BF4DF808EDFFF7C4FFDD
:1009F00034BF012000205DF808FB00BF4FEA410230
:100A000012F5001215D211D56FF47873B3EB625260
:100A100012D94FEAC12343F0004343EA505311F087
:100A2000004F23FA02F018BF404270474FF0000019
:100A3000704750EA013005D111F0004008BF6FF057
:100A4000004070474FF00000704700BF80F000404A
:100A500002E000BF81F0004142001FBF5FEA410396
:100A600092EA030F7FEA226C7FEA236C6AD04FEA96
:100A70001262D2EB1363C1BFD218414048404140DB
:100A8000B8BF5B42192B88BF704710F0004F40F48D
:100A9000000020F07F4018BF404211F0004F41F4A9
:100AA000000121F07F4118BF494292EA030F3FD075
:100AB000A2F1010241FA03FC10EB0C00C3F1200388
:100AC00001FA03F100F0004302D5494260EB400017
:100AD000B0F5000F13D3B0F1807F06D340084FEA82
:100AE000310102F10102FE2A51D2B1F1004F40EB77
:100AF000C25008BF20F0010040EA030070474900DF
:100B000040EB000010F4000FA2F10102EDD1B0FAA9
:100B100080FCACF1080CB2EB0C0200FA0CF0AABF9E
:100B200000EBC25052421843BCBFD040184370473C
:100B300092F0000F81F4000106BF80F40000013242
:100B4000013BB5E74FEA41037FEA226C18BF7FEA19
:100B5000236C21D092EA030F04D092F0000F08BF5B
:100B60000846704790EA010F1CBF0020704712F042
:100B70007F4F04D1400028BF40F00040704712F181
:100B800000723CBF00F50000704700F0004343F0E6
:100B9000FE4040F4000070477FEA226216BF08461C
:100BA0007FEA23630146420206BF5FEA412390EADF
:100BB000010F40F4800070474FF0000304E000BFD5
:100BC00010F0004348BF40425FEA000C08BF704786
:100BD00043F0964301464FF000001CE050EA01024A
:100BE00008BF70474FF000030AE000BF50EA01025F
:100BF00008BF704711F0004302D5404261EB41014C
:100C00005FEA010C02BF84460146002043F0B64370
:100C100008BFA3F18053A3F50003BCFA8CF2083A95
:100C2000A3EBC25310DB01FA02FC634400FA02FC9E
:100C3000C2F12002BCF1004F20FA02F243EB0200A5
:100C400008BF20F00100704702F1200201FA02FC07
:100C5000C2F1200250EA4C0021FA02F243EB0200FA
:100C600008BF20EADC7070474FF0FF0C1CEAD0523E
:100C70001EBF1CEAD15392EA0C0F93EA0C0F6FD0FF
:100C80001A4480EA010C400218BF5FEA41211ED0DD
:100C90004FF0006343EA501043EA5111A0FB0131C9
:100CA0000CF00040B1F5000F3EBF490041EAD3719E
:100CB0005B0040EA010062F17F02FD2A1DD8B3F11A
:100CC000004F40EBC25008BF20F00100704790F089
:100CD000000F0CF0004C08BF49024CEA502040EADB
:100CE00051207F3AC2BFD2F1FF0340EAC2507047A1
:100CF00040F400004FF00003013A5DDC12F1190FDF
:100D0000DCBF00F000407047C2F10002410021FA50
:100D100002F1C2F1200200FA02FC5FEA310040F168
:100D2000000053EA4C0308BF20EADC70704792F0E1
:100D3000000F00F0004C02BF400010F4000F013A19
:100D4000F9D040EA0C0093F0000F01F0004C02BF14
:100D5000490011F4000F013BF9D041EA0C018FE783
:100D60000CEAD15392EA0C0F18BF93EA0C0F0AD089
:100D700030F0004C18BF31F0004CD8D180EA0100AF
:100D800000F00040704790F0000F17BF90F0004F48
:100D9000084691F0000F91F0004F14D092EA0C0F2A
:100DA00001D142020FD193EA0C0F03D14B0218BFBD
:100DB000084608D180EA010000F0004040F0FE4003
:100DC00040F40000704740F0FE4040F4400070479F
:100DD0004FF0FF0C1CEAD0521EBF1CEAD15392EA1E
:100DE0000C0F93EA0C0F69D0A2EB030280EA010C0E
:100DF00049024FEA402037D04FF0805343EA1111A7
:100E000043EA10130CF000408B4238BF5B0042F104
:100E10007D024FF4000C8B4224BF5B1A40EA0C00A9
:100E2000B3EB510F24BFA3EB510340EA5C00B3EBDB
:100E3000910F24BFA3EB910340EA9C00B3EBD10FC9
:100E400024BFA3EBD10340EADC001B0118BF5FEA1B
:100E50001C1CE0D1FD2A3FF650AF8B4240EBC25044
:100E600008BF20F0010070470CF0004C4CEA502005
:100E70007F32C2BFD2F1FF0340EAC250704740F454
:100E800000004FF00003013A37E792F0000F00F046
:100E9000004C02BF400010F4000F013AF9D040EAC4
:100EA0000C0093F0000F01F0004C02BF490011F458
:100EB000000F013BF9D041EA0C0195E70CEAD15350
:100EC00092EA0C0F08D142027FF47DAF93EA0C0F37
:100ED0007FF470AF084676E793EA0C0F04D14B021B
:100EE0003FF44CAF08466EE730F0004C18BF31F0CD
:100EF000004CCAD130F000427FF45CAF31F00043C7
:100F00007FF43CAF5FE700BF10B504460E4B187886
:100F10004FF47A73B3FBF0F30C4A1068B0FBF3F0B4
:100F200000F094F868B90F2C01D901200AE00022E2
:100F300021464FF0FF3000F055F8034B5C60002075
:100F400000E0012010BD00BF000000200C000020C8
:100F500008B5074A136843F010031360032000F03C
:100F60002FF80020FFF7D0FF01F058F8002008BD4F
:100F700000200240034A1168034B1B780B441360A6
:100F8000704700BF5408002000000020014B186883
:100F9000704700BF5408002038B50446FFF7F6FF3D
:100FA0000546B4F1FF3F02D0044B1B781C44FFF709
:100FB000EDFF401BA042FAD338BD00BF0000002067
:100FC000074AD36823F4E0631B041B0C000200F4FF
:100FD000E060184340F0BF6040F40030D0607047DC
:100FE00000ED00E030B4174BDB68C3F30223C3F11C
:100FF0000704042C28BF04241D1D062D18D9033B0B
:101000004FF0FF3505FA04F421EA0401994005FA8E
:1010100003F322EA0303194300280BDB0901C9B2D9
:1010200000F1604000F5614080F8001330BC70476B
:101030000023E5E700F00F000901C9B2024B195483
:10104000F4E700BF00ED00E014ED00E00138B0F17E
:10105000807F0AD2064B5860064AF02182F823109E
:101060000020986007221A6070470120704700BF77
:1010700010E000E000ED00E0042805D0054A136808
:1010800023F0040313607047024A136843F004031B
:101090001360704710E000E0704708B5FFF7FCFFF1
:1010A00008BD0000F0B482B000263546A1E0002C57
:1010B00059D0012C00D1CE68FF2B68D88446FF2B75
:1010C00068D8AC00DCF800200F27A74022EA07020E
:1010D00006FA04F42243CCF800204A6812F0805F3C
:1010E00000F086805E4A946944F00104946192693C
:1010F00002F001020192019AAC08A71C594A52F869
:10110000272005F00307BF004FF00F0C0CFA07FC77
:1011100022EA0C0C544A904242D002F5806290427E
:101120007FD002F5806290427DD002F580629042CD
:1011300034D0042235E04D4FBC4214D00BD94C4F73
:10114000BC4210D007F58037BC420CD0A7F5801701
:10115000BC42B1D107E0A7F58017BC4203D007F528
:101160008037BC42A8D18C687CB1012C08D0426188
:101170000826A1E7CE6808369EE7CE680C369BE7C6
:101180000261082698E7002696E7042694E700F116
:10119000040C94E7A5F10804A40093E7032200E0FF
:1011A0000022BA4042EA0C0202342E4F47F82420B3
:1011B0004A6812F4803F38D02E4C22681A432260CD
:1011C0004A6812F4003F36D02A4C62681A436260C3
:1011D0004A6812F4801F34D0264CA2681A43A260D9
:1011E0004A6812F4001F32D0224CE2681343E360D5
:1011F00001350F2D31D80122AA400B6813409A42C5
:10120000F6D14C68122CB8D095D8022CB2D07FF60B
:101210004EAF032CB7D0112C7FF44EAFCE680436FE
:101220004AE70122BDE70222BBE7124C226822EA0C
:1012300003022260C4E70F4C626822EA0302626084
:10124000C6E70C4CA26822EA0302A260C8E7094C78
:10125000E26822EA0303E360CAE702B0F0BC704729
:101260000010024000000140000801400000211071
:10127000000031100004014003685A6912F4806FC5
:101280000DD06FF480625A6104230364002303636A
:10129000202280F83D2080F83C300120704700205B
:1012A0007047F8B506460C4617461D461EE02DB1A0
:1012B000FFF76CFE069BC01AA84217D900233363C0
:1012C000202286F83D2086F83E3086F83C30032008
:1012D0001AE033685B6924EA03039BB2B3FA83F331
:1012E0005B099F420FD1B5F1FF3FE0D1C4F3074343
:1012F000012BEED033689B6924EA03039BB2B3FA57
:1013000083F35B09EDE70020F8BDF8B504460D4610
:1013100016461F4632E01A6842F400721A602368CB
:101320006FF480625A610423236400232363202224
:1013300084F83D2084F83C3001202DE026B1FFF7F1
:1013400025FEC01BB04219D900232363202284F854
:101350003D2084F83C3003201EE023685B6925EAC9
:1013600003039BB2003318BF0123A3B123685A695A
:1013700012F4806FCFD1B6F1FF3FDFD1C5F3074341
:10138000012BEAD023689B6925EA03039BB2003353
:1013900018BF0123E9E70020F8BD0000F0B583B0D5
:1013A00004460D4616461F46C36A042B0DD0012B7A
:1013B0000BD013F5803F08D0036B122B0AD10268C3
:1013C000136843F48073136004E02268136843F4E5
:1013D000807313600097334600224FF001112046BE
:1013E000FFF75FFF58BB2369B3F5804F10D1236827
:1013F00005F0FE051D613B46324615492046FFF7C4
:1014000084FF0346E0B1236C042B1ED1012317E0B7
:10141000EB11226803F0060343F0F00313613B462F
:1014200032460C492046FFF770FF20B1236C042B95
:1014300009D1012304E02368EDB21D61DBE703233A
:10144000184603B0F0BD0323FAE70323F8E700BF13
:10145000020001000800010070B504460D46164662
:1014600023685B6913F0800F19D12046FFF704FF52
:10147000B8B9B5F1FF3FF3D025B1FFF787FD801B69
:10148000A842EDD9236C43F0200323640023236397
:10149000202284F83D2084F83C30032000E0002026
:1014A00070BD0120FCE770B504460D461646236862
:1014B0005B6913F0040F19D12046FFF7DDFEB8B9C0
:1014C000B5F1FF3FF3D025B1FFF760FD801BA842C7
:1014D000EDD9236C43F020032364002323632022EF
:1014E00084F83D2084F83C30032000E0002070BDEB
:1014F0000120FCE7002800F0A28038B5044690F8EF
:101500003D30002B4FD0242384F83D3022681368EF
:1015100023F00103136000F061FC62684A4B9A42B9
:1015200046D84A4B98428CBF00230123002B40F041
:101530008880474BA3FB00239B0C226853606168A3
:10154000414A91423AD801332268136261683E4BA6
:1015500099423DD8431E4900B3FBF1F30133C3F375
:101560000B03042B38BF04232268D361E369216A8B
:1015700022680B4313602369E16822680B43936080
:101580006369A16922680B43D3602268136843F042
:101590000103136000202064202384F83D30206381
:1015A00084F83E0038BD80F83C3000F087FDAAE7A3
:1015B000284B98428CBF00230123B7E74FF4967263
:1015C00002FB03F3244AA2FB03239B090133BBE77D
:1015D000A368BBB9421E01EB4105B2FBF5F2013233
:1015E000C2F30B02B2FA82F2520932BBC3B901381C
:1015F00001EB4103B0FBF3F30133C3F30B0343F4FB
:101600000043B1E7421E01EB810505EB8505B2FB06
:10161000F5F20132C2F30B02B2FA82F25209E4E7A8
:10162000013801EB810303EB8303B0FBF3F30133D8
:10163000C3F30B0343F4404396E7012394E70120EF
:1016400070470120AEE700BFA08601007F841E0026
:1016500083DE1B43FF083D00D34D62102DE9F041AE
:1016600084B004460E4690461F46FFF78FFC94F860
:101670003D30DBB2202B04D00226304604B0BDE85A
:10168000F081054600901923012254492046FFF7B6
:1016900008FE002840F0998094F83C30012B00F0BF
:1016A0009680012384F83C3023681A6812F0010FF9
:1016B00003D11A6842F001021A602268136823F409
:1016C00000631360212384F83D30102384F83E30FA
:1016D00000232364C4F824806785A3F58033E36284
:1016E000638D23852B460A9A31462046FFF756FE26
:1016F000064660B1236C042B04D1002384F83C30EF
:101700000126BAE7002384F83C300326B5E700231E
:10171000039323685A6903929B690393039B10E028
:10172000236C042B55D12268136843F400731360B3
:101730000126A2E72A460A992046FFF7B4FE0028B0
:101740002BD1238D002B32D02A460A992046FFF751
:1017500083FE0028E4D1636A5A1C626222681B7807
:101760001361638D013B9BB26385238D013B9BB26B
:1017700023852268516911F0040FDBD0002BD9D0EA
:10178000636A591C61621B781361638D013B9BB2D4
:101790006385238D013B2385CCE7236C042B1AD171
:1017A0002268136843F400731360012665E722681A
:1017B000136843F400731360202384F83D30002342
:1017C00084F83E3084F83C3057E7022655E702267D
:1017D00053E7032651E703264FE700BF020010003E
:1017E00082B0084B1B68084AA2FB03235B0A00FB7C
:1017F00003F0019000BF019B5A1E0192002BF9D10A
:1018000002B070470C000020D34D621070B582B05A
:101810000446036813F0010F2CD0AB4B5B6803F058
:101820000C03042B1DD0A84B5B6803F00C03082BA2
:1018300012D06368B3F5803F41D0002B55D103F13E
:10184000804303F504331A6822F480321A601A6860
:1018500022F480221A6037E09B4B5B6813F4803FD0
:10186000E7D0994B1B6813F4003F03D06368002B4B
:1018700000F0AE81236813F0020F76D0924B5B68C4
:1018800013F00C0F5FD0904B5B6803F00C03082B38
:1018900054D02369002B00F08A808C4B01221A60FF
:1018A000FFF774FB0546884B1B6813F0020F75D1D8
:1018B000FFF76CFB401B0228F5D903208BE1824A1D
:1018C000136843F480331360636843B3FFF75EFB30
:1018D00005467D4B1B6813F4003FCBD1FFF756FB49
:1018E000401B6428F5D9032075E1B3F5A02F09D07A
:1018F000754B1A6822F480321A601A6822F480222A
:101900001A60E1E703F18043A3F53C331A6842F41F
:1019100080221A601A6842F480321A60D4E7FFF716
:1019200035FB0546684B1B6813F4003FA2D0FFF758
:101930002DFB401B6428F5D903204CE1624B5B680A
:1019400013F4803FA5D1604B1B6813F0020F04D045
:101950002369012B01D001203DE15B4A136823F08C
:10196000F803616943EAC1031360236813F0080FA9
:1019700032D0A369002B5BD0554B01221A60FFF7D0
:1019800005FB0546504B5B6A13F0020F21D1FFF7B0
:10199000FDFA401B0228F5D903201CE14A4A1368CE
:1019A00023F0F803616943EAC1031360DDE7474BA5
:1019B00000221A60FFF7EAFA0546434B1B6813F052
:1019C000020FD2D0FFF7E2FA401B0228F5D903201C
:1019D00001E10120FFF704FF236813F0040F00F07A
:1019E0009780394BDB6913F0805F33D1364BDA696E
:1019F00042F08052DA61DB6903F080530193019B6E
:101A00000125344B1B6813F4807F25D0E368012B3C
:101A100036D0002B4CD103F1804303F504331A6A0E
:101A200022F001021A621A6A22F004021A622CE001
:101A3000274B00221A60FFF7A9FA0546224B5B6A82
:101A400013F0020FC8D0FFF7A1FA401B0228F5D906
:101A50000320C0E00025D4E71E4A136843F48073D6
:101A60001360FFF793FA06461A4B1B6813F4807F46
:101A7000CCD1FFF78BFA801B6428F5D90320AAE0AC
:101A8000114A136A43F001031362E36873B3FFF76B
:101A90007DFA06460C4B1B6A13F0020F37D1FFF795
:101AA00075FA801B41F288339842F3D9032092E003
:101AB000052B11D0044B1A6A22F001021A621A6A2D
:101AC00022F004021A62E0E70010024000004242E5
:101AD0008004424200700040414B1A6A42F0040206
:101AE0001A621A6A42F001021A62CEE7FFF74EFA52
:101AF00006463B4B1B6A13F0020F08D0FFF746FA6D
:101B0000801B41F288339842F3D9032063E0E5B9A2
:101B1000E369002B5ED0324A526802F00C02082AB8
:101B20005BD0022B17D02F4B00221A60FFF72EFA42
:101B300004462B4B1B6813F0007F47D0FFF726FAB3
:101B4000001B0228F5D9032045E0254AD36923F07C
:101B50008053D361DCE7234B00221A60FFF716FAAB
:101B600005461F4B1B6813F0007F06D0FFF70EFAE7
:101B7000401B0228F5D903202DE0236AB3F5803FEE
:101B80001AD017494B6823F47413226A606A02431F
:101B900013434B60134B01221A60FFF7F7F9044619
:101BA0000F4B1B6813F0007F0ED1FFF7EFF9001BFE
:101BB0000228F5D903200EE0094A536823F40033C4
:101BC000A1680B435360DCE7002004E0002002E042
:101BD000012000E0002002B070BD0120FBE700BF43
:101BE000001002406000424210B487B0164C94E8E6
:101BF0000F000DF1180C0CE90F00238AADF804302A
:101C0000124B5B6803F00C02082A1AD1C3F383421B
:101C1000624412F8102C13F4803F05D10C4800FBED
:101C200002F007B010BC7047084B5B68C3F3404339
:101C3000634413F8143C074800FB02F0B0FBF3F0D8
:101C4000EFE70448EDE700BFD84400080010024069
:101C500000093D0000127A00594B1B6803F007038E
:101C60008B420CD2564A136823F007030B431360D0
:101C7000136803F007038B4201D00120704770B551
:101C8000036813F0020F06D04E4A536823F0F003A6
:101C90008468234353600C460546036813F0010F24
:101CA00052D04368012B23D0022B28D0454A12681A
:101CB00012F0020F00F0828042494A6822F00302CB
:101CC00013434B60FFF762F906466B68012B1DD08A
:101CD000022B2AD03B4B5B6813F00C0F34D0FFF77C
:101CE00055F9801B41F288339842F3D9032064E010
:101CF000344A126812F4003FDED101205DE0314A1F
:101D0000126812F0007FD7D1012056E02D4B5B689E
:101D100003F00C03042B17D0FFF738F9801B41F2B6
:101D200088339842F2D9032047E0264B5B6803F0E2
:101D30000C03082B08D0FFF729F9801B41F28833E8
:101D40009842F2D9032038E01D4B1B6803F00703CB
:101D5000A3420CD91A4A136823F0070323431360E4
:101D6000136803F00703A34201D0012025E02B688C
:101D700013F0040F06D0134A536823F4E063E968B4
:101D80000B4353602B6813F0080F07D00D4A5368BC
:101D900023F46053296943EAC1035360FFF724FF2A
:101DA000084B5B68C3F30313074AD35CD840074B67
:101DB00018600020FFF7A8F8002070BD0120FCE7A4
:101DC0000020024000100240EC4400080C000020FB
:101DD000014B1868704700BF0C00002008B5FFF7E2
:101DE000F7FF044B5B68C3F30223034AD35CD8407C
:101DF00008BD00BF00100240FC44000884B00F4B37
:101E00009A6942F020029A619A6902F020020192D6
:101E1000019A9A6942F004029A619A6902F00402F6
:101E20000292029A9A6942F008029A619B6903F051
:101E300008030393039B04B0704700BF00100240E7
:101E4000FEE7000008B50B480B4B03600B4B4360EB
:101E500000238360C3604FF4804202614361836169
:101E6000C3610362FFF746FB00B908BDD6210448F1
:101E7000FFF7E6FF5C08002000540040A086010048
:101E8000D053000800B591B0012206924FF4803380
:101E90000793002108910A9202220D920E934FF4AB
:101EA000E0130F9306A8FFF7B1FC08BB0F230193C3
:101EB00002210291002303934FF480620492059360
:101EC00001A8FFF7C9FEB8B9FFF782FF0C4BA3FBCF
:101ED00000308009FFF7BAF80420FFF7CDF80022A0
:101EE00011464FF0FF30FFF77DF811B05DF804FBAD
:101EF000AA210448FFF7A4FFB8210248FFF7A0FF7A
:101F0000D34D6210D053000800B583B0FFF720F81E
:101F1000FFF7B8FFFFF772FFFFF794FF344A354928
:101F2000354800F033FF5FE0344B1D6829462846F2
:101F3000FEF792FD06462046FEF742FE3146FEF7CA
:101F400093FE4FF07051FEF78FFE01462846FEF7D4
:101F500083FD2B4B1860FEF75FFA01F01DF900229C
:101F6000284BFEF7B1FA0022264BFEF7F7F8FEF7F2
:101F700045FD254B1860C2B2E1B21F4800F0CCFE0F
:101F8000224A136801331360204B1C68802CCBDD80
:101F9000194C1F49204600F089FD1E4B32220A21B0
:101FA000204600F026FD1C4B3C220A21204600F072
:101FB00020FD204600F0A6FE90B10F4C202200929A
:101FC00080230021204600F07EFD402100910B4639
:101FD0000022204600F077FD0C4B00221A60D3E768
:101FE0004FF47A70FEF7D8FF034800F086FEE4E76E
:101FF0007521000800010020640100200800002075
:10200000B408002000004040B0080020580800201C
:10201000D0490008E0530008E853000800B583B039
:10202000244B9A6942F001029A619A6902F0010216
:102030000092009ADA6942F08052DA61DB6903F0BB
:1020400080530193019B0320FEF7BAFF0022114643
:102050006FF00B00FEF7C6FF002211466FF00A007A
:10206000FEF7C0FF002211466FF00900FEF7BAFF2D
:10207000002211466FF00400FEF7B4FF0022114663
:102080006FF00300FEF7AEFF002211466FF0010073
:10209000FEF7A8FF002211464FF0FF30FEF7A2FF27
:1020A000054A536823F0E06343F00073536003B0C4
:1020B0005DF804FB001002400000014002680E4B76
:1020C0009A4200D0704700B587B0C0230293122314
:1020D00003930323059302A90848FEF7E3FF084B87
:1020E000DA6942F40012DA61DB6903F40013019348
:1020F000019B07B05DF804FB00540040000C014058
:10210000001002407047FEE7FEE7FEE7FEE770477B
:102110007047704708B5FEF72DFFFEF7BEFF08BDFC
:102120000F4B1A6842F001021A6059680D4A0A40C2
:102130005A601A6822F0847222F480321A601A6897
:1021400022F480221A605A6822F4FE025A604FF488
:102150001F029A60044B4FF000629A60704700BF04
:10216000001002400000FFF800ED00E008B5FEF7A7
:1021700013FF08BD10B5ADF57C7D023905291BD8CC
:10218000DFE801F0031A1A0B1E1E12B9184B1A7061
:1021900012E0174B40221A700EE0154B1B788DF899
:1021A00008308DF8092042F210730093022302AA2E
:1021B00078211048FFF752FA01200DF57C7D10BD03
:1021C0000B4909788DF80810012104E01C7802A859
:1021D0004454013101338A42F8DA42F21073009319
:1021E000134602AA78210348FFF738FAE4E700BF54
:1021F000A40100205C08002070B49DF80C40144439
:10220000E4B2013CE4B290F8395090F83B60964259
:1022100005D3A54207D9A24205D800201CE0A5425B
:1022200019D8A2421AD90B44DBB2013BDBB290F8B9
:10223000382090F83A00884205D39A4210D9994242
:1022400010D9012008E09A420ED8994201D8002006
:1022500002E0012000E0002070BC70470020FBE796
:102260000120F9E70020F7E70020F5E710B58C68BA
:1022700000230121A04710BD10B58C680023032165
:10228000A04710BD10B58C6800231A460421A04752
:1022900010BD10B58C68002301220421A04710BD99
:1022A00010B58C6800230221A04710BD10B58C68C2
:1022B00000230521A04710BD10B58C680621A0475A
:1022C00010BD2DE9F041074688461546002607E077
:1022D000224641463846FFF7E9FF002850D0013535
:1022E0002C781EB9FF2CF3D10126F8E7FF2C10D073
:1022F000FE2C46D0EF2C3FD8DF2C13D8CF2C19D88A
:10230000BF2C1FD8BD2C39D814F0800F2FD0002639
:10231000E5E7224641463846FFF7C8FF064680B348
:102320000026DCE704F00F0241463846FFF7B8FF0D
:102330000026D4E704F00F0241463846FFF79CFF21
:102340000026CCE741463846FFF79CFF2401E4B263
:10235000023404F0FE042046FFF708FF41463846E9
:10236000FFF797FF2046FFF701FF0026B7E720465B
:10237000FFF7FCFE0026B2E70026B0E70026AEE736
:1023800006463046BDE8F081012070472DE9F04156
:1023900005460C4616461F46A2F10A030B2B0FD822
:1023A000DFE803F0060E0E0E0E0E383D0E0E0E1870
:1023B0000222FFF75BFF1C4A21462846FFF781FFF8
:1023C0003B4632462146284600F067FE0346184643
:1023D000BDE8F081D1F80480144AFFF772FF98F845
:1023E000042042F0B00221462846FFF75FFF012299
:1023F00021462846FFF754FF22462946404600F072
:102400002EFD03460028E2D0002221462846FFF791
:1024100033FFD5E7064AFFF754FF0123D7E7054A04
:10242000FFF74FFF0123D2E7044500082C450008C1
:1024300034450008404500082DE9F04105460C46AA
:1024400016461F46A2F10A030B2B0FD8DFE803F054
:10245000060E0E0E0E0E383D0E0E0E180222FFF75F
:1024600005FF1C4A21462846FFF72BFF3B46324614
:102470002146284600F011FE03461846BDE8F081CB
:10248000D1F80480144AFFF71CFF98F8042042F0AA
:10249000B00221462846FFF709FF012221462846BF
:1024A000FFF7FEFE22462946404600F0D8FC0346D0
:1024B0000028E2D0002221462846FFF7DDFED5E7BE
:1024C000064AFFF7FEFE0123D7E7054AFFF7F9FEAC
:1024D0000123D2E74C4500082C450008344500088C
:1024E000404500082DE9F04105460C4616461F46BA
:1024F000A2F10A030B2B0FD8DFE803F0060E0E0E35
:102500000E0E383D0E0E0E180222FFF7AFFE1C4ACB
:1025100021462846FFF7D5FE3B463246214628464F
:1025200000F0BBFD03461846BDE8F081D1F80480F9
:10253000144AFFF7C6FE98F8042042F0B002214684
:102540002846FFF7B3FE012221462846FFF7A8FEE2
:1025500022462946404600F082FC03460028E2D08D
:10256000002221462846FFF787FED5E7064AFFF7F7
:10257000A8FE0123D7E7054AFFF7A3FE0123D2E710
:102580004C450008744500083445000840450008E3
:102590002DE9F84305460C4616461F46A2F10A03EC
:1025A0000B2B0FD8DFE803F0060E0E0E0E0E5F6445
:1025B0000E0E0E160222FFF759FE304A214628461B
:1025C000FFF77FFE3B4632462146284600F0B7FC27
:1025D000BDE8F883D1F80480DFF8AC904A46FFF7F5
:1025E00070FE98F80420520062F04F0202F0FE02E2
:1025F00021462846FFF75AFE012221462846FFF7CA
:102600004FFED8F8083098F8052021462846FFF7F5
:1026100053FE002221462846FFF72EFE4A46214659
:102620002846FFF74EFE98F804205200013252B2BD
:1026300062F04F02D2B221462846FFF737FE012250
:1026400021462846FFF72CFE98F80520D8F80830D8
:10265000134421462846FFF72FFE00222146284634
:10266000FFF70AFEAEE7064AFFF72BFE0120AFE7B1
:10267000044AFFF726FE0120AAE700BF4C450008E8
:1026800034450008404500082C4500082DE9F84372
:1026900005460C4616461F46A2F10A030B2B0FD81F
:1026A000DFE803F0060E0E0E0E0E5F640E0E0E1621
:1026B0000222FFF7DBFD304A21462846FFF701FEE4
:1026C0003B4632462146284600F039FCBDE8F883F7
:1026D000D1F80480DFF8AC904A46FFF7F2FD98F895
:1026E0000420520062F04F0202F0FE02214628460A
:1026F000FFF7DCFD012221462846FFF7D1FDD8F87F
:10270000083098F8052021462846FFF7D5FD00221D
:1027100021462846FFF7B0FD4A4621462846FFF7E6
:10272000D0FD98F804205200013252B262F04F02FC
:10273000D2B221462846FFF7B9FD0122214628469C
:10274000FFF7AEFD98F80520D8F80830134421466D
:102750002846FFF7B1FD002221462846FFF78CFDF1
:10276000AEE7064AFFF7ADFD0120AFE7044AFFF7E9
:10277000A8FD0120AAE700BF4C4500083445000829
:102780004045000874450008405C70474218435CAF
:10279000507800EB032080B2704708B50021FFF7A6
:1027A000F3FF08BD08B5FFF7F8FF18B1022801D004
:1027B000032008BD0620FCE710B50C46FFF7F2FF2A
:1027C000204410BD38B504460D468068FFF7E5FF8C
:1027D00098B1022811D02B7803F00F02023AA277A9
:1027E0001B0963776B7803F00F0284F820201B0924
:1027F000E377AB781B09237738BD2B78E3776B78C9
:1028000084F8203095F90330237795F90430637705
:1028100095F90530A377EFE700230377C37780F8B6
:1028200020304377837770470020704708B5052133
:10283000FFF7AAFF08BD08B50621FFF7A7FF08BDEF
:1028400008B50821FFF7A2FF08BD08B50A21FFF768
:102850009BFF08BD08B50B21FFF796FF08BD08B523
:102860000C21FFF791FF40B208BD08B50D21FFF71D
:102870008BFF40B208BD08B50E21FFF785FF40B2BF
:1028800008BD08B50F21FFF77FFF40B208BD08B5AE
:102890001021FFF779FF40B208BD2DE9F0478246CD
:1028A0000F4685682846FFF778FF04462846FFF75D
:1028B00079FF8146012C12D04FF0FF082846FFF720
:1028C000C4FF04462846FFF7C5FF06462846FFF723
:1028D000B7FF602F06D928B1054461240CE04FF002
:1028E0000F08EBE72846FFF7A6FF402F03D910B1EA
:1028F0000544412400E01135BE4208D3B44210D94A
:102900005046FFF789FF00252846BDE8F08750466E
:10291000FFF782FF0025F7E70135B442F0D001341C
:10292000E4B22B78FF2BF7D0BC4205D0AB7803EA9A
:1029300008034B441D44F0E729465046FFF742FF89
:10294000E2E72DE9F04F85B080460D461446194662
:10295000FFF7A3FF002848D00146D8F80800FFF78A
:102960002BFF074698F81F9098F820B098F81D1094
:102970002944C9B2039198F81E60A61BF6B2013E25
:10298000F6B2A6EB0B06F6B20136F6B2CDF800B001
:102990004B4632464046FFF72FFC30B109F107099C
:1029A000C9F3C4094FF0000A17E098F91C001DE0B4
:1029B00017F8013B0093002332462946404600F0B9
:1029C000B2F90835EDB20134E4B24C45F0D301362A
:1029D000F6B20AF1010A5FFA8AFADA4502D2039DD9
:1029E0000024F2E798F91C0000E0002005B0BDE8E3
:1029F000F08F2DE9F04180460C4617461E46436A8B
:102A000098470744FFB200250AE03A46214640466F
:102A1000FFF797FFC0B20444E4B20544EDB20136BB
:102A20003378002BF1D12846BDE8F08138B58568B0
:102A3000EDB1044690F82830D3B92846FFF7F6FEEA
:102A400084F829002846FFF70AFF84F82A0094F941
:102A5000293094F92A209B1A9BB294F82B20402A03
:102A600003D0DBB202FB03F39B0984F82C3038BDA2
:102A7000012B0AD02846FFF7F8FE84F829002846E3
:102A8000FFF7F9FE84F82A00E1E72846FFF7F9FE90
:102A900084F829002846FFF7FAFE84F82A00D6E7D2
:102AA000014B4362704700BF2928000883688B42AE
:102AB00008D010B504468160FFF7B8FF2046FFF745
:102AC000EFFF10BD70472DE9F04F83B0019017461E
:102AD0001E469DF83040994229D9A1EB03085FFAC0
:102AE00088F8A74228D9A7EB04095FFA89F9C845F5
:102AF00027D34B46C1469846234634461E463B469E
:102B00000F4619464FF0000AA74205D833460E4635
:102B1000194623463C461F4649F347058E4213D2C9
:102B20004FF0010BFF2F1FD1013FFFB21CE0A3EBC1
:102B300001085FFA88F8D4E7A4EB07095FFA89F97E
:102B4000D5E74FF0010ADFE74FF0FF3BEAE7224607
:102B50003146019800F0E0F8A5EB0805EBB25DB254
:102B6000002D0CDB0134E4B2A74210D3BAF1000F00
:102B7000EDD132462146019800F0CEF8ECE75FFA3D
:102B80008BF21644F6B203EB09056DB2EAE703B027
:102B9000BDE8F08F10B50C68A04710BD38B50446ED
:102BA0000D46436B0220984700230A2229462046FF
:102BB000FFF7F0FF0546636B03209847636B002027
:102BC0009847284638BD38B504460D46436B022069
:102BD0009847636B0120984700231422294620461A
:102BE000FFF7D8FF04F13803172229462046FFF7E4
:102BF000D1FF636B0020984738BD70B504460D4681
:102C0000436B02209847636B0120984700231522ED
:102C100029462046FFF7BEFF064620B9636B002019
:102C20009847304670BD04F13803172229462046E4
:102C3000FFF7B0FFF2E710B580F82D2080F82E30B6
:102C400000F12D033222FFF7A5FF10BD10B580F86B
:102C50002D2080F82E309DF8083080F830309DF817
:102C60000C3080F82F3000F12D033B22FFF792FF4C
:102C700010BD00B583B00DF107034622FFF78AFFB0
:102C80009DF8070003B05DF804FB00B583B00DF1BB
:102C900007034722FFF77EFF9DF8070003B05DF8AA
:102CA00004FB08B500234822FFF774FF08BD10B5E8
:102CB00004464168FFF7DDFF207061682046FFF79A
:102CC000E4FF607061682046FFF7EBFFE07404F1F9
:102CD0003803172261682046FFF75CFF10BD10B56E
:102CE00004464168FFF75AFF034608B9184610BD6D
:102CF0002046FFF7DCFF0123F8E708B54168FFF73E
:102D000062FF08BD10B50446836903B19847616846
:102D10002046FFF772FF10BD08B513460A4641680A
:102D2000FFF789FF08BD30B583B044689DF818509F
:102D30000195009313460A462146FFF787FF03B02B
:102D400030BD80F83110704770B5044600258560AD
:102D5000C56045740126067422238374856131465B
:102D6000FFF7EFFF2046FFF79BFE84F8286084F80A
:102D7000295084F82A50402384F82B3084F82C50B2
:102D8000014B636370BD00BF4B31000870B5044652
:102D90000D461646FFF7D8FF6560AE602046FFF788
:102DA0009EFF70BD002282700378013BC3700271E8
:102DB0007047027883781344DBB2837041788B428A
:102DC0000CD2037901330371C3781A44D2B2914211
:102DD00001D84A1ED2B2C27001207047002070474D
:102DE0008368407918445A1C002119701346904298
:102DF000F9D1704710B4C3788B4234BF002301234C
:102E00008478914294BF0021012143EA0100944259
:102E10008CBF002000F001000B40184310BC70472D
:102E200000230B7083784B704379013B8B70C37820
:102E3000CB70704708B54B78CA78012A03D0032AB3
:102E400008D01A4602E003F10802D2B21946FFF791
:102E5000D1FF08BDA3F108011A46CBB2F6E710B5C1
:102E60000C461146836842792046FFF725FA10BDCB
:102E70008368407903EB40005A1C00211970134607
:102E80009042F9D1704730B485688478121BD2B271
:102E9000072A03D94079054402F00702012000FA0D
:102EA00002F2D2B22BB96B5C23EA02026A5430BC44
:102EB00070476B5C1A436A54F9E74A7883789A4200
:102EC0000DD3C3789A420AD810B50C7843799C4246
:102ED00000D310BD0B792146FFF7D5FFF9E7704706
:102EE0002DE9F04180460D468C78CB78032B03D832
:102EF000DFE803F00E05080B0026374615E0012633
:102F0000002712E00026FF270FE0FF2600270CE035
:102F10000026012709E02B783B442B706B78334463
:102F20006B70640014F0FF0407D014F0800FF2D02F
:102F300029464046FFF7C1FFEDE7BDE8F08138B50F
:102F40001D464C68143A332A4ED8DFE802F02D357E
:102F50004D3F4D4D4D4D4D4D4D4D4D4D4D4D4D4DAF
:102F60004D4D4D4D4D4D4D4D4D4D4D4D274D4D4DB7
:102F70004D4D4D4D4D1A4D4D4D4D4D4D4D4D4D4DB4
:102F8000454929462046FFF755FF08B901232CE0A3
:102F900029462046FFF7A4FF012326E029462046C4
:102FA000FFF78BFF012320E02046FFF761FF20465B
:102FB000FFF7F8FE012318E02046FFF7FAFE03466C
:102FC00098B12046FFF754FF01230EE02946204622
:102FD000FFF726FF012308E063792B70012304E04B
:102FE00063782B70012300E00123184638BD10B42C
:102FF00084688078101A00F0070001228240D2B263
:103000002BB9635C23EA0202625410BC7047635C14
:103010001A436254F9E74A7883789A420DD3C37809
:103020009A420AD810B50C7843799C4200D310BD5F
:103030000B792146FFF7DBFFF9E770472DE9F041F7
:1030400080460D468C78CB78032B03D8DFE803F05D
:103050000E05080B0026374615E00126002712E072
:103060000026FF270FE0FF2600270CE0002601279F
:1030700009E02B783B442B706B7833446B70640011
:1030800014F0FF0407D014F0800FF2D02946404618
:10309000FFF7C1FFEDE7BDE8F08138B51D464C688C
:1030A000143A332A4ED8DFE802F02D354D3F4D4D0E
:1030B0004D4D4D4D4D4D4D4D4D4D4D4D4D4D4D4D40
:1030C0004D4D4D4D4D4D4D4D274D4D4D4D4D4D4D56
:1030D0004D1A4D4D4D4D4D4D4D4D4D4D454929468A
:1030E0002046FFF7A7FE08B901232CE02946204619
:1030F000FFF7A4FF012326E029462046FFF78BFFB8
:10310000012320E02046FFF76BFE2046FFF74AFE32
:10311000012318E02046FFF74CFE034698B12046F5
:10312000FFF75EFE01230EE029462046FFF778FEFA
:10313000012308E063792B70012304E063782B708E
:10314000012300E00123184638BD7047002103E049
:103150000B4B5B58435004310A480B4B42189A42C0
:10316000F6D30A4A02E0002342F8043B084B9A4295
:10317000F9D3FEF7D5FF01F07DF9FEF7C5FE7047E4
:10318000D055000800000020480100204801002020
:10319000B8080020FEE7000030B5214A21F00043C6
:1031A000934287B01BDD1F4A934205DD02460B4662
:1031B000FCF7D2FF07B030BD02AA00F035F800F0EE
:1031C0000300012813D002281FD0DDE90423A8B191
:1031D000DDE9020100F048FA01F10041EAE70024CC
:1031E00000220023009400F08BFF07B030BDDDE922
:1031F0000423DDE9020100F037FADBE70124DDE911
:103200000201009400F07CFFD4E70124DDE90423EF
:10321000DDE90201009400F073FF01F10041C9E70C
:10322000FB21E93FFFFFEF7F2DE9F04FC84C21F074
:103230000045A5428FB040F38A801446C54A0E4629
:10324000954226DCB8A3D3E90023002940F38A8005
:10325000FCF782FFC04B06469D420F4600F04681B8
:10326000B3A3D3E90023FCF777FF02460B463046B1
:10327000C4E900233946FCF76FFFADA3D3E900236F
:10328000FCF76AFF0127C4E9020138460FB0BDE828
:10329000F08FB24A954240F38480B14A954200F3E0
:1032A0001B812F15A7F21647A5EB07518B468246C7
:1032B000FDF7A4FBFDF79EF88046894642464B4643
:1032C00050465946CDE90889FCF746FF0022A54B38
:1032D000FDF7FAF88B468246FDF790FBFDF78AF87A
:1032E0008046894642464B4650465946CDE90A89B2
:1032F000FCF732FF00229B4BFDF7E6F8002200238B
:10330000CDE90C01FDF748FB002800F05F810023A8
:10331000404649460022FDF73FFB002814BF012329
:103320000223022090493A46CDE90001214608A82F
:1033300000F0BEFA002E074610DA6268E36802F178
:10334000004203F1004347426260E36006E000246C
:1033500000250027C2E90245C2E9000138460FB046
:10336000BDE8F08FFCF7FAFE7B4B06469D420F4608
:1033700000F00E816EA3D3E90023FCF7EFFE0246B6
:103380000B4630463946C4E90023FCF7E5FE68A346
:10339000D3E90023FCF7E2FE4FF0FF37C4E9020156
:1033A000DCE700F063FF64A3D3E90023804689468D
:1033B000FDF78AF800226D4BFCF7D0FEFDF71EFBEF
:1033C0000746FDF717F858A3D3E9002382468B463A
:1033D000CDE904ABFDF778F802460B464046494676
:1033E000FCF7BAFE52A3D3E90023CDE9020150460F
:1033F0005946FDF769F81F2F8046894602460B465D
:10340000DDE9020140F3B480FCF7A6FE83468A465C
:103410002D15CAF30A53EB1A102B40F3B48048A3BE
:10342000D3E90023DDE90401FDF74EF88046894623
:1034300002460B46DDE90201FCF78EFE82468B4612
:1034400002460B46DDE90201FCF786FE42464B468A
:10345000FCF782FE3CA3D3E9002380468946DDE9E0
:103460000401FDF731F842464B46FCF775FE0B466A
:1034700002468046894650465946CDE906ABFCF7E0
:103480006BFEC1F30A53ED1A312D83468A4600F3D1
:103490009F8002460B46DDE90601C4E90023CDE921
:1034A0000201DDE902015A465346FCF755FE424649
:1034B0004B46FCF751FE02460B46002EC4E90223A0
:1034C000BFF64CAF0AF1004301F10041C4E900B37B
:1034D000C4E902017F4241E702460B46FCF73CFE8D
:1034E0000027C4E90201C4E9000137E714A3D3E9C6
:1034F0000023FCF731FE14A3D3E900230F46064650
:10350000FCF72AFE02460B4630463946C4E9002342
:10351000FCF722FE0CA3D3E90023FCF71DFE0127D4
:10352000C4E902011AE700BF00004054FB21F93F43
:103530003163621A61B4D03D83C8C96D305FE43F26
:103540000000601A61B4D03D7370032E8A19A33B4A
:10355000FB21E93F7BD90240FB21F93FFB213941A7
:10356000FFFFEF7F00007041705400080000E03F53
:10357000FCF7F2FD3A4B7A1E53F822308346AB42F9
:103580008A463FF445AF5A465346C4E9002388E7CC
:103590002BA3D3E90023FCF7E1FD2BA3D3E9002300
:1035A0000F460646FCF7DAFD02460B463046394622
:1035B000C4E90023FCF7D0FD23A3D3E90023FCF7E3
:1035C000CDFD4FF0FF37C4E90201C7E60323A8E6AB
:1035D0001FA3D3E90023DDE90401FCF775FF804652
:1035E000894602460B46DDE90601FCF7B5FD824639
:1035F0008B4602460B46DDE90601CDE902ABFCF73E
:10360000ABFD42464B46FCF7A7FD13A3D3E90023CD
:1036100080468946DDE90401FCF756FF42464B46E9
:10362000FCF79AFD02460B468046894650465946AD
:10363000FCF792FD83468A46A5E700BFAFF3008002
:103640000000601A61B4D03D7370032E8A19A33B49
:103650000000002E8A19A33BC14920259A837B399B
:10366000F0530008000000002DE9F04F21F0004663
:10367000B6F1795F85B00C4692469B4605466BDAFB
:10368000FDF7BCF9002800F0E1802A4623462846D1
:103690002146FCF719FF74A3D3E90023804689462D
:1036A000FCF712FF72A3D3E90023FCF757FD424653
:1036B0004B46FCF709FF70A3D3E90023FCF74CFD50
:1036C00042464B46FCF700FF6DA3D3E90023FCF70D
:1036D00045FD42464B46FCF7F7FE6BA3D3E90023BA
:1036E000FCF73AFD42464B46FCF7EEFE68A3D3E9F1
:1036F0000023FCF733FD42464B46FCF7E5FECDE9DF
:1037000000010022644B40464946FCF7DDFEDDE93E
:10371000002306460F4640464946FCF7D5FE524672
:10372000804689465B4628462146FCF7CDFE024688
:103730000B4640464946FCF70FFD02460B46304615
:103740003946FCF709FD02460B4600205349FCF7B9
:1037500003FD05B0BDE8F08F02460B46FCF7B4FE52
:1037600041A3D3E9002380468946FCF7ADFE40A380
:10377000D3E90023FCF7F2FC42464B46FCF7A4FEDB
:103780003DA3D3E90023FCF7E7FC42464B46FCF798
:103790009BFE3BA3D3E90023FCF7E0FC42464B46EB
:1037A000FCF792FE38A3D3E90023FCF7D5FC424690
:1037B0004B46FCF789FE36A3D3E90023FCF7CEFC89
:1037C0004B464246FCF780FE354BCDE900019E4258
:1037D00097DD344B00229E423DDCA6F5001300200D
:1037E0002E4916461F46FCF7B7FCCDE90201002220
:1037F000294B40464946FCF767FE32463B46FCF7FC
:10380000ABFCDDE9002306460F4640464946FCF77F
:103810005BFE5246804689465B4628462146FCF7B9
:1038200053FE02460B4640464946FCF795FC0246CD
:103830000B4630463946FCF78FFC02460B46DDE965
:103840000201FCF789FC05B0BDE8F08F00201349A8
:1038500005B0BDE8F08F144B0026CDE90223134FCD
:10386000C5E700BFAFF30080D43888BEE9FAA8BD31
:10387000C4B1B4BD9EEE213EAD529C804F7E923EBF
:103880009015CB19A001FA3E7751C1166CC1563F75
:103890004C5555555555A53F0000E03F0000F03F01
:1038A0003233D33F0000E93F0000E73F0000D23F42
:1038B0002DE9F04F1F46ADF5197DBF4C0793D31E80
:1038C00084FB0354DB17C3EBA40323EAE375BB4C6F
:1038D000A29E6B1C54F82660A3EB83037C1E02EBB4
:1038E000C3030593331909950496019407460B9178
:1038F000A5EB04081DD44344002400255E1C0DF1F3
:103900008009DDF88CA209E05AF82800FCF772FD66
:1039100008F10108B045E9E802010AD0B8F1000F4A
:10392000F2DA2046294608F10108B045E9E802012B
:10393000F4D1049B002BC0F2B783A7F10802114613
:10394000079B0392DB0020AA02EB0309029301EB21
:103950000308049B72AA02EBC30B0DF5E07A019BEE
:10396000002BC0F295814D4600260027039C75E987
:103970000223F4E90201FCF7A7FD02460B4630469C
:103980003946FCF7EBFB444506460F46EFD1EAE823
:103990000267DA4509F10809E1D1DDE90210049B6B
:1039A00001449B468A469B000BA9A3F10802CB1851
:1039B00008930CAB13440A9398AB03EBCB03BBF116
:1039C000000F53E9284529DD70AB0DF1300903EBF9
:1039D000CB0800227A4B20462946FCF775FDFDF7FF
:1039E0000DF8FCF707FD0022764B06460F46FCF764
:1039F0006BFD02460B4620462946FCF7ADFBFCF763
:103A0000FDFF78E9022349F8040B39463046FCF7FC
:103A1000A5FB70AB984504460D46DAD1DDF814904D
:103A2000204629464A4600F0ABFC00224FF07F5367
:103A300004460D46FCF748FD00F01EFC0022624BD8
:103A4000FCF742FD02460B4620462946FCF784FB64
:103A50000D460446FCF7D2FF8046FCF7CBFC0B4634
:103A6000024629462046FCF777FB4B46002B0646CC
:103A70000F4640F3E1800BF1FF310CAA52F82150C0
:103A8000C9F1180345FA03F202FA03F3EB1A0CA882
:103A9000C9F1170540F82130904443FA05F5002D8F
:103AA0002CDDBBF1000F08F1010840F399820C9C5A
:103AB000002C40F0A780BBF1010F0AD001220CA915
:103AC00051F8044F531C002C40F09E809B451A4631
:103AD000F6D1059B002B0EDD012B00F0B581022BEA
:103AE00009D10BF1FF320CAB53F822300CA9C3F310
:103AF000150341F82230022D00F0AF800022002390
:103B000030463946FCF748FF002800F06B82049BE2
:103B10000BF1FF394B4510DC00220BF18043013BD8
:103B20000CA9089801EB830353F80419834242EA75
:103B30000102F9D1002A40F0B580049B0CAA013B98
:103B400052F82330002B40F0A18001230A9A52F84A
:103B5000041901330029FAD05B440BF1010999459E
:103B6000069349DC099A079909EB020801EB0B055A
:103B700008F1804802EB030BA39B08F1FF3803EB2D
:103B8000880870AB03EBC909A39B20A903EB8B0347
:103B900001EBC505029358F8040FFCF72BFC019BC1
:103BA00005F1080B002BC5E9000128DB039C00266A
:103BB0000027083D0CE000BFABAAAA2AB8550008B0
:103BC0000000703E000070410000204075E80201D6
:103BD000F4E90223FCF778FC02460B4630463946EE
:103BE000FCF7BCFA544506460F46EFD1029BE9E8C4
:103BF000026798455D46CED1DDF818B0DCE60026B8
:103C00000027F3E701230022C4F180740CA99B452F
:103C100041F822400EDD51F823206FF07F4001EB88
:103C2000830301EB8B0100E01A68821A43F8042B2E
:103C30008B42F9D101244CE706D10BF1FF330CAADA
:103C400052F82350ED152AE70022874BFCF7C2FEFD
:103C5000002840F0BE81054650E732463B46002032
:103C60008249FCF779FA06460F46002C3FF446AF2E
:103C7000059A00207D4900F083FB02460B46304642
:103C80003946FCF769FA06460F4637E7012363E732
:103C900000260027EAE80267DA4509F108097FF4FF
:103CA0005EAE7AE6059A0CAB53F82930183ACDE9A6
:103CB000068505926BB909F18043013B0CA901EB24
:103CC000830353F8041909F1FF39183A0029F8D091
:103CD0000592059A0020654900F052FBB9F1000FEA
:103CE00004460D46C0F2E7814FF0000A4FEAC903CF
:103CF00070AA02EB030808930CAB03EB8906DFF80C
:103D000070B108F10807043656F8040DFCF772FB91
:103D100022462B46FCF7D8FB5B4667E90201524678
:103D200020462946FCF7D0FB0CAB9E4204460D46CC
:103D3000EAD1C3464FF0000A48AB03930193CDF894
:103D4000149009F10103DDF810900293B9F1000F0E
:103D5000C0F23C8142A3D3E90023DFF818815D461D
:103D600000260027002403E0544510DCF8E8022375
:103D7000F5E80201FCF7A8FB02460B46304639463F
:103D8000FCF7ECF90134A14506460F46ECDA019B3D
:103D90000AF1010AE3E802670193029BABF1080B09
:103DA0009A45D3D1A29BDDF81490032B45D8DFE8C8
:103DB00013F0EC0006000600650048AB03930024F6
:103DC000B9F1000F21460CDB039B984603EBC905B4
:103DD000083575E902232046FCF7C0F9A8450446DA
:103DE000F7D1079B002B40F0368126460F4622462E
:103DF0000B460B9C0399C4E90067D1E90001FCF76D
:103E0000ABF9B9F1000F07460E4611DD314601242A
:103E10004E46039D3846F5E90223FCF79FF901342D
:103E2000A6420746F6DA079B0E46002B40F0258196
:103E30003A4633460B99C1E90223069B03F007007B
:103E40000DF5197DBDE8F08F0BF1FF320CAB53F887
:103E500022300CA9C3F3160341F822304BE600BF11
:103E600000000040FB21F93F0000E03F0000F03F70
:103E70000000703E8055000848AB0393B9F1000F75
:103E800040F33581039A4FEAC9030193D318CDF863
:103E900008909846D3E900AB914658E9026752462C
:103EA0005B4630463946FCF759F904460D46024652
:103EB0000B4630463946FCF74FF952465B46FCF755
:103EC0004DF9C8E9000168E90245C145A246AB4683
:103ED000E3D1DDF80890B9F1010F40F30881019BAF
:103EE000039A0DF5947B13449A46D3E90067019336
:103EF0005AE9028932463B4640464946FCF72EF9CC
:103F000004460D4602460B4640464946FCF724F956
:103F100032463B46FCF722F9CAE900016AE902454C
:103F2000D34526462F46E3D100231946019C039A28
:103F3000083402F110051E4674E902233046FCF7EE
:103F40000DF9A5420346F6D18C46039A1146D2E9F3
:103F50000082D1E902E90799002900F091800B9CC9
:103F600009F100402361069B02F100420CF100417F
:103F7000E06003F0070062606161C4F80080C4F88B
:103F800008E00DF5197DBDE8F08F0023089D039F23
:103F900008353D442E4619461C4676E90223204644
:103FA000FCF7DCF8B7420346F6D10C46079A0AB193
:103FB00004F10044184621460B9BC3E90001069B0F
:103FC00003F007000DF5197DBDE8F08F00260027EE
:103FD000DDE6BBF1000F08F101087EDD022566E594
:103FE000002476E5CDE90685059D304639466A42CE
:103FF00000F0C6F900223F4B06460F46FCF7EAFCEC
:1040000000B300223C4B30463946FCF75DFAFCF722
:10401000F5FC0446FCF7EEF90022364BFCF754FAA7
:104020000B46024639463046FCF796F8FCF7E6FCAC
:104030000BF101090CAB183543F82B00059543F83B
:10404000294046E630463946FCF7D8FC0CABD94649
:1040500043F82B003DE60B4601F100450B9E03990A
:10406000C6E90045D1E900012246FCF775F8B9F12F
:10407000000F07460E463FF7C9AE06F10046D7E6E9
:1040800018464646744617464D4661460B9BC3E9A3
:104090000401C3E90067C3E90245069B03F007007A
:1040A0000DF5197DBDE8F08FA7F108030393079B79
:1040B000DB00029371E4A29B032B3FF6BEAE01A28C
:1040C00052F823F0D5400008BB3D0008BB3D000876
:1040D000793E000800231C4668E732463B46002034
:1040E0000649FCF739F8022506460F4606E5002387
:1040F0009C462AE7000070410000703E0000F03F3F
:104100002DE9F04F21F00046B6F1795F85B00C46FD
:1041100090469946054604DAFCF770FC002800F04A
:1041200085802A46234628462146FCF7CDF90646D7
:104130000F4602460B4628462146FCF7C5F93EA32A
:10414000D3E9002382468B4630463946FCF7BCF95A
:104150003BA3D3E90023FBF7FFFF32463B46FCF7C6
:10416000B3F939A3D3E90023FBF7F8FF32463B4606
:10417000FCF7AAF936A3D3E90023FBF7EDFF32469B
:104180003B46FCF7A1F934A3D3E90023FBF7E6FF94
:104190000E9BCDE900019BB30022334B40464946BC
:1041A000FCF792F9DDE90023CDE9020150465946BA
:1041B000FCF78AF902460B46DDE90201FBF7CCFF6A
:1041C00032463B46FCF780F942464B46FBF7C4FFBC
:1041D00023A3D3E9002306460F4650465946FCF771
:1041E00073F902460B4630463946FBF7B7FF0246E5
:1041F0000B4628462146FBF7AFFF05B0BDE8F08F20
:1042000002460B4630463946FCF75EF914A3D3E963
:104210000023FBF7A1FF52465B46FCF755F92A46FF
:104220002346FBF79BFF05B0BDE8F08F28462146EB
:1042300005B0BDE8F08F00BF7CD5CF5A3AD9E53D37
:10424000EB9C2B8AE6E55A3E7DFEB157E31DC73E47
:10425000D561C119A0012A3FA6F810111111813FA3
:10426000495555555555C53F0000E03F21F00043E5
:104270001946704700000000C1F30A522DE9F843C7
:10428000A2F2FF36132E0B460D460446884607461B
:104290001DDC002E3DDB384A42FA06F901EA09022C
:1042A000024319D032A3D3E90023FBF757FF0022C2
:1042B0000023FCF799FBD0B3002D04DA4FF48013F0
:1042C00043FA06F6B04428EA090500272FE0332E0A
:1042D00006DDB6F5806F2FD019462046BDE8F8837D
:1042E0004FF0FF39A2F2134229FA02F919EA000F3E
:1042F000F2D01FA3D3E90023FBF730FF00220023F5
:10430000FCF772FB98B1002D24DB27EA090745462C
:104310000DE017A3D3E90023FBF720FF00220023C1
:10432000FCF762FB18B1002D0BDB00273D463C4635
:1043300029462046BDE8F8830246FBF70FFF0446F6
:10434000CBE725F000430D4A1F43002F18BF154649
:104350000027ECE7142E08D00123C6F1340603FA37
:1043600006F6371928BF9844CFE705F10108CCE7D6
:104370009C7500883CE4377EFFFF0F000000F0BF13
:10438000F8B5C1F30A5304460D460E4617460BBB5B
:10439000034621F0004633431BD02F4B0022FCF78D
:1043A00093F82E4B04469F420D4637DB0E46C1F371
:1043B0000A53363B40F2FE723B4493421ADC002B18
:1043C00011DD26F0FF4626F4E00646EA03552046B6
:1043D0002946F8BD40F2FF729342EBD102460B46EC
:1043E000FBF7BCFEF8BD13F1350F1DDA4CF250336C
:1043F0009F420CDD14A1D1E9000122462B4600F0BA
:1044000031F811A3D3E90023FCF75EF8F8BD22468A
:104410000FA1D1E900012B4600F024F80CA3D3E949
:104420000023FCF751F8F8BD26F0FF4626F4E0061D
:10443000363346EA0355204629460022084BFCF74E
:1044400043F8F8BDAFF300809C7500883CE4377EEC
:1044500059F3F8C21F6EA50100005043B03CFFFFA6
:104460000000903C03F0004321F0004242EA0301C7
:10447000704700BF70B500250C4E0D4CA41BA41056
:10448000A54209D100F01AF800250A4E0A4CA41BD7
:10449000A410A54205D170BD56F8253098470135C6
:1044A000EEE756F8253098470135F2E7C855000881
:1044B000C8550008C8550008CC550008F8B500BF1D
:1044C000F8BC08BC9E467047F8B500BFF8BC08BCF5
:0444D0009E4670474D
:1044D80002030405060708090A0B0C0D0E0F10103D
:1044E80001020000000000000000000001020304B7
:1044F800060708090000000001020304FFD0FFE0DE
:10450800FFC1FFD1AED580A83FD300408D14200055
:10451800A1C8DA1281CFD9F1DB402EA4A6AFFFD013
:10452800FFFE0000FFE0FFD11000FFFEFFE0FFD11B
:10453800AEFFD0FFFE000000FFE0FFD1AFFF32FF6B
:10454800D0FFFE00FFD0FFE0FFC1FFD1AED580A8AD
:104558003FD300408D142002A1C8DA1281CFD9F1CF
:10456800DB402EA4A6AFFFD0FFFE0000FFE0FFD186
:104578001002FFFE00050900FE06017E02F8207FFA
:10458800FE07FE07FE000000050000010606050202
:1045980000808080800080030202050105A0A0053C
:1045A800050505000150F850F8500508080500FFFA
:1045B8002078A07028A8702005060605000078A8B5
:1045C800B068A89004060605000040A04050A0501E
:1045D80001020205020480800308080501FF20404B
:1045E8008080808040200308080500FF804020204C
:1045F80020204080040505050001409060902003BC
:10460800030305000140E0400203030500FE4040AB
:1046180080020101050102C00101010502008004B8
:1046280008080500FE10102020404080800406067F
:104638000500006090B0D0906003060605010040B8
:10464800C0404040E004060605000060901020408D
:10465800F00406060500006090201090600406062D
:104668000500002060A0F02070040606050000F098
:1046780080E01090600406060500006080E09090DD
:1046880060040606050000F01020404040040606BD
:1046980005000060906090906004060605000060C8
:1046A80090907010600104040502008000008002F0
:1046B80006060500FE400000404080030505050190
:1046C800002040804020040303050001F000F003AF
:1046D800050505010080402040800406060500000D
:1046E8006090204000400406060500006090B0B0CD
:1046F8008070040606050000609090F09090040613
:1047080006050000E090E09090E004060605000031
:10471800609080809060040606050000E09090900C
:1047280090E0040606050000F080E08080F00406B2
:1047380006050000F080E080808004060605000081
:10474800609080B090600406060500009090F0909C
:104758009090030606050100E040404040E0040652
:1047680006050000101010109060040606050000F1
:1047780090A0C0C0A090040606050000808080803C
:1047880080F004060605000090F0F0909090040672
:104798000605000090D0B090909004060605000031
:1047A800609090909060040606050000E09090E00C
:1047B80080800407070500FF60909090B0601004A7
:1047C8000606050000E09090E090900406060500BB
:1047D80000609060109060030606050100E040400C
:1047E80040404004060605000090909090906004B8
:1047F800060605000090909090A04004060605006B
:1048080000909090F0F090040606050000909060EB
:104818006090900406060500009090A04040400477
:104828000606050000F010204080F0020808050286
:10483800FFC0808080808080C00408080501FE8059
:10484800804040202010100208080501FFC04040A9
:1048580040404040C003020205010440A005010198
:104868000500FEF802020205010580400404040563
:1048780000007090B0500406060500008080E090AB
:1048880090E00404040500006090807004060605AA
:10489800000010107090907004040405000060F08F
:1048A80080700306060501002040E04040400406F1
:1048B800060500FE70909070106004060605000062
:1048C8008080E09090900306060501004000C040FB
:1048D80040E00208080501FE4000C040404040801A
:1048E8000406060500008080A0C0A0900306060507
:1048F8000100C040404040E0050404050000F0A865
:10490800A8A8040404050000A0D09090040404059D
:104918000000609090600406060500FEE09090E0BC
:1049280080800406060500FE709090701010040444
:1049380004050000A0D0808004040405000070E095
:1049480010E00306060501004040E0404020040452
:10495800040500009090B0500404040500009090F5
:10496800A040050404050000A8A8A85004040405F4
:104978000000906060900406060500FE909090701C
:104988001060040404050000F02040F00309090544
:1049980001FE2040404080404040200108080502B8
:1049A800FF80808080808080800309090501FE8067
:1049B800404040204040408004020205000250A0D0
:1049C800000000050000000000050900FE06017E49
:1049D80002F820FFFE08FE07FE00000005000001A7
:1049E800060605020080808080008003020205011F
:1049F80005A0A005050505000150F850F850050868
:104A0800080500FF2078A07028A870200506060574
:104A1800000078A8B068A89004060605000040A029
:104A28004050A050010202050204808003080805D6
:104A380001FF20408080808040200308080500FF97
:104A4800804020202020408004050505000140907A
:104A580060902003030305000140E04002030305C2
:104A680000FE404080020101050102C0010101056C
:104A78000200800408080500FE1010202040408035
:104A8800800406060500006090B0D090600306061A
:104A980005010040C0404040E004060605000060F3
:104AA80090102040F0040606050000609020109049
:104AB800600406060500002060A0F02070040606C9
:104AC800050000F080E01090600406060500006014
:104AD80080E0909060040606050000F01020404039
:104AE8004004060605000060906090906004060689
:104AF80005000060909070106001040405020080B9
:104B08000000800206060500FE40000040408003C9
:104B1800050505010020408040200403030500012D
:104B2800F000F003050505010080402040800406E0
:104B380006050000609020400040040606050000BD
:104B48006090B0B08070040606050000609090F098
:104B58009090040606050000E090E09090E00406BE
:104B6800060500006090808090600406060500003D
:104B7800E090909090E0040606050000F080E08048
:104B880080F0040606050000F080E08080800406BE
:104B980006050000609080B09060040606050000DD
:104BA8009090F0909090030606050100E040404088
:104BB80040E004060605000010101010906004067E
:104BC8000605000090A0C0C0A090040606050000DD
:104BD8008080808080F004060605000090F0F09048
:104BE800909004060605000090D0B09090900406BE
:104BF800060500006090909090600406060500008D
:104C0800E09090E080800407070500FF6090909096
:104C1800B06010040606050000E09090E090900453
:104C28000606050000609060109060030606050106
:104C380000E0404040404004060605000090909087
:104C480090906004060605000090909090A04004A3
:104C58000606050000909090F0F090040606050006
:104C6800009090606090900406060500009090A067
:104C7800404040040606050000F010204080F00285
:104C880008080502FFC0808080808080C004080872
:104C98000501FE8080404020201010020808050110
:104CA800FFC0404040404040C003020205010440AC
:104CB800A00501010500FEF8020202050105804079
:104CC8000404040500007090B050040606050000B6
:104CD8008080E09090E004040405000060908070FB
:104CE8000406060500001010709090700404040576
:104CF800000060F080700306060501002040E040D7
:104D080040400406060500FE70909070106004068E
:104D1800060500008080E0909090030606050100DB
:104D28004000C04040E00208080501FE4000C040C5
:104D3800404040800406060500008080A0C0A09086
:104D4800030606050100C040404040E00504040594
:104D58000000F0A8A8A8040404050000A0D09090C2
:104D6800040404050000609090600406060500FE37
:104D7800E09090E080800406060500FE7090907038
:104D88001010040404050000A0D080800404040569
:104D9800000070E010E00306060501004040E04016
:104DA80040200404040500009090B0500404040559
:104DB80000009090A040050404050000A8A8A85091
:104DC800040404050000906060900406060500FED7
:104DD800909090701060040404050000F02040F0EA
:104DE8000309090501FE2040404080404040200161
:104DF80008080502FF808080808080808003090980
:104E08000501FE80404040204040408004020205E9
:104E1800000250A00000000500000000000500008E
:104E28000000000500000203030500FF4040800366
:104E380009090501FE204040E0404040408004034D
:104E4800030500FF5050A0050101050000A8030557
:104E58000505010140E0404040030505050101400A
:104E6800E040E04003020205010540A005060605F2
:104E7800000078D0E070F8700408080500005020A1
:104E880070806010906002030305000040804004B9
:104E9800060605000070A0B0A0A070000000050084
:104EA80000000000050000000000050000000000F0
:104EB8000500000203030502034080800203030586
:104EC800010340408004030305000350A0A004032D
:104ED800030500035050A004040405000160F0F02D
:104EE80060020101050102C0050101050002F80484
:104EF800020205000550A0050303050003F85858F1
:104F080004070705000050200070E010E0020303CA
:104F180005000080408004040405000070B0A05023
:104F28000000000500000000000500000408080556
:104F3800000050009090A040404000000005000094
:104F480001060605020080008080808004060605B0
:104F580000FF2060B0C070400406060500006080B5
:104F6800C08090E00404040500009060609003068F
:104F780006050100A040E040E0400108080502FFE6
:104F880080808000008080800408080500FF609011
:104F980040A050209060020101050105C0040606EA
:104FA800050000C020D0D020C0030505050102601F
:104FB800A06000E0050303050000489048040202D1
:104FC800050001F010030101050002E004050505D4
:104FD8000001C020D0D0B0020101050105C00303C3
:104FE8000305010340A04003040405000040E0401D
:104FF800E00203030501048040C002030305010425
:10500800C040C0020101050205C00405050500FFF6
:10501800A0A0A0D08004060605000070B0B07030D3
:1050280030010101050202800202020501FEC0C032
:10503800020303050104C0404003050505010240C1
:10504800A04000E00503030500009048900507070D
:10505800050000C0485020489808050707050000CB
:10506800C0485020508818050707050000C048D0E0
:10507800204898080406060500002000204090609B
:105088000408080500004020609090F09090040803
:10509800080500002040609090F0909004080805F2
:1050A80000002050006090F090900408080500006F
:1050B80050A0006090F0909004080805000050008F
:1050C800609090F09090040808050000205020603F
:1050D80090F0909004060605000070A0F0A0A0B023
:1050E8000408080500FE6090808090602040040855
:1050F800080500004020F080E08080F004080805E2
:1051080000002040F080E08080F0040808050000DE
:105118002050F080E08080F004080805000050006E
:10512800F080E08080F00308080501008040E0403E
:10513800404040E00308080501002040E0404040AE
:1051480040E003080805010040A000E0404040E0BE
:10515800030808050100A000E040404040E00406C4
:10516800060500006050D050506004080805000093
:1051780050A090D0B09090900408080500004020FE
:1051880060909090906004080805000020406090AE
:1051980090909060040808050000205000609090EE
:1051A800906004080805000050A00060909090608E
:1051B8000408080500005000609090909060030378
:1051C80003050001A040A00406060500006090B099
:1051D800D0906004080805000040209090909090BE
:1051E80060040808050000204090909090906004AA
:1051F800080805000020500090909090600408086E
:1052080005000050009090909090600408080500F8
:10521800002040009090A040400406060500008051
:10522800E090E080800407070500FF6090A0A09050
:10523800A0800407070500004020007090B05004CB
:1052480007070500002040007090B05004070705CC
:1052580000002050007090B050040707050000506F
:10526800A0007090B0500406060500005000709031
:10527800B0500407070500002050207090B050047B
:10528800040405000070B0A0700406060500FE6066
:10529800908070204004070705000040200060F05F
:1052A800807004070705000020400060F08070044B
:1052B800070705000020500060F08070040606050E
:1052C8000000500060F0807003070705010080406F
:1052D80000C04040E0030707050100408000C040CF
:1052E80040E003070705010040A000C04040E0037C
:1052F8000606050100A000C04040E00407070500BD
:1053080000C0C0207090906004070705000050A0FE
:1053180000A0D0909004070705000040200060908E
:10532800906004070705000020400060909060042A
:1053380007070500002050006090906004070705EB
:10534800000050A000609090600406060500005020
:1053580000609090600305050500004000E00040F3
:1053680004040405000060B0D060040707050000CD
:105378004020009090B0500407070500002040002E
:105388009090B0500407070500002050009090B09E
:105398005004060605000050009090B0500409091A
:1053A8000500FE1020009090907010600408080519
:1053B80000FE8080E09090E080800408080500FEF0
:1053C80050009090907010602E2E2F5372632F6DA6
:1053D80061696E2E6300000046756EE7E36F3A0060
:1053E80053696E2878290000FB21F93FFB21094009
:1053F8007CD91240FB2119407A6A1F407CD922408F
:10540800BBFD2540FB2129403A462C407A6A2F40B3
:105418005C4731407CD932409C6B3440BBFD354001
:10542800DB8F3740FB2139401BB43A403A463C40B9
:105438005AD83D407A6A3F404C7E40405C474140E4
:105448006C1042407CD942408CA243409C6B444043
:10545800AC344540BBFD4540CBC64640DB8F47409A
:10546800EB584840FB21494083F9A200444E6E00A6
:10547800FC291500D1572700DD34F50062DBC00098
:105488003C999500419043006351FE00BBDEAB00A0
:10549800B761C5003A6E2400D24D42004906E000CB
:1054A80009EA2E001C92D100EB1DFE0029B11C0058
:1054B800E83EA700F535820044BB2E009CE9840035
:1054C800B4267000417E5F00D691390053833900BD
:1054D8009CF439008B5F840028F9BD00F81F3B005D
:1054E800DEFF97000F980500112FEF000A5A8B0076
:1054F8006D1F6D00CF7E360009CB2700464FB700E1
:105508009E663F002DEA5F00BA277500E5EBC700ED
:105518003D7BF100F739070092528A00FB6BEA00E5
:105528001FB15F00085D8D00300356007BFC46000C
:10553800F0AB6B0020BCCF0036F49A00E3A91D0045
:105548005E619100081BE60085996500A0145F0064
:105558008D40680080D8FF0027734D000606310093
:10556800CA561500C9A873007BE260006B8CC000A6
:1055780000000040FB21F93F000000002D44743E6C
:10558800000000809846F83C0000006051CC783B51
:1055980000000080831BF0390000004020257A3885
:1055A800000000802282E336000000001DF3693508
:1055B80002000000030000000400000006000000D4
:0455C80035010008A1
:0455CC0011010008C1
:1055D0000100000010000000DB0F494000A24A0457
:1055E0008D26000834000020892300088D2600083D
:1055F00034000020892300088D2600083400002094
:10560000892300081040000000810000A80100204C
:10561000E52400084C000020892300080840000011
:1056200000810000AC020020E52400086400002096
:10563000892300080840000000810000300300209A
:10564000E52400087C0000208923000808400000B1
:1056500000810000B403002091250008AC00002068
:105660008923000891250008AC0000208923000848
:1056700091250008AC00002089230008104000009C
:10568000008100003804002039240008C4000020F4
:105690008923000808400000008100003C0500202C
:1056A00039240008DC00002089230008084000009D
:1056B00000810000C005002039240008F40000200B
:1056C00089230008084000000081000044060020F3
:1056D0008D2300080C0100208923000808400000E9
:1056E00000810000C80600208D230008240100204E
:1056F0008923000808400000008100004C070020BA
:105700008D2300083C010020892300080840000088
:0857100000810000D007002019
:040000050800314D71
:00000001FF
