:020000040800F2
:1000000000500020AD1000084510000847100008FF
:10001000491000084B1000084D10000800000000B7
:100020000000000000000000000000004F10000869
:10003000511000080000000053100008551000087F
:10004000F5100008F5100008F5100008F51000087C
:10005000F5100008F5100008F5100008F51000086C
:10006000F5100008F5100008F5100008F51000085C
:10007000F5100008F5100008F5100008F51000084C
:10008000F5100008F5100008F5100008F51000083C
:10009000F5100008F5100008F5100008F51000082C
:1000A000F5100008F5100008F5100008F51000081C
:1000B000F5100008F5100008F5100008F51000080C
:1000C000F5100008F5100008F5100008F5100008FC
:1000D000F5100008F5100008F5100008F5100008EC
:1000E000F5100008F5100008F510000800000000E9
:1000F0000000000000000000000000000000000000
:0C01000000000000000000005FF808F1A3
:10010C0010B5054C237833B9044B13B10448AFF345
:10011C0000800123237010BD0C00002000000000A3
:10012C00401100080C4B43B10C4810B50C49AFF30F
:10013C0000800C48036823B910BD0A48036833B922
:10014C007047094B002BF7D0BDE810401847064B01
:10015C00002BF5D0184700BF00000000401100082C
:10016C00100000200C0000200000000010B5044618
:10017C000E4B18784FF47A73B3FBF0F30C4A1068FB
:10018C00B0FBF3F000F092F868B90F2C01D9012004
:10019C0010BD002221464FF0FF3000F055F8034B04
:1001AC005C60002010BD012010BD00BF00000020CD
:1001BC000800002008B5074A136843F010031360C9
:1001CC00032000F02FF80020FFF7D0FF00F0E4FE32
:1001DC00002008BD00200240034A1168034B1B7825
:1001EC000B441360704700BF280000200000002063
:1001FC00014B1868704700BF2800002038B5044632
:10020C00FFF7F6FF0546B4F1FF3F02D0044B1B7815
:10021C001C44FFF7EDFF401B8442FAD838BD00BFE9
:10022C0000000020074AD36823F4E0631B041B0C76
:10023C00000200F4E060184340F0BF6040F400306E
:10024C00D060704700ED00E030B4164BDB68C3F3B0
:10025C000223C3F10704042C28BF04241D1D062D02
:10026C0017D9033B012505FA04F4013C21409940C0
:10027C0005FA03F3013B1340194300280BDB09017A
:10028C00C9B200F1604000F5614080F8001330BC49
:10029C0070470023E6E700F00F000901C9B2024BDA
:1002AC001954F4E700ED00E014ED00E00138B0F172
:1002BC00807F0AD2064B5860F021064A82F8231040
:1002CC000020986007221A6070470120704700BF19
:1002DC0010E000E000ED00E0042805D0054A1368AA
:1002EC0023F0040313607047024A136843F00403BD
:1002FC001360704710E000E0704708B5FFF7FCFF93
:10030C0008BD0000F0B583B00026344671E0002D26
:10031C0000F0A180012D00D1CE68FF2B00F2AF8040
:10032C008646FF2B00F2AE80A500DEF800200F27DA
:10033C00AF4022EA070206FA05F52A43CEF8002060
:10034C004A6812F0805F53D0634A956945F0010505
:10035C009561926902F001020192019AA508AF1C05
:10036C005E4A52F8272004F00307BF004FF00F0E2F
:10037C000EFA07FE22EA0E02DFF870E1704500F07B
:10038C0088800EF5806E704500F086800EF5806ECC
:10039C00704500F084800EF5806E704576D04FF07D
:1003AC00040E0EFA07F73A4302354C4F47F8252056
:1003BC004A6812F4803F75D0494D2A681A432A6066
:1003CC004A6812F4003F73D0454D6A681A436A605C
:1003DC004A6812F4801F71D0414DAA681A43AA6072
:1003EC004A6812F4001F6FD03D4DEA681343EB606E
:1003FC0001340F2C6ED80122A2400B6813409A4294
:10040C00F6D14D68122D30D00BD8022D2AD07FF6A4
:10041C007EAF032D2FD0112D7FF47FAFCE68043625
:10042C007BE7304FBD4216D00CD92F4FBD4212D0B6
:10043C0007F58037BD420ED0A7F58017BD427FF47B
:10044C006CAF08E0A7F58017BD4204D007F58037E4
:10045C00BD427FF462AF8D687DB1012D08D0426141
:10046C0008265AE7CE68083657E7CE680C3654E7AC
:10047C000261082651E700264FE704264DE700F1FC
:10048C00040E4EE7A4F10805AD004EE74FF0030E45
:10049C0087E74FF0000E84E74FF0010E81E74FF035
:1004AC00020E7EE70E4D2A6822EA03022A6087E7D5
:1004BC000B4D6A6822EA03026A6089E7084DAA6854
:1004CC0022EA0302AA608BE7054DEA6822EA0303DD
:1004DC00EB608DE703B0F0BD00100240000001405E
:1004EC000004014000002110000031100008014000
:1004FC0012B909040161704701617047C368594022
:10050C00C160704782B0084B1B68084AA2FB0323EA
:10051C005B0A00FB03F0019000BF019B5A1E019285
:10052C00002BF9D102B0704708000020D34D6210A7
:10053C0070B582B00446036813F0010F3DD0AC4B8C
:10054C005B6803F00C03042B2ED0A94B5B6803F003
:10055C000C03082B23D06368B3F5803F51D0002BDC
:10056C0055D103F1804303F504331A6822F4803229
:10057C001A601A6822F480221A606368002B60D01B
:10058C00FFF736FE05469A4B1B6813F4003F14D157
:10059C00FFF72EFE401B6428F5D90320AFE1944BE6
:1005AC005B6813F4803FD6D0914B1B6813F4003F6B
:1005BC0003D06368002B00F09F81236813F0020FB7
:1005CC0065D08B4B5B6813F00C0F4ED0884B5B687F
:1005DC0003F00C03082B43D02369002B79D00122A4
:1005EC00844B1A60FFF704FE0546814B1B6813F021
:1005FC00020F65D1FFF7FCFD401B0228F5D9032043
:10060C007DE17B4A136843F480331360B5E7B3F59F
:10061C00A02F09D0764B1A6822F480321A601A681F
:10062C0022F480221A60A8E703F18043A3F53C333F
:10063C001A6842F480221A601A6842F480321A60F6
:10064C009BE7FFF7D5FD0546694B1B6813F4003F8C
:10065C00B3D0FFF7CDFD401B6428F5D903204EE144
:10066C00634B5B6813F4803FB6D1614B1B6813F08E
:10067C00020F04D02369012B01D001203FE15C4A19
:10068C00136823F0F803616943EAC103136023681C
:10069C0013F0080F32D0A369002B6ED00122564BF9
:1006AC001A60FFF7A5FD0546514B5B6A13F0020F6C
:1006BC0021D1FFF79DFD401B0228F5D903201EE137
:1006CC004B4A136823F0F803616943EAC1031360D2
:1006DC00DDE70022474B1A60FFF78AFD0546444BC5
:1006EC001B6813F0020FD2D0FFF782FD401B0228CB
:1006FC00F5D9032003E10120FFF704FF236813F071
:10070C00040F00F099803A4BDB6913F0805F46D1FF
:10071C00374BDA6942F08052DA61DB6903F08053BF
:10072C000193019B0125354B1B6813F4807F38D056
:10073C00E368012B49D0002B4DD103F1804303F525
:10074C0004331A6A22F001021A621A6A22F00402B5
:10075C001A62E368002B5DD0FFF74AFD0646244B76
:10076C001B6A13F0020F66D1FFF742FD801B41F2AA
:10077C0088339842F3D90320C1E000221E4B1A6043
:10078C00FFF736FD05461A4B5B6A13F0020FB5D026
:10079C00FFF72EFD401B0228F5D90320AFE0002502
:1007AC00C1E7164A136843F480731360FFF720FD0A
:1007BC000646124B1B6813F4807FB9D1FFF718FD66
:1007CC00801B6428F5D9032099E0094A136A43F089
:1007DC0001031362BDE7052B12D0054B1A6A22F0F8
:1007EC0001021A621A6A22F004021A62B1E700BF0F
:1007FC00001002400000424280044242007000405F
:10080C00414B1A6A42F004021A621A6A42F001025F
:10081C001A629EE7FFF7ECFC06463B4B1B6A13F093
:10082C00020F08D0FFF7E4FC801B41F2883398429A
:10083C00F3D9032063E0E5B9E369002B5ED0324ABB
:10084C00526802F00C02082A5BD0022B17D000224F
:10085C002E4B1A60FFF7CCFC04462B4B1B6813F095
:10086C00007F47D0FFF7C4FC001B0228F5D90320FA
:10087C0045E0254AD36923F08053D361DCE700229D
:10088C00224B1A60FFF7B4FC05461F4B1B6813F094
:10089C00007F06D0FFF7ACFC401B0228F5D90320E3
:1008AC002DE0236AB3F5803F1AD017494B6823F427
:1008BC007413226A606A024313434B600122134B88
:1008CC001A60FFF795FC04460F4B1B6813F0007F72
:1008DC000ED1FFF78DFC001B0228F5D903200EE08A
:1008EC00094A536823F40033A1680B435360DCE7D7
:1008FC00002004E0002002E0012000E0002002B013
:10090C0070BD0120FBE700BF0010024060004242B6
:10091C0010B586B0154C94E80F000DF1180E0EE9C9
:10092C000F00238AADF80430114B5B6803F00C0206
:10093C00082A18D1C3F38342724412F8102C13F412
:10094C00803F03D10B4800FB02F00DE0084B5B68C5
:10095C00C3F34043734413F8143C074800FB02F004
:10096C00B0FBF3F000E0044806B010BD58110008CD
:10097C000010024000093D0000127A00594B1B6820
:10098C0003F007038B420CD2564A136823F007037B
:10099C000B431360136803F00703994201D0012045
:1009AC00704770B5036813F0020F06D04E4A5368B7
:1009BC0023F0F0038468234353600D460446036818
:1009CC0013F0010F52D04368012B23D0022B28D0F7
:1009DC00454A126812F0020F00F0828042494A68C0
:1009EC0022F0030213434B60FFF702FC06466368D8
:1009FC00012B1DD0022B2AD03B4B5B6813F00C0F44
:100A0C0034D0FFF7F5FB801B41F288339842F3D9C1
:100A1C00032070BD344A126812F4003FDED101206D
:100A2C0070BD314A126812F0007FD7D1012070BD21
:100A3C002D4B5B6803F00C03042B17D0FFF7D8FB8E
:100A4C00801B41F288339842F2D9032070BD264BAB
:100A5C005B6803F00C03082B08D0FFF7C9FB801B65
:100A6C0041F288339842F2D9032070BD1D4B1B68AC
:100A7C0003F007039D420CD21A4A136823F00703B4
:100A8C002B431360136803F007039D4201D0012030
:100A9C0070BD236813F0040F06D0134A536823F477
:100AAC00E063E1680B435360236813F0080F07D031
:100ABC000D4A536823F46053216943EAC103536020
:100ACC00FFF726FF084B5B68C3F30313074AD35C9D
:100ADC00D840074B18600020FFF748FB002070BD82
:100AEC00012070BD00200240001002406C11000873
:100AFC0008000020014B1868704700BF0800002058
:100B0C0082B00190094B1B68094AA2FB03239B0C82
:100B1C00019A02FB03F3019302E0019B013B019359
:100B2C00019B002BF9D102B0704700BF08000020D8
:100B3C0083DE1B4310B5064CE36843F02003E360EF
:100B4C000120FFF7DDFFE36823F02003E36010BD15
:100B5C00000C014010F0800F1DD11B4AD36823F408
:100B6C000043D36010F0400F1BD0174AD36843F4F6
:100B7C008043D36010F0200F19D0134AD36843F48C
:100B8C000053D36010F0100F17D10F4AD36823F421
:100B9C008053D36070470C4AD36843F40043D3604E
:100BAC00E0E7094AD36823F48043D360E2E7064ABE
:100BBC00D36823F40053D360E4E7034AD36843F4C7
:100BCC008053D360704700BF000C014010F0080F39
:100BDC001DD01B4AD36843F40043D36010F0040FBC
:100BEC001BD0174AD36843F48043D36010F0020F34
:100BFC0019D0134AD36843F40053D36010F0010F9B
:100C0C0017D10F4AD36823F48053D36070470C4A32
:100C1C00D36823F40043D360E0E7094AD36823F494
:100C2C008043D360E2E7064AD36823F40053D360D1
:100C3C00E4E7034AD36843F48053D360704700BFA2
:100C4C00000C014010B50446FFF784FFFFF772FF5C
:100C5C002046FFF7BBFFFFF76DFF0520FFF750FFA6
:100C6C0010BD000010B504460C4AD36823F01003E5
:100C7C00D360FFF76FFFFFF75DFF0520FFF740FF25
:100C8C00FFF758FF0520FFF73BFF2046FFF79EFFBD
:100C9C00FFF750FF0520FFF733FF10BD000C01409C
:100CAC0008B5064AD36823F01003D3600120FFF780
:100CBC00C9FFC820FFF724FF08BD00BF000C01408E
:100CCC0008B5064AD36823F01003D3600220FFF75F
:100CDC00B9FFC820FFF714FF08BD00BF000C01408E
:100CEC0008B5094AD36823F01003D3603C2802D01E
:100CFC003E2804D008BD1020FFF7A4FF08BD142027
:100D0C00FFF7A0FF08BD00BF000C014008B5134A57
:100D1C00D36823F01003D360013804281CD8DFE813
:100D2C0000F003080D12170041F08000FFF78AFF56
:100D3C0008BD41F0C000FFF785FF08BD41F09000F1
:100D4C00FFF780FF08BD41F0D000FFF77BFF08BD27
:100D5C0041F04000FFF776FF08BD00BF000C0140DA
:100D6C0008B5044AD36823F01003D360FFF76AFF79
:100D7C0008BD00BF000C014008B5054AD36843F01C
:100D8C001003D360FFF75EFF0120FFF7B9FE08BD2B
:100D9C00000C014038B505460FE000210220FFF79A
:100DAC00B5FF09E0FFF78CFF06E03E20FFF798FF48
:100DBC000134E4B2032CF8D90135287850B10A2853
:100DCC00EBD00D28EED0092802D0FFF7D5FFF3E7C2
:100DDC000024EFE738BD08B53020FFF733FF4FF4A0
:100DEC00C870FFF78DFE3020FFF72CFF4FF4C87052
:100DFC00FFF786FE2820FFF735FF0C20FFF7B0FF2A
:100E0C000620FFF7ADFFFFF74BFFFFF759FF08BDBB
:100E1C002DE9F04188B0274B9A6942F010029A6193
:100E2C009A6902F010020092009A9A6942F020022C
:100E3C009A619A6902F020020192019A9A6942F031
:100E4C0008029A619A6902F008020292029A9A695F
:100E5C0042F004029A619B6903F004030393039B21
:100E6C00DFF8588001224FF400514046FFF740FB59
:100E7C00114C00224FF230012046FFF739FB4FF4A2
:100E8C000053049301270597002606960225079523
:100E9C0004A94046FFF736FA4FF230030493059746
:100EAC000696079504A92046FFF72CFA08B0BDE872
:100EBC00F08100BF00100240000C01400010014006
:100ECC00FEE7000000B591B0012206924FF480338A
:100EDC000793002108910A9202220D920E934FF46F
:100EEC00E0130F9306A8FFF723FB08BB0F23019316
:100EFC0002210291002303934FF480620492059324
:100F0C0001A8FFF73BFDB8B9FFF7F4FD0C4BA3FBB1
:100F1C0000308009FFF7CAF90420FFF7DDF9002241
:100F2C0011464FF0FF30FFF78FF911B05DF804FB5D
:100F3C0095210448FFF7C4FFA3210248FFF7C0FF27
:100F4C00D34D62108411000808B5FFF733F9FFF791
:100F5C00B9FFFFF75DFF6420FFF750F9FFF73BFF88
:100F6C00FFF79EFE00210120FFF7D0FE0748FFF798
:100F7C0011FF0748FFF70EFF4FF400510548FFF72C
:100F8C00BDFA4FF4FA60FFF739F9E9E7941100085C
:100F9C00AC1100080010014000B583B0244B9A69D5
:100FAC0042F001029A619A6902F001020092009AE1
:100FBC00DA6942F08052DA61DB6903F08053019305
:100FCC00019B0320FFF72EF9002211466FF00B0056
:100FDC00FFF73AF9002211466FF00A00FFF734F9D7
:100FEC00002211466FF00900FFF72EF9002211467E
:100FFC006FF00400FFF728F9002211466FF0030090
:10100C00FFF722F9002211466FF00100FFF71CF9DF
:10101C00002211464FF0FF30FFF716F9054A5368CE
:10102C0023F0E06343F00073536003B05DF804FBFE
:10103C0000100240000001407047FEE7FEE7FEE7AB
:10104C00FEE770477047704708B5FFF7C5F8FFF724
:10105C0054F908BD0F4B1A6842F001021A60596826
:10106C000D4A0A405A601A6822F0847222F48032C7
:10107C001A601A6822F480221A605A6822F4FE025E
:10108C005A604FF41F029A604FF00062034B9A6053
:10109C00704700BF001002400000FFF800ED00E0B8
:1010AC00002103E00B4B5B58435004310A480B4BB7
:1010BC0042189A42F6D30A4A02E0002342F8043B53
:1010CC00084B9A42F9D3FFF7C5FF00F00FF8FFF772
:1010DC003BFF7047BC110008000000200C000020F2
:1010EC000C0000202C000020FEE7000070B500254D
:1010FC000C4E0D4CA41BA410A54209D100F01AF8FB
:10110C0000250A4E0A4CA41BA410A54205D170BDA3
:10111C0056F8253098470135EEE756F825309847B4
:10112C000135F2E7B4110008B4110008B41100083D
:10113C00B8110008F8B500BFF8BC08BC9E46704753
:0C114C00F8B500BFF8BC08BC9E46704718
:1011580002030405060708090A0B0C0D0E0F1010F0
:10116800010200000000000000000000010203046A
:101178000607080900000000010203042E2E2F5361
:1011880072632F6D61696E2E63000000537973746A
:10119800656D20576F726B62656E63680A5465737C
:0C11A80074652000204F4B212121000025
:0411B40031010008FD
:0411B8000D0100081D
:0C11BC00010000001000000000A24A0426
:04000005080010AD32
:00000001FF
