:020000040800F2
:10000000005000205D200008F51F0008F71F0008C1
:10001000F91F0008FB1F0008FD1F0008000000007A
:10002000000000000000000000000000FF1F0008AA
:10003000012000080000000003200008052000083F
:10004000A5200008A5200008A5200008A52000087C
:10005000A5200008A5200008A5200008A52000086C
:10006000A5200008A5200008A5200008A52000085C
:10007000A5200008A5200008A5200008A52000084C
:10008000A5200008A5200008A5200008A52000083C
:10009000A5200008A5200008A5200008A52000082C
:1000A000A5200008A5200008A5200008A52000081C
:1000B000A5200008A5200008A5200008A52000080C
:1000C000A5200008A5200008A5200008A5200008FC
:1000D000A5200008A5200008A5200008A5200008EC
:1000E000A5200008A5200008A520000800000000A9
:1000F0000000000000000000000000000000000000
:0C01000000000000000000005FF808F1A3
:10010C0010B5054C237833B9044B13B10448AFF345
:10011C0000800123237010BD0C00002000000000A3
:10012C00F02000080C4B43B10C4810B50C49AFF350
:10013C0000800C48036823B910BD0A48036833B922
:10014C007047094B002BF7D0BDE810401847064B01
:10015C00002BF5D0184700BF00000000F02000086D
:10016C00100000200C0000200000000080F0004077
:10017C0002E000BF81F0004142001FBF5FEA410373
:10018C0092EA030F7FEA226C7FEA236C6AD04FEA73
:10019C001262D2EB1363C1BFD218414048404140B8
:1001AC00B8BF5B42192B88BF704710F0004F40F46A
:1001BC00000020F07F4018BF404211F0004F41F486
:1001CC00000121F07F4118BF494292EA030F3FD052
:1001DC00A2F1010241FA03FC10EB0C00C3F1200365
:1001EC0001FA03F100F0004302D5494260EB4000F4
:1001FC00B0F5000F13D3B0F1807F06D340084FEA5F
:10020C00310102F10102FE2A51D2B1F1004F40EB53
:10021C00C25008BF20F0010040EA030070474900BB
:10022C0040EB000010F4000FA2F10102EDD1B0FA86
:10023C0080FCACF1080CB2EB0C0200FA0CF0AABF7B
:10024C0000EBC25052421843BCBFD0401843704719
:10025C0092F0000F81F4000106BF80F4000001321F
:10026C00013BB5E74FEA41037FEA226C18BF7FEAF6
:10027C00236C21D092EA030F04D092F0000F08BF38
:10028C000846704790EA010F1CBF0020704712F01F
:10029C007F4F04D1400028BF40F00040704712F15E
:1002AC0000723CBF00F50000704700F0004343F0C3
:1002BC00FE4040F4000070477FEA226216BF0846F9
:1002CC007FEA23630146420206BF5FEA412390EABC
:1002DC00010F40F4800070474FF0000304E000BFB2
:1002EC0010F0004348BF40425FEA000C08BF704763
:1002FC0043F0964301464FF000001CE050EA010227
:10030C0008BF70474FF000030AE000BF50EA01023B
:10031C0008BF704711F0004302D5404261EB410128
:10032C005FEA010C02BF84460146002043F0B6434D
:10033C0008BFA3F18053A3F50003BCFA8CF2083A72
:10034C00A3EBC25310DB01FA02FC634400FA02FC7B
:10035C00C2F12002BCF1004F20FA02F243EB020082
:10036C0008BF20F00100704702F1200201FA02FCE4
:10037C00C2F1200250EA4C0021FA02F243EB0200D7
:10038C0008BF20EADC7070474FF0FF0C1CEAD0521B
:10039C001EBF1CEAD15392EA0C0F93EA0C0F6FD0DC
:1003AC001A4480EA010C400218BF5FEA41211ED0BA
:1003BC004FF0006343EA501043EA5111A0FB0131A6
:1003CC000CF00040B1F5000F3EBF490041EAD3717B
:1003DC005B0040EA010062F17F02FD2A1DD8B3F1F7
:1003EC00004F40EBC25008BF20F00100704790F066
:1003FC00000F0CF0004C08BF49024CEA502040EAB8
:10040C0051207F3AC2BFD2F1FF0340EAC25070477D
:10041C0040F400004FF00003013A5DDC12F1190FBB
:10042C00DCBF00F000407047C2F10002410021FA2D
:10043C0002F1C2F1200200FA02FC5FEA310040F145
:10044C00000053EA4C0308BF20EADC70704792F0BE
:10045C00000F00F0004C02BF400010F4000F013AF6
:10046C00F9D040EA0C0093F0000F01F0004C02BFF1
:10047C00490011F4000F013BF9D041EA0C018FE760
:10048C000CEAD15392EA0C0F18BF93EA0C0F0AD066
:10049C0030F0004C18BF31F0004CD8D180EA01008C
:1004AC0000F00040704790F0000F17BF90F0004F25
:1004BC00084691F0000F91F0004F14D092EA0C0F07
:1004CC0001D142020FD193EA0C0F03D14B0218BF9A
:1004DC00084608D180EA010000F0004040F0FE40E0
:1004EC0040F40000704740F0FE4040F4400070477C
:1004FC004FF0FF0C1CEAD0521EBF1CEAD15392EAFB
:10050C000C0F93EA0C0F69D0A2EB030280EA010CEA
:10051C0049024FEA402037D04FF0805343EA111183
:10052C0043EA10130CF000408B4238BF5B0042F1E1
:10053C007D024FF4000C8B4224BF5B1A40EA0C0086
:10054C00B3EB510F24BFA3EB510340EA5C00B3EBB8
:10055C00910F24BFA3EB910340EA9C00B3EBD10FA6
:10056C0024BFA3EBD10340EADC001B0118BF5FEAF8
:10057C001C1CE0D1FD2A3FF650AF8B4240EBC25021
:10058C0008BF20F0010070470CF0004C4CEA5020E2
:10059C007F32C2BFD2F1FF0340EAC250704740F431
:1005AC0000004FF00003013A37E792F0000F00F023
:1005BC00004C02BF400010F4000F013AF9D040EAA1
:1005CC000C0093F0000F01F0004C02BF490011F435
:1005DC00000F013BF9D041EA0C0195E70CEAD1532D
:1005EC0092EA0C0F08D142027FF47DAF93EA0C0F14
:1005FC007FF470AF084676E793EA0C0F04D14B02F8
:10060C003FF44CAF08466EE730F0004C18BF31F0A9
:10061C00004CCAD130F000427FF45CAF31F00043A3
:10062C007FF43CAF5FE700BF4FF0FF3C06E000BF3C
:10063C004FF0010C02E000BF4FF0010C4DF804CD5F
:10064C004FEA40024FEA41037FEA226C18BF7FEA6F
:10065C00236C11D001B052EA530C18BF90EA010F71
:10066C0058BFB2EB030088BFC81738BF6FEAE17000
:10067C0018BF40F0010070477FEA226C02D15FEA9C
:10068C00402C05D17FEA236CE4D15FEA412CE1D008
:10069C005DF8040B704700BF844608466146FFE7CF
:1006AC000FB5FFF7C9FF002848BF10F1000F0FBDB1
:1006BC004DF808EDFFF7F4FF0CBF012000205DF8AA
:1006CC0008FB00BF4DF808EDFFF7EAFF34BF01202F
:1006DC0000205DF808FB00BF4DF808EDFFF7E0FFC8
:1006EC0094BF012000205DF808FB00BF4DF808ED19
:1006FC00FFF7D2FF94BF012000205DF808FB00BF7C
:10070C004DF808EDFFF7C8FF34BF012000205DF85D
:10071C0008FB00BF4FEA4002B2F1FE4F0FD34FF07F
:10072C009E03B3EB12620DD94FEA002343F0004352
:10073C0010F0004F23FA02F018BF404270474FF000
:10074C000000704712F1610F01D1420205D110F087
:10075C00004008BF6FF0004070474FF0000070473A
:10076C0042000ED2B2F1FE4F0BD34FF09E03B3EB0F
:10077C00126209D44FEA002343F0004323FA02F03B
:10078C0070474FF00000704712F1610F01D1420227
:10079C0002D14FF0FF3070474FF00000704700BFA0
:1007AC0010B504460E4B18784FF47A73B3FBF0F384
:1007BC000C4A1068B0FBF3F000F050FB68B90F2C3A
:1007CC0001D9012010BD002221464FF0FF3000F06E
:1007DC0013FB034B5C60002010BD012010BD00BF5B
:1007EC00000000200800002008B5074A136843F0F9
:1007FC0010031360032000F0EDFA0020FFF7D0FF88
:10080C0001F080FB002008BD00200240034A116863
:10081C00034B1B780B441360704700BF280000206B
:10082C0000000020014B1868704700BF2800002012
:10083C0038B50446FFF7F6FF0546B4F1FF3F02D08A
:10084C00044B1B781C44FFF7EDFF401B8442FAD885
:10085C0038BD00BF00000020F0B583B005460C4643
:10086C0000230193FFF7DEFF2B689A6812F4807F58
:10087C0023D106465A6812F4807F03D1DB6A13F445
:10088C00700F24D04B4B1F68022000F0A7FFB7FB62
:10089C00F0F72B681969484A11422FD1D96802F137
:1008AC005C4211422AD11969444A114239D1DA68A1
:1008BC00434B1A4237D029203AE0AB6A43F020036D
:1008CC00AB62002385F82430012003B0F0BD2B6807
:1008DC001B6813F0020F48D1B4F1FF3FF7D024B1DD
:1008EC00FFF7A0FF801B8442F1D2AB6A43F00403F4
:1008FC00AB62002385F824300320E6E719692F4A00
:10090C00114204D1D96802F16E4211420DD019691D
:10091C002C4A0A405AB9DA682A4B13405BB1FC20C6
:10092C0006E0292004E0142002E0542000E0FC2022
:10093C0007FB00F704E05420FAE7019B0133019315
:10094C00019B9F4211D9B4F1FF3FF6D024B1FFF7C0
:10095C0069FF801B8442F0D2AB6A43F00403AB62A4
:10096C00002385F824300320AFE72B686FF01202C8
:10097C001A60AB6A43F40073AB622B689B6803F498
:10098C006023B3F5602F01D000209EE7EB686BB9B4
:10099C00AB6A23F48073AB62AB6A13F4805F07D14C
:1009AC00AB6A43F00103AB6200208EE700208CE7BA
:1009BC0000208AE70800002024499224922449123E
:1009CC0092244900499224000368D86C70470000B7
:1009DC0030B482B00023019390F82430012B00F046
:1009EC008B800246012380F824304B68062B29D8D3
:1009FC000568686B03EB8303053B1F249C4020EACE
:100A0C0004000C6804FA03F303436B630B68092BB3
:100A1C0038D91568E86803EB43031E3B07249C4058
:100A2C0020EA04008C6804FA03F30343EB600B68C0
:100A3C00103B012B34D90020002382F8243002B063
:100A4C0030BC70470C2B0ED80568286B03EB830366
:100A5C00233B1F249C4020EA04000C6804FA03F397
:100A6C0003432B63D2E70568E86A03EB8303413B3E
:100A7C001F249C4020EA04000C6804FA03F303438F
:100A8C00EB62C3E71568286903EB430307249C401A
:100A9C0020EA04008C6804FA03F303432B61C6E7D5
:100AAC0013681648834205D0936A43F0200393627F
:100ABC000120C1E7986810F4000F1BD1986840F42E
:100ACC00000098600B68102B01D00020B4E70C4B91
:100ADC001B680C49A1FB03139B0C03EB830359000C
:100AEC00019102E0019B013B0193019B002BF9D189
:100AFC000020A1E700209FE70220A0E7002401408E
:100B0C000800002083DE1B43806A704730B583B039
:100B1C000023019303689A6812F0010F2ED19A6892
:100B2C0042F001029A60174B1B68174AA2FB032381
:100B3C009B0C019302E0019B013B0193019B002B59
:100B4C00F9D10446FFF76EFE054623689B6813F047
:100B5C00010F11D1FFF766FE401B0228F5D9A36ADD
:100B6C0043F01003A362E36A43F00103E362002342
:100B7C0084F82430012002E0002000E0002003B0C3
:100B8C0030BD00BF0800002083DE1B4390F82430EA
:100B9C00012B02D102231846704710B504460123DD
:100BAC0080F82430FFF7B2FF034600285BD1A26A1D
:100BBC0022F4407222F0010242F48072A262226896
:100BCC002B498A4227D0A16A21F48011A162516875
:100BDC0011F4806F05D0A16A21F4405141F4805189
:100BEC00A162A16A11F4805F2BD0E16A21F00601A9
:100BFC00E162002184F824106FF002011160226878
:100C0C00916801F46021B1F5602F1DD0916841F419
:100C1C00801191602AE0A1F58061496811F4702F70
:100C2C00D1D0A16A41F48011A1621249496811F432
:100C3C00806FD6D0A16A21F4405141F48051A16259
:100C4C00CFE70021E162D4E709498A4204D09168D8
:100C5C0041F4A001916009E0A1F58061496811F4AB
:100C6C00702FD3D1F3E7002284F82420184610BD4E
:100C7C00002801400024014038B503689A6812F03E
:100C8C00010F01D1002038BD04469A6822F0010200
:100C9C009A60FFF7C7FD054623689B6813F0010FA8
:100CAC000ED0FFF7BFFD401B0228F5D9A36A43F015
:100CBC001003A362E36A43F00103E362012038BD31
:100CCC00002038BD00287FD038B50446836A002B3D
:100CDC004AD02046FFF7D0FFA36A13F010036DD162
:100CEC0000286BD1A26A22F4885222F0020242F050
:100CFC000202A2626268E1690A43E56842EA4502BF
:100D0C00A168B1F5807F38D0012933D06169012900
:100D1C0036D02568696821F469410B436B60216802
:100D2C008D682A4B2B4013438B60A368B3F5807FEF
:100D3C0037D0012B35D000232568E96A21F47001E6
:100D4C000B43EB6223689968214B0B409A422CD0E1
:100D5C00A36A23F0120343F01003A362E36A43F087
:100D6C000103E362012038BDC36280F8243001F036
:100D7C0019F9AEE74FF48073C8E74FF48073C5E7F9
:100D8C0035B9A169013943EA413343F40063C0E743
:100D9C00A16A41F02001A162E16A41F00101E16226
:100DAC00B7E72369013B1B05C6E70023E362A36A8F
:100DBC0023F0030343F00103A36238BDA36A43F09D
:100DCC001003A362012038BD01207047FDF7E1FF3D
:100DDC00FE0E1FFF074AD36823F4E0631B041B0CB1
:100DEC00000200F4E060184340F0BF6040F40030B3
:100DFC00D060704700ED00E030B4164BDB68C3F3F5
:100E0C000223C3F10704042C28BF04241D1D062D46
:100E1C0017D9033B012505FA04F4013C2140994004
:100E2C0005FA03F3013B1340194300280BDB0901BE
:100E3C00C9B200F1604000F5614080F8001330BC8D
:100E4C0070470023E6E700F00F000901C9B2024B1E
:100E5C001954F4E700ED00E014ED00E00138B0F1B6
:100E6C00807F0AD2064B5860F021064A82F8231084
:100E7C000020986007221A6070470120704700BF5D
:100E8C0010E000E000ED00E0042805D0054A1368EE
:100E9C0023F0040313607047024A136843F0040301
:100EAC001360704710E000E0704708B5FFF7FCFFD7
:100EBC0008BD0000F0B583B00026344671E0002D6B
:100ECC0000F0A180012D00D1CE68FF2B00F2AF8085
:100EDC008646FF2B00F2AE80A500DEF800200F271F
:100EEC00AF4022EA070206FA05F52A43CEF80020A5
:100EFC004A6812F0805F53D0634A956945F001054A
:100F0C009561926902F001020192019AA508AF1C49
:100F1C005E4A52F8272004F00307BF004FF00F0E73
:100F2C000EFA07FE22EA0E02DFF870E1704500F0BF
:100F3C0088800EF5806E704500F086800EF5806E10
:100F4C00704500F084800EF5806E704576D04FF0C1
:100F5C00040E0EFA07F73A4302354C4F47F825209A
:100F6C004A6812F4803F75D0494D2A681A432A60AA
:100F7C004A6812F4003F73D0454D6A681A436A60A0
:100F8C004A6812F4801F71D0414DAA681A43AA60B6
:100F9C004A6812F4001F6FD03D4DEA681343EB60B2
:100FAC0001340F2C6ED80122A2400B6813409A42D8
:100FBC00F6D14D68122D30D00BD8022D2AD07FF6E9
:100FCC007EAF032D2FD0112D7FF47FAFCE6804366A
:100FDC007BE7304FBD4216D00CD92F4FBD4212D0FB
:100FEC0007F58037BD420ED0A7F58017BD427FF4C0
:100FFC006CAF08E0A7F58017BD4204D007F5803729
:10100C00BD427FF462AF8D687DB1012D08D0426185
:10101C0008265AE7CE68083657E7CE680C3654E7F0
:10102C000261082651E700264FE704264DE700F140
:10103C00040E4EE7A4F10805AD004EE74FF0030E89
:10104C0087E74FF0000E84E74FF0010E81E74FF079
:10105C00020E7EE70E4D2A6822EA03022A6087E719
:10106C000B4D6A6822EA03026A6089E7084DAA6898
:10107C0022EA0302AA608BE7054DEA6822EA030321
:10108C00EB608DE703B0F0BD0010024000000140A2
:10109C000004014000002110000031100008014044
:1010AC0012B90904016170470161704782B0084BA5
:1010BC001B68084AA2FB03235B0A00FB03F00190A8
:1010CC0000BF019B5A1E0192002BF9D102B0704750
:1010DC0008000020D34D621070B582B0044603683E
:1010EC0013F0010F3DD0AC4B5B6803F00C03042BE9
:1010FC002ED0A94B5B6803F00C03082B23D063683C
:10110C00B3F5803F51D0002B55D103F1804303F54B
:10111C0004331A6822F480321A601A6822F480228E
:10112C001A606368002B60D0FFF77CFB05469A4B76
:10113C001B6813F4003F14D1FFF774FB401B6428A9
:10114C00F5D90320AFE1944B5B6813F4803FD6D004
:10115C00914B1B6813F4003F03D06368002B00F025
:10116C009F81236813F0020F65D08B4B5B6813F0E3
:10117C000C0F4ED0884B5B6803F00C03082B43D04C
:10118C002369002B79D00122844B1A60FFF74AFBAC
:10119C000546814B1B6813F0020F65D1FFF742FB2C
:1011AC00401B0228F5D903207DE17B4A136843F4E8
:1011BC0080331360B5E7B3F5A02F09D0764B1A68CE
:1011CC0022F480321A601A6822F480221A60A8E78E
:1011DC0003F18043A3F53C331A6842F480221A6071
:1011EC001A6842F480321A609BE7FFF71BFB054636
:1011FC00694B1B6813F4003FB3D0FFF713FB401B84
:10120C006428F5D903204EE1634B5B6813F4803FEF
:10121C00B6D1614B1B6813F0020F04D02369012B6C
:10122C0001D001203FE15C4A136823F0F8036169A7
:10123C0043EAC1031360236813F0080F32D0A3698B
:10124C00002B6ED00122564B1A60FFF7EBFA0546C5
:10125C00514B5B6A13F0020F21D1FFF7E3FA401BED
:10126C000228F5D903201EE14B4A136823F0F8033A
:10127C00616943EAC1031360DDE70022474B1A6042
:10128C00FFF7D0FA0546444B1B6813F0020FD2D07F
:10129C00FFF7C8FA401B0228F5D9032003E101200F
:1012AC00FFF704FF236813F0040F00F099803A4B0A
:1012BC00DB6913F0805F46D1374BDA6942F080521C
:1012CC00DA61DB6903F080530193019B0125354BF7
:1012DC001B6813F4807F38D0E368012B49D0002BB6
:1012EC004DD103F1804303F504331A6A22F0010255
:1012FC001A621A6A22F004021A62E368002B5DD0AB
:10130C00FFF790FA0646244B1B6A13F0020F66D1C6
:10131C00FFF788FA801B41F288339842F3D90320F7
:10132C00C1E000221E4B1A60FFF77CFA05461A4BEF
:10133C005B6A13F0020FB5D0FFF774FA401B02285A
:10134C00F5D90320AFE00025C1E7164A136843F432
:10135C0080731360FFF766FA0646124B1B6813F492
:10136C00807FB9D1FFF75EFA801B6428F5D9032082
:10137C0099E0094A136A43F001031362BDE7052B98
:10138C0012D0054B1A6A22F001021A621A6A22F074
:10139C0004021A62B1E700BF001002400000424292
:1013AC008004424200700040414B1A6A42F0040231
:1013BC001A621A6A42F001021A629EE7FFF732FAC9
:1013CC0006463B4B1B6A13F0020F08D0FFF72AFAB4
:1013DC00801B41F288339842F3D9032063E0E5B9CE
:1013EC00E369002B5ED0324A526802F00C02082AE4
:1013FC005BD0022B17D000222E4B1A60FFF712FA8B
:10140C0004462B4B1B6813F0007F47D0FFF70AFAFA
:10141C00001B0228F5D9032045E0254AD36923F0A7
:10142C008053D361DCE70022224B1A60FFF7FAF9F4
:10143C0005461F4B1B6813F0007F06D0FFF7F2F92F
:10144C00401B0228F5D903202DE0236AB3F5803F19
:10145C001AD017494B6823F47413226A606A02434A
:10146C0013434B600122134B1A60FFF7DBF9044660
:10147C000F4B1B6813F0007F0ED1FFF7D3F9001B45
:10148C000228F5D903200EE0094A536823F40033EF
:10149C00A1680B435360DCE7002004E0002002E06D
:1014AC00012000E0002002B070BD0120FBE700BF6E
:1014BC00001002406000424210B586B0154C94E812
:1014CC000F000DF1180E0EE90F00238AADF8043051
:1014DC00114B5B6803F00C02082A18D1C3F383424A
:1014EC00724412F8102C13F4803F03D10B4800FB0C
:1014FC0002F00DE0084B5B68C3F34043734413F8F0
:10150C00143C074800FB02F0B0FBF3F000E0044889
:10151C0006B010BD082100080010024000093D0073
:10152C0000127A00594B1B6803F007038B420CD254
:10153C00564A136823F007030B431360136803F038
:10154C000703994201D00120704770B5036813F06E
:10155C00020F06D04E4A536823F0F00384682343ED
:10156C0053600D460446036813F0010F52D04368D4
:10157C00012B23D0022B28D0454A126812F0020FFF
:10158C0000F0828042494A6822F0030213434B6008
:10159C00FFF748F906466368012B1DD0022B2AD0B1
:1015AC003B4B5B6813F00C0F34D0FFF73BF9801BFF
:1015BC0041F288339842F3D9032070BD344A126843
:1015CC0012F4003FDED1012070BD314A126812F0D6
:1015DC00007FD7D1012070BD2D4B5B6803F00C034D
:1015EC00042B17D0FFF71EF9801B41F28833984269
:1015FC00F2D9032070BD264B5B6803F00C03082B5B
:10160C0008D0FFF70FF9801B41F288339842F2D9CA
:10161C00032070BD1D4B1B6803F007039D420CD2C9
:10162C001A4A136823F007032B431360136803F063
:10163C0007039D4201D0012070BD236813F0040FF5
:10164C0006D0134A536823F4E063E1680B435360FC
:10165C00236813F0080F07D00D4A536823F4605326
:10166C00216943EAC1035360FFF726FF084B5B680F
:10167C00C3F30313074AD35CD840074B1860002010
:10168C00FFF78EF8002070BD012070BD00200240D5
:10169C00001002403021000808000020014B18689F
:1016AC00704700BF0800002008B5FFF7F7FF044B98
:1016BC005B68C3F3C223034AD35CD84008BD00BFA8
:1016CC00001002404021000870B582B00446036847
:1016DC0013F0010F34D03E4BDB6913F0805F48D11F
:1016EC003B4BDA6942F08052DA61DB6903F08053DC
:1016FC000193019B0125374B1B6813F4807F3AD073
:10170C00334B1B6A13F4407311D0626802F44072BD
:10171C0093420CD02E4A136A23F440702E490126B2
:10172C000E6000260E60106213F0010F37D1284AAC
:10173C00136A23F4407361680B431362002D3FD18D
:10174C00236813F0020F06D0214A536823F4404358
:10175C00A1680B435360236813F0100F35D01C4A5B
:10176C00536823F48003E1680B435360002002B0FC
:10177C0070BD0025BFE7174A136843F480731360EC
:10178C00FFF750F80646134B1B6813F4807FB7D154
:10179C00FFF748F8801B6428F5D90320E7E7FFF72B
:1017AC0041F806460A4B1B6A13F0020FBFD1FFF734
:1017BC0039F8801B41F288339842F3D90320D6E7DD
:1017CC00D36923F08053D361BAE70020CFE700BF81
:1017DC0000100240007000404004424230B587B017
:1017EC000546384C94E80F000DF1180E0EE90F0069
:1017FC00238AADF80430022D53D0102D03D0012DC7
:10180C002BD0002057E0304B5A681B6813F0807FB8
:10181C0053D0C2F3834306A90B4413F8100C12F4F3
:10182C00803F16D0284B5B68C3F340430B4413F83E
:10183C00142C264BB3FBF2F303FB00F0224B5B683A
:10184C0013F4800F37D14000214BA3FB003040082C
:10185C0031E0204B03FB00F0F0E71B4B1B6A40F21E
:10186C0002321A40B2F5817F29D003F44073B3F5EC
:10187C00007F04D0B3F5407F09D000201BE0124A52
:10188C00526A12F0020FF5D049F6404013E00E4BAD
:10189C001B6813F4003F02D04FF224400BE00020F1
:1018AC0009E0FFF701FF084B5B68C3F38133013399
:1018BC005B00B0FBF3F007B030BD0020FBE74FF44A
:1018CC000040F8E71C2100080010024000127A00CA
:1018DC00ABAAAAAA00093D0082B00190094B1B6873
:1018EC00094AA2FB03239B0C019A02FB03F301930D
:1018FC0002E0019B013B0193019B002BF9D102B04B
:10190C00704700BF0800002083DE1B4310B5064C57
:10191C00E36843F02003E3600120FFF7DDFFE36899
:10192C0023F02003E36010BD000C014010F0800F89
:10193C001DD11B4AD36823F40043D36010F0400F31
:10194C001BD0174AD36843F48043D36010F0200FA8
:10195C0019D0134AD36843F40053D36010F0100F1E
:10196C0017D10F4AD36823F48053D36070470C4AC5
:10197C00D36843F40043D360E0E7094AD36823F407
:10198C008043D360E2E7064AD36823F40053D36064
:10199C00E4E7034AD36843F48053D360704700BF35
:1019AC00000C014010F0080F1DD01B4AD36843F403
:1019BC000043D36010F0040F1BD0174AD36843F4D4
:1019CC008043D36010F0020F19D0134AD36843F44C
:1019DC000053D36010F0010F17D10F4AD36823F4D2
:1019EC008053D36070470C4AD36823F40043D36010
:1019FC00E0E7094AD36823F48043D360E2E7064A60
:101A0C00D36823F40053D360E4E7034AD36843F468
:101A1C008053D360704700BF000C014010B50446E2
:101A2C00FFF784FFFFF772FF2046FFF7BBFFFFF7BE
:101A3C006DFF0520FFF750FF10BD000010B50446E8
:101A4C000C4AD36823F01003D360FFF76FFFFFF746
:101A5C005DFF0520FFF740FFFFF758FF0520FFF75C
:101A6C003BFF2046FFF79EFFFFF750FF0520FFF7D7
:101A7C0033FF10BD000C0140012304E003EB830293
:101A8C0053000138C0B20028F8D118467047000046
:101A9C0008B5064AD36823F01003D3600120FFF782
:101AAC00BDFFC820FFF718FF08BD00BF000C0140A8
:101ABC0008B5064AD36823F01003D3600220FFF761
:101ACC00ADFFC820FFF708FF08BD00BF000C0140A8
:101ADC0008B5094AD36823F01003D3603C2802D020
:101AEC003E2804D008BD1020FFF798FF08BD142035
:101AFC00FFF794FF08BD00BF000C014008B5134A66
:101B0C00D36823F01003D360013804281CD8DFE815
:101B1C0000F003080D12170041F08000FFF77EFF64
:101B2C0008BD41F0C000FFF779FF08BD41F09000FF
:101B3C00FFF774FF08BD41F0D000FFF76FFF08BD41
:101B4C0041F04000FFF76AFF08BD00BF000C0140E8
:101B5C0008B5044AD36823F01003D360FFF75EFF87
:101B6C0008BD00BF000C014008B5054AD36843F01E
:101B7C001003D360FFF752FF0120FFF7ADFE08BD45
:101B8C00000C014038B505460FE000210220FFF79C
:101B9C00B5FF09E0FFF78CFF06E03E20FFF798FF4A
:101BAC000134E4B2032CF8D90135287850B10A2855
:101BBC00EBD00D28EED0092802D0FFF7D5FFF3E7C4
:101BCC000024EFE738BD000038B5051E01DB012409
:101BDC0007E02D20FFF7C8FF6D42F8E704EB840304
:101BEC005C0095FBF4F00928F8DC3030C0B2FFF74C
:101BFC00BBFF0E4B83FB0423E417C4EBA30412E0DE
:101C0C0004EB8402530095FBF3F003FB105090FBA4
:101C1C00F4F03030C0B2FFF7A7FF044B83FB042372
:101C2C00E417C4EBA304002CEADC38BD67666666D7
:101C3C00D9B170B50646481EC0B2FFF71DFF054668
:101C4C0010E0B6FBF5F2094CA4FB0230C00800EB27
:101C5C0080004300D01A3030C0B2FFF785FFA4FBE0
:101C6C000534E508002DECD170BD7047CDCCCCCC43
:101C7C0038B504460D460021FEF724FD30B9204648
:101C8C00FEF748FDFFF7A0FF35B938BD2D20FFF753
:101C9C006BFF04F10044F2E72E20FFF765FF2846A6
:101CAC00FFF7EAFEFEF718FB01462046FEF76CFB39
:101CBC00FEF756FD2946FFF7BBFFE6E708B53020D7
:101CCC00FFF7ACFE4FF4C870FFF706FE3020FFF7AD
:101CDC00A5FE4FF4C870FFF7FFFD2820FFF7AEFEFE
:101CEC000C20FFF735FF0620FFF732FFFFF7D0FE81
:101CFC00FFF7DEFE08BD000010B588B0184B9A69DE
:101D0C0042F020029A619A6902F020020192019A33
:101D1C009A6942F004029A619A6902F004020292F2
:101D2C00029A9A6942F008029A619B6903F00803CF
:101D3C000393039B0B4C00224FF230012046FFF71C
:101D4C00AFF94FF23003049301230593002306935C
:101D5C000223079304A92046FFF7ACF808B010BD86
:101D6C0000100240000C0140FEE7000000B585B0F9
:101D7C001248134B036000238360C36043614FF42C
:101D8C006022C261436001230361FEF79BFF60B9CF
:101D9C000023019301220292039301A90748FEF745
:101DAC0017FE30B905B05DF804FBD3210548FFF7E9
:101DBC00DBFFDD210348FFF7D7FF00BF2C0000201D
:101DCC00002401404821000800B595B001220A9278
:101DDC004FF480330B9300210C910E92022211923E
:101DEC0012934FF4E01313930AA8FFF775F950BB45
:101DFC000F23059302210691002307934FF4806271
:101E0C000892099305A8FFF78DFB00BB02230193F1
:101E1C004FF40043039301A8FFF756FCD8B9FFF722
:101E2C003DFC0F4BA3FB00308009FFF717F8042093
:101E3C00FFF72AF8002211464FF0FF30FEF7DCFFC7
:101E4C0015B05DF804FB9E210648FFF78DFFAC2111
:101E5C000448FFF789FFB3210248FFF785FF00BF55
:101E6C00D34D62104821000810B5FEF7BDFCFFF7FA
:101E7C00ABFFFFF741FFFFF779FF6420FEF7D8FCBB
:101E8C00FFF71CFF03E04FF47A70FEF7D1FCFFF76D
:101E9C00FFFD00210120FFF731FE1648FFF772FE0F
:101EAC00154C2046FEF772FE32212046FEF7D4FC7C
:101EBC002046FEF729FE10F4007FE4D02046FEF702
:101ECC0083FD84B22046FFF77FFE0B210220FFF733
:101EDC0015FE2046FEF704FA0849FEF755FA4FF0B6
:101EEC006651FEF751FA0221FFF7C2FE0448FFF7D4
:101EFC0049FEC8E7582100082C000020333353401A
:101F0C006C21000800B583B0244B9A6942F00102A1
:101F1C009A619A6902F001020092009ADA6942F021
:101F2C008052DA61DB6903F080530193019B03203B
:101F3C00FEF750FF002211466FF00B00FEF75CFF1E
:101F4C00002211466FF00A00FEF756FF00221146E0
:101F5C006FF00900FEF750FF002211466FF00400ED
:101F6C00FEF74AFF002211466FF00300FEF744FF14
:101F7C00002211466FF00100FEF73EFF00221146D1
:101F8C004FF0FF30FEF738FF054A536823F0E0634B
:101F9C0043F00073536003B05DF804FB0010024083
:101FAC000000014002680E4B9A4200D0704700B509
:101FBC0087B003F56C439A6942F400729A619B698D
:101FCC0003F400730193019B0123029303230393F6
:101FDC0002A90448FEF76EFF07B05DF804FB00BFD2
:101FEC0000240140000801407047FEE7FEE7FEE7D1
:101FFC00FEE770477047704708B5FEF707FCFEF721
:10200C0054FF08BD0F4B1A6842F001021A60596860
:10201C000D4A0A405A601A6822F0847222F4803207
:10202C001A601A6822F480221A605A6822F4FE029E
:10203C005A604FF41F029A604FF00062034B9A6093
:10204C00704700BF001002400000FFF800ED00E0F8
:10205C00002103E00B4B5B58435004310A480B4BF7
:10206C0042189A42F6D30A4A02E0002342F8043B93
:10207C00084B9A42F9D3FFF7C5FF00F00FF8FFF7B2
:10208C00F3FE704778210008000000200C000020AF
:10209C000C0000205C000020FEE7000070B500255D
:1020AC000C4E0D4CA41BA410A54209D100F01AF83B
:1020BC0000250A4E0A4CA41BA410A54205D170BDE4
:1020CC0056F8253098470135EEE756F825309847F5
:1020DC000135F2E77021000870210008702100081A
:1020EC0074210008F8B500BFF8BC08BC9E467047C8
:0C20FC00F8B500BFF8BC08BC9E46704759
:1021080002030405060708090A0B0C0D0E0F101030
:102118000102000002030405060708090A0B0C0D5A
:102128000E0F101001020000000000000000000067
:102138000102030406070809000000000102030465
:102148002E2E2F5372632F6D61696E2E630000006F
:10215800436F6E766572736F7220414443310A494A
:082168004E303D00560000005E
:042170003101000831
:042174000D01000851
:0C217800010000001000000000A24A045A
:040000050800205D72
:00000001FF
