:020000040800F2
:1000000000500020352A00084D2900085929000811
:100010005F290008652900086B290008000000001E
:10002000000000000000000000000000712900082E
:100030007D29000800000000892900089529000892
:100040007D2A00087D2A00087D2A00087D2A0008F4
:100050007D2A00087D2A00087D2A00087D2A0008E4
:100060007D2A00087D2A00087D2A0008A5290008AD
:100070007D2A00087D2A00087D2A00087D2A0008C4
:100080007D2A00087D2A0008B92900087D2A000879
:100090007D2A00087D2A00087D2A00087D2A0008A4
:1000A0007D2A00087D2A00087D2A00087D2A000894
:1000B0007D2A00087D2A00087D2A00087D2A000884
:1000C0007D2A00087D2A00087D2A00087D2A000874
:1000D0007D2A00087D2A00087D2A00087D2A000864
:1000E0007D2A00087D2A00087D2A00080000000003
:1000F0000000000000000000000000000000000000
:0C01000000000000000000005FF808F1A3
:10010C0010B5054C237833B9044B13B10448AFF345
:10011C0000800123237010BD0C00002000000000A3
:10012C00C82A000808B5034B1BB103490348AFF3B9
:10013C00008008BD0000000010000020C82A000844
:10014C0080B500AF084B1B68074A43F010031360DF
:10015C00032000F089FE002000F008F802F030FBCC
:10016C000023184680BD00BF0020024080B582B03D
:10017C0000AF7860124B1A68124B1B7819464FF47B
:10018C007A73B3FBF1F3B2FBF3F3184600F0A1FE64
:10019C000346002B01D001230EE07B680F2B0AD8FD
:1001AC00002279684FF0FF3000F069FE064A7B6848
:1001BC001360002300E0012318460837BD4680BDBC
:1001CC0008000020040000200000002080B400AFD4
:1001DC00054B1B781A46054B1B681344034A1360E6
:1001EC0000BFBD4680BC70470400002028000020E2
:1001FC0080B400AF024B1B681846BD4680BC7047EC
:10020C002800002080B584B000AF7860FFF7F0FFC5
:10021C00B8607B68FB60FB68B3F1FF3F05D0094B0E
:10022C001B781A46FB681344FB6000BFFFF7E0FF26
:10023C000246BB68D31AFA689A42F7D800BF103747
:10024C00BD4680BD0400002080B586B000AF78604C
:10025C000023FB7500233B610023BB600023FB6084
:10026C007B68002B01D10123BEE07B689B68002BCF
:10027C007B689B6A002B09D17B680022DA627B6861
:10028C00002283F82420786802F0F8FA786800F0ED
:10029C0079FC0346FB757B689B6A03F01003002B0B
:1002AC0040F09980FB7D002B40F095807B689B6A29
:1002BC0023F4885323F0020343F002027B689A6212
:1002CC007B685A687B68DB691A437B68DB685B0078
:1002DC001343BA681343BB607B689B68B3F5807F9C
:1002EC0003D07B689B68012B02D14FF4807300E034
:1002FC0000233A6913433B617B685B69012B19D17D
:10030C007B68DB68002B09D17B689B69013B5A0336
:10031C003B69134343F400633B610BE07B689B6ACE
:10032C0043F020027B689A627B68DB6A43F001022F
:10033C007B68DA627B681B685B6823F469417B68C5
:10034C001B683A690A435A607B681B689A68284B99
:10035C0013407A681268B9680B4393607B689B689A
:10036C00B3F5807F03D07B689B68012B04D17B683D
:10037C001B69013B1B05FB607B681B68DB6A23F474
:10038C0070017B681B68FA680A43DA627B681B6839
:10039C009A68184B1340BA689A420BD17B680022BA
:1003AC00DA627B689B6A23F0030343F001027B68EB
:1003BC009A6218E07B689B6A23F0120343F01002E8
:1003CC007B689A627B68DB6A43F001027B68DA62C5
:1003DC000123FB7507E07B689B6A43F010027B6886
:1003EC009A620123FB75FB7D18461837BD4680BD0C
:1003FC00FDF7E1FFFE0E1FFF80B584B000AF786003
:10040C000023FB737B6893F82430012B01D102236A
:10041C00A0E07B68012283F82420786800F060FB60
:10042C000346FB73FB7B002B40F08F807B689B6A41
:10043C0023F4706323F0010343F480727B689A62A7
:10044C007B681B68454A934205D1454B5B6803F4B6
:10045C007023002B15D17B689B6A23F480127B6878
:10046C009A627B681B685B6803F48063002B26D060
:10047C007B689B6A23F4405343F480527B689A62F6
:10048C001DE07B689B6A43F480127B689A627B68F0
:10049C001B68334A934204D07B681B682F4A9342F3
:1004AC000DD12F4B5B6803F48063002B07D07B6866
:1004BC009B6A23F4405343F480527B689A627B68B6
:1004CC009B6A03F48053002B06D07B68DB6A23F015
:1004DC0006027B68DA6202E07B680022DA627B68E3
:1004EC00002283F824207B681B686FF002021A60DC
:1004FC007B681B685A687B681B6842F020025A6054
:10050C007B681B689B6803F46023B3F5602F13D1E1
:10051C007B681B68114A934205D1114B5B6803F44D
:10052C007023002B08D17B681B689A687B681B685A
:10053C0042F4A0029A600CE07B681B689A687B68A6
:10054C001B6842F480129A6003E07B68002283F8F7
:10055C002420FB7B18461037BD4680BD0028014087
:10056C000024014080B586B000AFF860B9607A60B5
:10057C000023FB75FB681B68644A934204D0FB683C
:10058C001B68634A934206D1604B5B6803F470238B
:10059C00002B40F0B380FB6893F82430012B01D181
:1005AC000223AEE0FB68012283F82420F86800F0F7
:1005BC0097FA0346FB75FB7D002B40F09A80FB6895
:1005CC009B6A23F4706323F0010343F48072FB688D
:1005DC009A62FB681B684E4A934205D14B4B5B6891
:1005EC0003F47023002B15D1FB689B6A23F4801253
:1005FC00FB689A62FB681B685B6803F48063002BE2
:10060C0026D0FB689B6A23F4405343F48052FB686A
:10061C009A621DE0FB689B6A43F48012FB689A6245
:10062C00FB681B68394A934204D0FB681B68384A44
:10063C0093420DD1354B5B6803F48063002B07D0DC
:10064C00FB689B6A23F4405343F48052FB689A6224
:10065C00FB689B6A03F48053002B06D0FB68DB6AB3
:10066C0023F00602FB68DA6202E0FB680022DA6221
:10067C00FB68002283F82420FB681B6A254A9A62D7
:10068C00FB681B6A244ADA62FB681B6A234A1A63FA
:10069C00FB681B686FF002021A60FB681B689A68A3
:1006AC00FB681B6842F480729A60FB68186AFB68EE
:1006BC001B684C331946BA687B6800F0A5FCFB68D4
:1006CC001B689B6803F46023B3F5602F08D1FB68AB
:1006DC001B689A68FB681B6842F4A0029A600FE0E2
:1006EC00FB681B689A68FB681B6842F480129A606E
:1006FC0006E0FB68002283F8242001E00123FB754F
:10070C00FB7D18461837BD4680BD00BF0024014054
:10071C0000280140050C0008810C00089D0C000805
:10072C0080B582B000AF78607B681B685B6803F0B3
:10073C002003202B40D17B681B681B6803F002034D
:10074C00022B39D17B689B6A03F01003002B05D177
:10075C007B689B6A43F400727B689A627B681B68B7
:10076C009B6803F46023B3F5602F1DD17B68DB68B5
:10077C00002B19D17B681B685A687B681B6822F0B8
:10078C0020025A607B689B6A23F480727B689A62B1
:10079C007B689B6A03F48053002B05D17B689B6AB2
:1007AC0043F001027B689A62786800F07CF87B6801
:1007BC001B686FF012021A607B681B685B6803F0A1
:1007CC008003802B4FD17B681B681B6803F00403EC
:1007DC00042B48D17B689B6A03F01003002B05D1D6
:1007EC007B689B6A43F400527B689A627B681B6847
:1007FC009B6803F4E043B3F5E04F12D07B681B68B1
:10080C005B6803F48063002B25D17B681B689B68B5
:10081C0003F46023B3F5602F1DD17B68DB68002BDC
:10082C0019D17B681B685A687B681B6822F08002B0
:10083C005A607B689B6A23F480527B689A627B685F
:10084C009B6A03F48073002B05D17B689B6A43F091
:10085C0001027B689A62786800F034FA7B681B6846
:10086C006FF00C021A607B681B685B6803F0400336
:10087C00402B14D17B681B681B6803F00103012B10
:10088C000DD17B689B6A43F480327B689A627868EE
:10089C0000F01BF87B681B686FF001021A6000BF48
:1008AC000837BD4680BD80B483B000AF786000BF10
:1008BC000C37BD4680BC704780B483B000AF786005
:1008CC0000BF0C37BD4680BC704780B483B000AF0E
:1008DC00786000BF0C37BD4680BC704780B483B0D5
:1008EC0000AF786000BF0C37BD4680BC704700007D
:1008FC0080B485B000AF786039600023FB730023AF
:10090C00BB607B6893F82430012B01D10223DCE01F
:10091C007B68012283F824203B685B68062B1CD87B
:10092C007B681B68596B3B685A6813469B001344E1
:10093C00053B1F2202FA03F3DB4319403B6818689E
:10094C003B685A6813469B001344053B00FA03F2BC
:10095C007B681B680A435A633CE03B685B680C2B62
:10096C001CD87B681B68196B3B685A6813469B0044
:10097C001344233B1F2202FA03F3DB4319403B6869
:10098C0018683B685A6813469B001344233B00FAD3
:10099C0003F27B681B680A431A631BE07B681B68C5
:1009AC00D96A3B685A6813469B001344413B1F228B
:1009BC0002FA03F3DB4319403B6818683B685A683A
:1009CC0013469B001344413B00FA03F27B681B68FF
:1009DC000A43DA623B681B68092B1CD97B681B68CD
:1009EC00D9683B681A6813465B0013441E3B072208
:1009FC0002FA03F3DB4319403B6898683B681A68BA
:100A0C0013465B0013441E3B00FA03F27B681B6821
:100A1C000A43DA6019E07B681B6819693B681A683D
:100A2C0013465B001344072202FA03F3DB4319401D
:100A3C003B6898683B681A6813465B00134400FADD
:100A4C0003F27B681B680A431A613B681B68102B16
:100A5C0003D03B681B68112B32D17B681B681D4A85
:100A6C00934225D17B681B689B6803F40003002B21
:100A7C0026D17B681B689A687B681B6842F400026D
:100A8C009A603B681B68102B1AD1134B1B68134AD6
:100A9C00A2FB03239A0C13469B0013445B00BB6020
:100AAC0002E0BB68013BBB60BB68002BF9D107E0DF
:100ABC007B689B6A43F020027B689A620123FB737C
:100ACC007B68002283F82420FB7B18461437BD4634
:100ADC0080BC7047002401400800002083DE1B43CB
:100AEC0080B584B000AF78600023FB600023BB604E
:100AFC007B681B689B6803F00103012B39D07B6872
:100B0C001B689A687B681B6842F001029A601B4B59
:100B1C001B681B4AA2FB03239B0CBB6002E0BB6857
:100B2C00013BBB60BB68002BF9D1FFF761FBF860A0
:100B3C0018E0FFF75DFB0246FB68D31A022B11D9B4
:100B4C007B689B6A43F010027B689A627B68DB6A65
:100B5C0043F001027B68DA627B68002283F8242070
:100B6C00012307E07B681B689B6803F00103012BE2
:100B7C00DFD1002318461037BD4680BD0800002089
:100B8C0083DE1B4380B584B000AF78600023FB602C
:100B9C007B681B689B6803F00103012B27D17B68E2
:100BAC001B689A687B681B6822F001029A60FFF749
:100BBC001FFBF86014E0FFF71BFB0246FB68D31A1F
:100BCC00022B0DD97B689B6A43F010027B689A62FA
:100BDC007B68DB6A43F001027B68DA62012307E081
:100BEC007B681B689B6803F00103012BE3D0002397
:100BFC0018461037BD4680BD80B584B000AF786014
:100C0C007B685B6AFB60FB689B6A03F05003002BFC
:100C1C0027D1FB689B6A43F40072FB689A62FB68FD
:100C2C001B689B6803F46023B3F5602F15D1FB6838
:100C3C00DB68002B11D1FB689B6A23F48072FB6884
:100C4C009A62FB689B6A03F48053002B05D1FB6806
:100C5C009B6A43F00102FB689A62F868FFF723FE77
:100C6C0004E0FB681B6A1B6B7868984700BF103761
:100C7C00BD4680BD80B584B000AF78607B685B6A90
:100C8C00FB60F868FFF718FE00BF1037BD4680BD4B
:100C9C0080B584B000AF78607B685B6AFB60FB68F2
:100CAC009B6A43F04002FB689A62FB68DB6A43F084
:100CBC000402FB68DA62F868FFF710FE00BF103719
:100CCC00BD4680BD80B483B000AF786000BF0C37E8
:100CDC00BD4680BC7047000080B485B000AF786022
:100CEC007B6803F00703FB600C4BDB68BB60BA68E6
:100CFC004FF6FF031340BB60FB681A02BB6813433B
:100D0C0043F0BF6343F40033BB60044ABB68D36059
:100D1C0000BF1437BD4680BC704700BF00ED00E03B
:100D2C0080B400AF044BDB681B0A03F007031846C2
:100D3C00BD4680BC704700BF00ED00E080B483B0BE
:100D4C0000AF0346FB71FB7903F01F02064997F9CC
:100D5C0007305B09012000FA02F241F8232000BFA2
:100D6C000C37BD4680BC704700E100E080B483B016
:100D7C0000AF03463960FB7197F90730002B0BDA93
:100D8C003B68DAB20C49FB7903F00F03043B120108
:100D9C00D2B20B441A7609E03B68DAB2074997F9EC
:100DAC0007301201D2B20B4483F8002300BF0C377A
:100DBC00BD4680BC704700BF00ED00E000E100E0E4
:100DCC0080B489B000AFF860B9607A60FB6803F05A
:100DDC000703FB61FB69C3F10703042B28BF042342
:100DEC00BB61FB690433062B02D9FB69033B00E0B2
:100DFC0000237B614FF0FF32BB6902FA03F3DA4345
:100E0C00BB681A407B699A404FF0FF317B6901FA4D
:100E1C0003F3D9437B680B40134318462437BD4674
:100E2C0080BC704780B582B000AF78607B68013BB6
:100E3C00B3F1807F01D301230FE00A4A7B68013BA9
:100E4C0053600F214FF0FF30FFF790FF054B00224E
:100E5C009A60044B07221A60002318460837BD46D7
:100E6C0080BD00BF10E000E080B582B000AF7860BC
:100E7C007868FFF731FF00BF0837BD4680BD80B5ED
:100E8C0086B000AF0346B9607A60FB7300237B61C8
:100E9C00FFF746FF78617A68B9687869FFF790FFC9
:100EAC00024697F90F3011461846FFF75FFF00BF57
:100EBC001837BD4680BD80B582B000AF0346FB71CC
:100ECC0097F907301846FFF739FF00BF0837BD46C2
:100EDC0080BD80B582B000AF78607868FFF7A2FF64
:100EEC00034618460837BD4680BD000080B483B069
:100EFC0000AF78607B68042B06D1094B1B68084A4D
:100F0C0043F00403136005E0054B1B68044A23F00F
:100F1C000403136000BF0C37BD4680BC704700BF94
:100F2C0010E000E080B500AF00F002F800BF80BD1B
:100F3C0080B400AF00BFBD4680BC704780B485B0A4
:100F4C0000AF78600023FB607B68002B01D101238C
:100F5C004FE07B681B681A46284B1344284AA2FBB7
:100F6C0003231B099A007B681A647B68254ADA63A1
:100F7C007B68022283F821207B681B681B68FB605E
:100F8C00FB6823F47F5323F03003FB607B685A68C3
:100F9C007B689B681A437B68DB681A437B681B6918
:100FAC001A437B685B691A437B689B691A437B68AD
:100FBC00DB691343FA681343FB607B681B68FA68B0
:100FCC001A607B6800229A627B680022DA627B6876
:100FDC0000221A637B6800225A637B6800229A63A2
:100FEC007B68012283F821207B68002283F8202073
:100FFC00002318461437BD4680BC7047F8FFFDBF70
:10100C00CDCCCCCC0000024080B586B000AFF860EF
:10101C00B9607A603B600023FB75FB6893F8203065
:10102C00012B01D102234AE0FB68012283F8202026
:10103C00FB6893F82130012B3AD1FB68022283F82C
:10104C002120FB6800229A63FB681B681A68FB6806
:10105C001B6822F001021A603B687A68B968F8686C
:10106C0000F038F9FB68DB6A002B08D0FB681B68C2
:10107C001A68FB681B6842F00E021A600FE0FB68EE
:10108C001B681A68FB681B6822F004021A60FB6874
:10109C001B681A68FB681B6842F00A021A60FB683E
:1010AC001B681A68FB681B6842F001021A6005E0B5
:1010BC00FB68002283F820200223FB75FB7D184679
:1010CC001837BD4680BD000080B584B000AF786095
:1010DC007B68DB6B1B68FB607B681B681B68BB60F9
:1010EC007B681B6C04229A40FB681340002B4FD08A
:1010FC00BB6803F00403002B4AD07B681B681B6899
:10110C0003F02003002B07D17B681B681A687B68EF
:10111C001B6822F004021A607B681B68664A9342C3
:10112C0029D07B681B68654A934222D07B681B6878
:10113C00634A93421AD07B681B68624A934212D06E
:10114C007B681B68604A93420AD07B681B685F4AC5
:10115C00934202D14FF480030EE04FF080630BE01A
:10116C004FF4802308E04FF4804305E04FF4806394
:10117C0002E0402300E00423554A53607B68DB6A9D
:10118C00002B00F094807B68DB6A786898478EE0CF
:10119C007B681B6C02229A40FB681340002B56D0D4
:1011AC00BB6803F00203002B51D07B681B681B68E3
:1011BC0003F02003002B0BD17B681B681A687B683B
:1011CC001B6822F00A021A607B68012283F8212036
:1011DC007B681B68384A934229D07B681B68374A66
:1011EC00934222D07B681B68354A93421AD07B68A5
:1011FC001B68344A934212D07B681B68324A934274
:10120C000AD07B681B68314A934202D14FF4001319
:10121C000EE04FF000730BE04FF4003308E04FF496
:10122C00005305E04FF4007302E0202300E002239A
:10123C00274A53607B68002283F820207B689B6AD6
:10124C00002B34D07B689B6A786898472FE07B68CA
:10125C001B6C08229A40FB681340002B28D0BB68FB
:10126C0003F00803002B23D07B681B681A687B688B
:10127C001B6822F00E021A607B681A6C7B68DB6BB1
:10128C00012101FA02F25A607B6801229A637B68A1
:10129C00012283F821207B68002283F820207B68C0
:1012AC001B6B002B04D07B681B6B7868984700BFC6
:1012BC0000BF1037BD4680BD080002401C00024034
:1012CC003000024044000240580002406C000240D2
:1012DC000000024080B485B000AFF860B9607A605D
:1012EC003B60FB681A6CFB68DB6B012101FA02F2B4
:1012FC005A60FB681B683A685A60FB685B68102B85
:10130C0008D1FB681B687A689A60FB681B68BA682E
:10131C00DA6007E0FB681B68BA689A60FB681B68B8
:10132C007A68DA6000BF1437BD4680BC7047000095
:10133C0080B48BB000AF786039600023FB61002370
:10134C00BB6100237B6100233B6200233B610023D4
:10135C007B6227E101227B6A02FA03F3FB613B68A3
:10136C001B68FA691340BB61BA69FB699A4240F089
:10137C0016813B685B68122B34D0122B0DD8022BD4
:10138C002BD0022B04D8002B31D0012B1CD048E0E1
:10139C00032B43D0112B1BD043E0874A934226D01A
:1013AC00854A934206D8854A934220D0844A934278
:1013BC001DD036E0834A934219D0834A934216D00B
:1013CC00824A934213D02CE03B68DB683B6228E0F6
:1013DC003B68DB6804333B6223E03B68DB68083323
:1013EC003B621EE03B68DB680C333B6219E03B68F8
:1013FC009B68002B02D104233B6212E03B689B6884
:10140C00012B05D108233B627B68FA691A6108E05D
:10141C0008233B627B68FA695A6102E000233B6255
:10142C0000BFBB69FF2B01D87B6801E07B680433EC
:10143C00FB60BB69FF2B02D87B6A9B0002E07B6AD6
:10144C00083B9B003B61FB681A680F213B6901FA62
:10145C0003F3DB431A40396A3B6901FA03F31A437D
:10146C00FB681A603B685B6803F08053002B00F04C
:10147C009680574B9B69564A43F001039361544B3A
:10148C009B6903F00103BB60BB68524A7B6A9B08F3
:10149C00023352F823307B617B6A03F003039B0019
:1014AC000F2202FA03F3DB437A6913407B617B68FA
:1014BC00494A934213D07B68484A93420DD07B68CB
:1014CC00474A934207D07B68464A934201D1032393
:1014DC0006E0042304E0022302E0012300E00023E1
:1014EC007A6A02F00302920093407A6913437B619B
:1014FC0038497B6A9B0802337A6941F823203B68A0
:10150C005B6803F48033002B06D0374B1A683649DE
:10151C00BB6913430B6006E0334B1A68BB69DB43B2
:10152C00314913400B603B685B6803F40033002BBC
:10153C0006D02D4B5A682C49BB6913434B6006E00F
:10154C00294B5A68BB69DB43274913404B603B6806
:10155C005B6803F48013002B06D0234B9A68224956
:10156C00BB6913438B6006E01F4B9A68BB69DB4376
:10157C001D4913408B603B685B6803F40013002B20
:10158C0006D0194BDA681849BB691343CB6006E0E7
:10159C00154BDA68BB69DB4313491340CB607B6A9C
:1015AC0001337B627B6A0F2B7FF6D4AE00BF2C37E6
:1015BC00BD4680BC704700BF000021100000111018
:1015CC000000121000003110000032100000221038
:1015DC00001002400000014000080140000C0140D6
:1015EC0000100140001401400004014080B483B09D
:1015FC0000AF78600B467B8013467B707B78002BAA
:10160C0003D07A887B681A6103E07B881A047B68B4
:10161C001A6100BF0C37BD4680BC704780B586B0E0
:10162C0000AF786000233B617B681B6803F001030B
:10163C00002B00F08780924B5B6803F00C03042BAB
:10164C000CD08F4B5B6803F00C03082B12D18C4B26
:10165C005B6803F48033B3F5803F0BD1884B1B6878
:10166C0003F40033002B6CD07B685B68002B68D1D3
:10167C0001232DE27B685B68B3F5803F06D1804B7C
:10168C001B687F4A43F4803313602EE07B685B68F1
:10169C00002B0CD17A4B1B68794A23F480331360EE
:1016AC00774B1B68764A23F4802313601DE07B681C
:1016BC005B68B3F5A02F0CD1714B1B68704A43F4D7
:1016CC00802313606E4B1B686D4A43F480331360A8
:1016DC000BE06B4B1B686A4A23F480331360684B36
:1016EC001B68674A23F4802313607B685B68002BBC
:1016FC0013D0FEF77DFD386108E0FEF779FD024658
:10170C003B69D31A642B01D90323E1E15C4B1B68C1
:10171C0003F40033002BF0D014E0FEF769FD3861C0
:10172C0008E0FEF765FD02463B69D31A642B01D92C
:10173C000323CDE1524B1B6803F40033002BF0D193
:10174C0000E000BF7B681B6803F00203002B63D032
:10175C004B4B5B6803F00C03002B0BD0484B5B68C6
:10176C0003F00C03082B1CD1454B5B6803F480334E
:10177C00002B16D1424B1B6803F00203002B05D043
:10178C007B681B69012B01D00123A1E13C4B1B6839
:10179C0023F0F8027B685B69DB00394913430B606B
:1017AC003AE07B681B69002B20D0364B01221A6073
:1017BC00FEF71EFD386108E0FEF71AFD02463B6994
:1017CC00D31A022B01D9032382E12D4B1B6803F0A2
:1017DC000203002BF0D02A4B1B6823F0F8027B6825
:1017EC005B69DB00264913430B6015E0254B002297
:1017FC001A60FEF7FDFC386108E0FEF7F9FC0246C2
:10180C003B69D31A022B01D9032361E11C4B1B68E2
:10181C0003F00203002BF0D17B681B6803F0080374
:10182C00002B39D07B689B69002B19D0164B0122F9
:10183C001A60FEF7DDFC386108E0FEF7D9FC0246C1
:10184C003B69D31A022B01D9032341E10C4B5B6A90
:10185C0003F00203002BF0D0012000F0A3FA1BE0F0
:10186C00094B00221A60FEF7C3FC38610EE0FEF74C
:10187C00BFFC02463B69D31A022B07D9032327E18D
:10188C00001002400000424280044242924B5B6ACC
:10189C0003F00203002BEAD17B681B6803F00403FE
:1018AC00002B00F0A6800023FB758B4BDB6903F04B
:1018BC008053002B0DD1884BDB69874A43F0805352
:1018CC00D361854BDB6903F08053FB60FB6801231C
:1018DC00FB75824B1B6803F48073002B18D17F4B74
:1018EC001B687E4A43F480731360FEF781FC3861F9
:1018FC0008E0FEF77DFC02463B69D31A642B01D944
:10190C000323E5E0754B1B6803F48073002BF0D0C8
:10191C007B68DB68012B06D16F4B1B6A6E4A43F068
:10192C00010313622DE07B68DB68002B0CD16A4B42
:10193C001B6A694A23F001031362674B1B6A664AF0
:10194C0023F0040313621CE07B68DB68052B0CD1CD
:10195C00614B1B6A604A43F0040313625E4B1B6AC3
:10196C005D4A43F0010313620BE05B4B1B6A5A4A5E
:10197C0023F001031362584B1B6A574A23F00403EC
:10198C0013627B68DB68002B15D0FEF731FC3861E5
:10199C000AE0FEF72DFC02463B69D31A41F288326D
:1019AC00934201D9032393E04B4B1B6A03F00203D0
:1019BC00002BEED014E0FEF71BFC38610AE0FEF7BA
:1019CC0017FC02463B69D31A41F28832934201D983
:1019DC0003237DE0404B1B6A03F00203002BEED186
:1019EC00FB7D012B05D13C4BDB693B4A23F080533B
:1019FC00D3617B68DB69002B69D0374B5B6803F0E4
:101A0C000C03082B61D07B68DB69022B46D1344B6D
:101A1C0000221A60FEF7ECFB386108E0FEF7E8FBE9
:101A2C0002463B69D31A022B01D9032350E02A4BFF
:101A3C001B6803F00073002BF0D17B681B6AB3F5B5
:101A4C00803F08D1244B5B6823F400327B689B6891
:101A5C00214913434B60204B5B6823F474127B6861
:101A6C00196A7B685B6A0B431B4913434B601C4B25
:101A7C0001221A60FEF7BCFB386108E0FEF7B8FBE8
:101A8C0002463B69D31A022B01D9032320E0124BE7
:101A9C001B6803F00073002BF0D018E0104B0022F1
:101AAC001A60FEF7A5FB386108E0FEF7A1FB0246C1
:101ABC003B69D31A022B01D9032309E0064B1B689F
:101ACC0003F00073002BF0D101E0012300E00023B0
:101ADC0018461837BD4680BD00100240007000400B
:101AEC006000424280B584B000AF7860396000235A
:101AFC00FB60724B1B6803F007033A689A4210D9DB
:101B0C006E4B1B6823F007026C493B6813430B6058
:101B1C006A4B1B6803F007033A689A4201D0012311
:101B2C00C8E07B681B6803F00203002B08D0644BF1
:101B3C005B6823F0F0027B689B68614913434B6040
:101B4C007B681B6803F00103002B6AD07B685B6821
:101B5C00012B07D15A4B1B6803F40033002B15D112
:101B6C000123A7E07B685B68022B07D1544B1B68F1
:101B7C0003F00073002B09D101239BE0504B1B6831
:101B8C0003F00203002B01D1012393E04C4B5B6863
:101B9C0023F003027B685B68494913434B60FEF7F3
:101BAC0027FBF8607B685B68012B12D10AE0FEF71B
:101BBC001FFB0246FB68D31A41F28832934201D9CB
:101BCC00032377E03E4B5B6803F00C03042BEED150
:101BDC0027E07B685B68022B1DD10AE0FEF708FB4F
:101BEC000246FB68D31A41F28832934201D903238F
:101BFC0060E0334B5B6803F00C03082BEED110E074
:101C0C00FEF7F6FA0246FB68D31A41F28832934289
:101C1C0001D903234EE02A4B5B6803F00C03002B25
:101C2C00EED1264B1B6803F007033A689A4210D298
:101C3C00224B1B6823F0070220493B6813430B60BF
:101C4C001E4B1B6803F007033A689A4201D001232C
:101C5C0030E07B681B6803F00403002B08D0184BA2
:101C6C005B6823F4E0627B68DB68154913434B60C7
:101C7C007B681B6803F00803002B09D0104B5B68D2
:101C8C0023F460527B681B69DB000D4913434B60E6
:101C9C0000F01CF801460A4B5B681B0903F00F03AC
:101CAC00084AD35C21FA03F3074A13600020FEF7BD
:101CBC005DFA002318461037BD4680BD0020024057
:101CCC0000100240302B00080800002090B48AB0AD
:101CDC0000AF2A4B3C1D0FCB84E80F00284B1B8810
:101CEC003B800023FB610023BB6100237B6200234C
:101CFC007B6100233B62234B5B68FB61FB6903F058
:101D0C000C03042B02D0082B03D02DE01E4B3B629E
:101D1C002DE0FB699B0C03F00F0307F12802134421
:101D2C0013F8243C7B61FB6903F48033002B13D044
:101D3C00144B5B685B0C03F0010307F1280213449E
:101D4C0013F8283CBB617B690F4A02FB03F2BB69A9
:101D5C00B2FBF3F37B6204E07B690C4A02FB03F3F6
:101D6C007B627B6A3B6202E0074B3B6200BF3B6AD3
:101D7C0018462837BD4690BC704700BFE02A0008C3
:101D8C00F02A00080010024000127A0000093D0001
:101D9C0080B400AF024B1B681846BD4680BC704730
:101DAC000800002080B485B000AF78600A4B1B6837
:101DBC000A4AA2FB03235B0A7A6802FB03F3FB606B
:101DCC0000BFFB685A1EFA60002BF9D100BF143714
:101DDC00BD4680BC704700BF08000020D34D621088
:101DEC0080B586B000AF786000233B610023FB60B8
:101DFC007B681B6803F00103002B7DD00023FB756F
:101E0C004F4BDB6903F08053002B0DD14C4BDB693E
:101E1C004B4A43F08053D361494BDB6903F0805349
:101E2C00BB60BB680123FB75464B1B6803F48073D6
:101E3C00002B18D1434B1B68424A43F48073136048
:101E4C00FEF7D6F9386108E0FEF7D2F902463B6995
:101E5C00D31A642B01D903236DE03A4B1B6803F4AE
:101E6C008073002BF0D0364B1B6A03F44073FB607D
:101E7C00FB68002B2ED07B685B6803F44073FA6818
:101E8C009A4227D02E4B1B6A23F44073FB602E4BD7
:101E9C0001221A602C4B00221A60294AFB6813623B
:101EAC00FB6803F00103002B14D0FEF7A1F9386195
:101EBC000AE0FEF79DF902463B69D31A41F28832DB
:101ECC00934201D9032336E01D4B1B6A03F0020336
:101EDC00002BEED01A4B1B6A23F440727B685B68B4
:101EEC00174913430B62FB7D012B05D1144BDB69A6
:101EFC00134A23F08053D3617B681B6803F0020301
:101F0C00002B08D00E4B5B6823F440427B689B6827
:101F1C000B4913434B607B681B6803F01003002BC9
:101F2C0008D0074B5B6823F480027B68DB680449AC
:101F3C0013434B60002318461837BD4680BD00BFC5
:101F4C0000100240007000404004424280B483B054
:101F5C0000AF78600A4B1B680A4AA2FB03239B0C58
:101F6C007A6802FB03F37B6002E07B68013B7B60D9
:101F7C007B68002BF9D100BF0C37BD4680BC704785
:101F8C000800002083DE1B4380B500AF084BDB68E4
:101F9C00074A43F02003D3600120FFF7D7FF044B1F
:101FAC00DB68034A23F02003D36000BF80BD00BF71
:101FBC00000C014080B483B000AF0346FB7197F96D
:101FCC000730002B06DA244BDB68234A43F400432A
:101FDC00D36005E0204BDB681F4A23F40043D36039
:101FEC00FB7903F04003002B06D01B4BDB681A4A2D
:101FFC0043F48043D36005E0174BDB68164A23F4A7
:10200C008043D360FB7903F02003002B06D0124BE6
:10201C00DB68114A43F40053D36005E00E4BDB68D8
:10202C000D4A23F40053D360FB7903F01003002B0B
:10203C0006D0094BDB68084A43F48053D36005E0B3
:10204C00054BDB68044A23F48053D36000BF0C3784
:10205C00BD4680BC704700BF000C014080B483B00B
:10206C0000AF0346FB71FB7903F00803002B06D08D
:10207C00234BDB68224A43F40043D36005E0204B3A
:10208C00DB681F4A23F40043D360FB7903F004039D
:10209C00002B06D01A4BDB68194A43F48043D360FB
:1020AC0005E0174BDB68164A23F48043D360FB79B9
:1020BC0003F00203002B06D0114BDB68104A43F4EB
:1020CC000053D36005E00E4BDB680D4A23F400533C
:1020DC00D360FB7903F00103002B06D0084BDB68BF
:1020EC00074A43F48053D36005E0054BDB68044A90
:1020FC0023F48053D36000BF0C37BD4680BC7047BF
:10210C00000C014080B582B000AF0346FB71FB7937
:10211C001846FFF74FFFFFF737FFFB791846FFF71D
:10212C009DFFFFF731FF0520FFF710FF00BF0837B9
:10213C00BD4680BD80B582B000AF0346FB71104B2D
:10214C00DB680F4A23F01003D360FB791846FFF7C6
:10215C0031FFFFF719FF0520FFF7F8FEFFF714FF1B
:10216C000520FFF7F3FEFB791846FFF777FFFFF723
:10217C000BFF0520FFF7EAFE00BF0837BD4680BD08
:10218C00000C014080B500AF064BDB68054A23F01C
:10219C001003D3600120FFF7B5FFC820FFF7D6FE70
:1021AC0000BF80BD000C014080B500AF064BDB6862
:1021BC00054A23F01003D3600220FFF7A3FFC820C9
:1021CC00FFF7C4FE00BF80BD000C014080B582B09B
:1021DC0000AF0346FB710C4BDB680B4A23F010037A
:1021EC00D360FB793C2B02D03E2B04D007E01020AF
:1021FC00FFF788FF03E01420FFF784FF00BF00BF48
:10220C000837BD4680BD00BF000C014080B582B0D0
:10221C0000AF03460A46FB711346BB71224BDB68C9
:10222C00214A23F01003D360FB79013B042B35D8F2
:10223C0001A252F823F000BF5922000869220008BD
:10224C00792200088922000899220008BB7963F0E2
:10225C007F03DBB21846FFF755FF20E0BB7963F034
:10226C003F03DBB21846FFF74DFF18E0BB7963F074
:10227C006F03DBB21846FFF745FF10E0BB7963F044
:10228C002F03DBB21846FFF73DFF08E0BB7943F0A4
:10229C004003DBB21846FFF735FF00E000BF00BF7C
:1022AC000837BD4680BD00BF000C014080B582B030
:1022BC0000AF0346FB71074BDB68064A23F01003A3
:1022CC00D360FB791846FFF71DFF00BF0837BD46EA
:1022DC0080BD00BF000C014080B582B000AF03464A
:1022EC00FB71084BDB68074A43F01003D360FB79A2
:1022FC001846FFF707FF0120FFF728FE00BF08373D
:10230C00BD4680BD000C014080B584B000AF786044
:10231C0028E07B681B780A2B04D100210220FFF7F0
:10232C0075FF1CE07B681B780D2B02D1FFF73CFF7F
:10233C0015E07B681B78092B0CD10023FB7305E09F
:10234C003E20FFF743FFFB7B0133FB73FB7B032B2F
:10235C00F6D904E07B681B781846FFF7BDFF7B6855
:10236C0001337B607B681B78002BD2D100BF103708
:10237C00BD4680BD80B584B000AF78607B68002B13
:10238C0005DA2D20FFF7A8FF7B685B427B600123F9
:10239C00FB6005E0FA6813469B0013445B00FB608E
:1023AC007A68FB6892FBF3F3092BF3DC7A68FB6821
:1023BC0092FBF3F3DBB23033DBB21846FFF78CFF42
:1023CC00FB68164A82FB03129210DB17D31AFB60D0
:1023DC001CE0FA6813469B0013445B001A467B68AA
:1023EC0093FBF2F102FB01F29A1AFB6892FBF3F3F6
:1023FC00DBB23033DBB21846FFF76EFFFB68074ADF
:10240C0082FB03129210DB17D31AFB60FB68002BC4
:10241C00DFDC00BF1037BD4680BD00BF6766666657
:10242C0080B500AF00F01DF83020FFF76BFE4FF4C5
:10243C00C870FFF78BFD3020FFF764FE4FF4C870B7
:10244C00FFF784FD2820FFF775FE0C20FFF72EFF09
:10245C000620FFF72BFFFFF795FEFFF7A5FE00BF49
:10246C0080BD80B400AF00BFBD4680BC704700008B
:10247C0080B500AFFDF764FE00F052F800F032F9C1
:10248C0000F012F900F0B0F8032220492048FEF7C2
:10249C0069F81F48FDF7B0FF6420FDF7B3FEFFF7A6
:1024AC00BFFF1B48FDF7A8FF6420FDF7ABFEFFF74D
:1024BC0069FE00210120FFF7A9FE1648FFF724FF53
:1024CC00124B1B681846FFF755FF00210220FFF73F
:1024DC009DFE1148FFF718FF0C4B5B681846FFF781
:1024EC0049FF00224FF400510C48FFF77FF84FF4DE
:1024FC00FA70FDF787FE01224FF400510748FFF7F1
:10250C0075F84FF4FA70FDF77DFECAE7A0000020C5
:10251C002C000020F42A0008FC2A000800100140BE
:10252C0080B594B000AF0123BB624FF48033FB62E3
:10253C0000233B630123BB6302237B644FF4803392
:10254C00BB644FF4E013FB6407F128031846FFF754
:10255C0065F80346002B03D0A321214800F02AF98B
:10256C000F237B610223BB610023FB614FF480636B
:10257C003B6200237B6207F1140302211846FFF72C
:10258C00B1FA0346002B03D0B121154800F012F923
:10259C0002237B604FF40043FB603B1D1846FFF7A2
:1025AC001FFC0346002B03D0B8210D4800F002F9A4
:1025BC00FFF7EEFB02460B4BA3FB02239B091846CD
:1025CC00FEF787FC0420FEF791FC002200214FF05F
:1025DC00FF30FEF754FC00BF5037BD4680BD00BF36
:1025EC00042B0008D34D621080B584B000AF2B4B88
:1025FC002B4A1A60294B4FF480729A60274B0022A9
:10260C00DA60264B00225A61244B4FF46022DA61C7
:10261C00224B00225A60214B03221A611F48FDF7FE
:10262C0013FE0346002B03D0D8211E4800F0C2F83D
:10263C0000237B600123BB600623FB603B1D194616
:10264C001648FEF755F90346002B03D0E221154836
:10265C0000F0B0F801237B600223BB603B1D1946E0
:10266C000E48FEF745F90346002B03D0EB210D482D
:10267C0000F0A0F810237B600323BB603B1D1946C0
:10268C000648FEF735F90346002B03D0F421054824
:10269C0000F090F800BF1037BD4680BD2C00002024
:1026AC0000240140042B000880B582B000AF0C4B15
:1026BC005B690B4A43F001035361094B5B6903F0FF
:1026CC0001037B607B68002200210B20FEF7D7FB07
:1026DC000B20FEF7F0FB00BF0837BD4680BD00BFE6
:1026EC000010024080B588B000AF2F4B9B692E4A7A
:1026FC0043F0100393612C4B9B6903F01003FB60B8
:10270C00FB68294B9B69284A43F020039361264BB5
:10271C009B6903F02003BB60BB68234B9B69224A77
:10272C0043F004039361204B9B6903F004037B602B
:10273C007B681D4B9B691C4A43F0080393611A4B41
:10274C009B6903F008033B603B6801224FF4005186
:10275C001648FEF74BFF00224FF230011448FEF7EB
:10276C0045FF4FF400533B6101237B610023BB61A8
:10277C000223FB6107F1100319460C48FEF7D8FD44
:10278C004FF230033B6101237B610023BB610223C9
:10279C00FB6107F1100319460548FEF7C9FD00BFA0
:1027AC002037BD4680BD00BF001002400010014024
:1027BC00000C014080B483B000AF78603960FEE754
:1027CC0080B584B000AF2B4B9B692A4A43F00103C0
:1027DC009361284B9B6903F00103BB60BB68254BDD
:1027EC00DB69244A43F08053D361224BDB6903F04D
:1027FC0080537B607B680320FEF736FB00220021B0
:10280C006FF00B00FEF73BFB002200216FF00A007B
:10281C00FEF735FB002200216FF00900FEF72FFBBD
:10282C00002200216FF00400FEF729FB002200219A
:10283C006FF00300FEF723FB002200216FF0010074
:10284C00FEF71DFB002200214FF0FF30FEF717FBB7
:10285C00094B5B68FB60FB6823F0E063FB60FB6883
:10286C0043F00073FB60044AFB68536000BF1037F1
:10287C00BD4680BD001002400000014080B588B00C
:10288C0000AF78607B681B68274A934247D1274B7F
:10289C009B69264A43F400739361244B9B6903F4B0
:1028AC000073FB60FB6803233B6103237B6107F12F
:1028BC00100319461E48FEF73BFD1E4B1E4A1A60BC
:1028CC001C4B00225A601B4B00229A60194B802231
:1028DC00DA60184B4FF400721A61164B4FF4006219
:1028EC005A61144B20229A61124B0022DA61114872
:1028FC00FEF724FB0346002B03D077210F48FFF78C
:10290C0059FF7B680B4A1A620A4A7B6853620022A1
:10291C0000211220FEF7B3FA1220FEF7CCFA00BF0A
:10292C002037BD4680BD00BF00240140001002408E
:10293C00000801405C00002008000240142B000835
:10294C0080B400AF00BFBD4680BC704780B400AF00
:10295C00FEE780B400AFFEE780B400AFFEE780B4C2
:10296C0000AFFEE780B400AF00BFBD4680BC70472F
:10297C0080B400AF00BFBD4680BC704780B400AFD0
:10298C0000BFBD4680BC704780B500AFFDF71EFC94
:10299C00FEF7C8FA00BF80BD80B500AF0248FEF755
:1029AC0093FB00BF80BD00BF5C00002080B500AF72
:1029BC000248FDF7B5FE00BF80BD00BF2C00002013
:1029CC0080B400AF154B1B68144A43F0010313602D
:1029DC00124B5A681149124B13404B600F4B1B683A
:1029EC000E4A23F0847323F4803313600B4B1B6863
:1029FC000A4A23F480231360084B5B68074A23F4CC
:102A0C00FE035360054B4FF41F029A60054B4FF0C9
:102A1C0000629A6000BFBD4680BC70470010024047
:102A2C000000FFF800ED00E0002103E00B4B5B58C9
:102A3C00435004310A480B4B42189A42F6D30A4AC7
:102A4C0002E0002342F8043B084B9A42F9D3FFF70B
:102A5C00B7FF00F00FF8FFF70BFD7047502B000885
:102A6C00000000200C0000200C000020AC00002016
:102A7C00FEE7000070B500250C4E0D4CA41BA410F5
:102A8C00A54209D100F01AF800250A4E0A4CA41BE5
:102A9C00A410A54205D170BD56F8253098470135D4
:102AAC00EEE756F8253098470135F2E7482B000839
:102ABC00482B0008482B00084C2B0008F8B500BF29
:102ACC00F8BC08BC9E467047F8B500BFF8BC08BC03
:042ADC009E4670475B
:102AE00002030405060708090A0B0C0D0E0F10104F
:102AF00001020000494E303D00000000494E313DCA
:102B0000000000002E2E2F5372632F6D61696E2E10
:102B1000630000002E2E2F5372632F73746D3332B7
:102B2000663178785F68616C5F6D73702E6300004A
:102B3000000000000000000001020304060708096D
:082B4000000000000102030483
:042B4800310100084F
:042B4C000D0100086F
:0C2B5000100000000100000000A24A0478
:0400000508002A3590
:00000001FF
