:020000040800F2
:1000000000500020C91000086110000863100008AB
:100010006510000867100008691000080000000063
:100020000000000000000000000000006B1000084D
:100030006D100008000000006F100008711000082B
:100040001111000811110008111100081111000808
:1000500011110008111100081111000811110008F8
:1000600011110008111100081111000811110008E8
:1000700011110008111100081111000811110008D8
:1000800011110008111100081111000811110008C8
:1000900011110008111100081111000811110008B8
:1000A00011110008111100081111000811110008A8
:1000B0001111000811110008111100081111000898
:1000C0001111000811110008111100081111000888
:1000D0001111000811110008111100081111000878
:1000E0001111000811110008111100080000000092
:1000F0000000000000000000000000000000000000
:0C01000000000000000000005FF808F1A3
:10010C0010B5054C237833B9044B13B10448AFF345
:10011C0000800123237010BD0C00002000000000A3
:10012C005C11000808B5034B1BB103490348AFF33E
:10013C00008008BD00000000100000205C110008C9
:10014C0010B504460E4B18784FF47A73B3FBF0F3EA
:10015C000C4A1068B0FBF3F000F094F868B90F2C5F
:10016C0001D901200AE0002221464FF0FF3000F0B7
:10017C0055F8034B5C60002000E0012010BD00BF6F
:10018C00000000200800002008B5074A136843F05F
:10019C0010031360032000F02FF80020FFF7D0FFAE
:1001AC0000F0DAFE002008BD00200240034A11686E
:1001BC00034B1B780B441360704700BF28000020D2
:1001CC0000000020014B1868704700BF2800002079
:1001DC0038B50446FFF7F6FF0546B4F1FF3F02D0F1
:1001EC00044B1B781C44FFF7EDFF401BA042FAD3D5
:1001FC0038BD00BF00000020074AD36823F4E06339
:10020C001B041B0C000200F4E060184340F0BF60BC
:10021C0040F40030D060704700ED00E030B4174B74
:10022C00DB68C3F30223C3F10704042C28BF0424A6
:10023C001D1D062D18D9033B4FF0FF3505FA04F4AC
:10024C0021EA0401994005FA03F322EA0303194356
:10025C0000280BDB0901C9B200F1604000F56140D8
:10026C0080F8001330BC70470023E5E700F00F0066
:10027C000901C9B2024B1954F4E700BF00ED00E0CC
:10028C0014ED00E00138B0F1807F0AD2064B5860C3
:10029C00064AF02182F823100020986007221A6089
:1002AC0070470120704700BF10E000E000ED00E057
:1002BC00042805D0054A136823F004031360704723
:1002CC00024A136843F004031360704710E000E027
:1002DC00704708B5FFF7FCFF08BD0000F0B482B012
:1002EC0000263546A1E0002C59D0012C00D1CE6857
:1002FC00FF2B68D88446FF2B68D8AC00DCF80020B4
:10030C000F27A74022EA070206FA04F42243CCF88E
:10031C0000204A6812F0805F00F086805E4A946983
:10032C0044F001049461926902F001020192019A75
:10033C00AC08A71C594A52F8272005F00307BF0048
:10034C004FF00F0C0CFA07FC22EA0C0C544A9042AA
:10035C0042D002F5806290427FD002F580629042DA
:10036C007DD002F58062904234D0042235E04D4FAE
:10037C00BC4214D00BD94C4FBC4210D007F580377F
:10038C00BC420CD0A7F58017BC42B1D107E0A7F551
:10039C008017BC4203D007F58037BC42A8D18C68CB
:1003AC007CB1012C08D042610826A1E7CE68083642
:1003BC009EE7CE680C369BE70261082698E700267C
:1003CC0096E7042694E700F1040C94E7A5F10804E1
:1003DC00A40093E7032200E00022BA4042EA0C0298
:1003EC0002342E4F47F824204A6812F4803F38D04C
:1003FC002E4C22681A4322604A6812F4003F36D011
:10040C002A4C62681A4362604A6812F4801F34D026
:10041C00264CA2681A43A2604A6812F4001F32D01C
:10042C00224CE2681343E36001350F2D31D80122D1
:10043C00AA400B6813409A42F6D14C68122CB8D0E3
:10044C0095D8022CB2D07FF64EAF032CB7D0112C1E
:10045C007FF44EAFCE6804364AE70122BDE7022294
:10046C00BBE7124C226822EA03022260C4E70F4C5D
:10047C00626822EA03026260C6E70C4CA26822EAB8
:10048C000302A260C8E7094CE26822EA0303E360B6
:10049C00CAE702B0F0BC70470010024000000140F7
:1004AC000008014000002110000031100004014040
:1004BC0082B0084B1B68084AA2FB03235B0A00FBB3
:1004CC0003F0019000BF019B5A1E0192002BF9D141
:1004DC0002B0704708000020D34D621070B582B096
:1004EC000446036813F0010F2CD0AB4B5B6803F090
:1004FC000C03042B1DD0A84B5B6803F00C03082BDA
:10050C0012D06368B3F5803F41D0002B55D103F175
:10051C00804303F504331A6822F480321A601A6897
:10052C0022F480221A6037E09B4B5B6813F4803F07
:10053C00E7D0994B1B6813F4003F03D06368002B82
:10054C0000F0AE81236813F0020F76D0924B5B68FB
:10055C0013F00C0F5FD0904B5B6803F00C03082B6F
:10056C0054D02369002B00F08A808C4B01221A6036
:10057C00FFF728FE0546884B1B6813F0020F75D158
:10058C00FFF720FE401B0228F5D903208BE1824A9D
:10059C00136843F480331360636843B3FFF712FEB0
:1005AC0005467D4B1B6813F4003FCBD1FFF70AFEC9
:1005BC00401B6428F5D9032075E1B3F5A02F09D0B1
:1005CC00754B1A6822F480321A601A6822F4802261
:1005DC001A60E1E703F18043A3F53C331A6842F457
:1005EC0080221A601A6842F480321A60D4E7FFF74E
:1005FC00E9FD0546684B1B6813F4003FA2D0FFF7DA
:10060C00E1FD401B6428F5D903204CE1624B5B688B
:10061C0013F4803FA5D1604B1B6813F0020F04D07C
:10062C002369012B01D001203DE15B4A136823F0C3
:10063C00F803616943EAC1031360236813F0080FE0
:10064C0032D0A369002B5BD0554B01221A60FFF707
:10065C00B9FD0546504B5B6A13F0020F21D1FFF731
:10066C00B1FD401B0228F5D903201CE14A4A13684E
:10067C0023F0F803616943EAC1031360DDE7474BDC
:10068C0000221A60FFF79EFD0546434B1B6813F0D2
:10069C00020FD2D0FFF796FD401B0228F5D903209C
:1006AC0001E10120FFF704FF236813F0040F00F0B1
:1006BC009780394BDB6913F0805F33D1364BDA69A5
:1006CC0042F08052DA61DB6903F080530193019BA5
:1006DC000125344B1B6813F4807F25D0E368012B74
:1006EC0036D0002B4CD103F1804303F504331A6A46
:1006FC0022F001021A621A6A22F004021A622CE039
:10070C00274B00221A60FFF75DFD0546224B5B6A02
:10071C0013F0020FC8D0FFF755FD401B0228F5D986
:10072C000320C0E00025D4E71E4A136843F480730D
:10073C001360FFF747FD06461A4B1B6813F4807FC6
:10074C00CCD1FFF73FFD801B6428F5D90320AAE02C
:10075C00114A136A43F001031362E36873B3FFF7A2
:10076C0031FD06460C4B1B6A13F0020F37D1FFF715
:10077C0029FD801B41F288339842F3D9032092E083
:10078C00052B11D0044B1A6A22F001021A621A6A64
:10079C0022F004021A62E0E700100240000042421C
:1007AC008004424200700040414B1A6A42F004023D
:1007BC001A621A6A42F001021A62CEE7FFF702FDD2
:1007CC0006463B4B1B6A13F0020F08D0FFF7FAFCEE
:1007DC00801B41F288339842F3D9032063E0E5B9DA
:1007EC00E369002B5ED0324A526802F00C02082AF0
:1007FC005BD0022B17D02F4B00221A60FFF7E2FCC4
:10080C0004462B4B1B6813F0007F47D0FFF7DAFC34
:10081C00001B0228F5D9032045E0254AD36923F0B3
:10082C008053D361DCE7234B00221A60FFF7CAFC2C
:10083C0005461F4B1B6813F0007F06D0FFF7C2FC68
:10084C00401B0228F5D903202DE0236AB3F5803F25
:10085C001AD017494B6823F47413226A606A024356
:10086C0013434B60134B01221A60FFF7ABFC044699
:10087C000F4B1B6813F0007F0ED1FFF7A3FC001B7E
:10088C000228F5D903200EE0094A536823F40033FB
:10089C00A1680B435360DCE7002004E0002002E079
:1008AC00012000E0002002B070BD0120FBE700BF7A
:1008BC00001002406000424210B487B0164C94E81D
:1008CC000F000DF1180C0CE90F00238AADF8043061
:1008DC00124B5B6803F00C02082A1AD1C3F3834253
:1008EC00624412F8102C13F4803F05D10C4800FB25
:1008FC0002F007B010BC7047084B5B68C3F3404371
:10090C00634413F8143C074800FB02F0B0FBF3F00F
:10091C00EFE70448EDE700BF741100080010024037
:10092C0000093D0000127A00594B1B6803F00703C5
:10093C008B420CD2564A136823F007030B43136007
:10094C00136803F007038B4201D00120704770B588
:10095C00036813F0020F06D04E4A536823F0F003DD
:10096C008468234353600C460546036813F0010F5B
:10097C0052D04368012B23D0022B28D0454A126851
:10098C0012F0020F00F0828042494A6822F0030202
:10099C0013434B60FFF716FC06466B68012B1DD00A
:1009AC00022B2AD03B4B5B6813F00C0F34D0FFF7B3
:1009BC0009FC801B41F288339842F3D9032064E090
:1009CC00344A126812F4003FDED101205DE0314A56
:1009DC00126812F0007FD7D1012056E02D4B5B68D6
:1009EC0003F00C03042B17D0FFF7ECFB801B41F238
:1009FC0088339842F2D9032047E0264B5B6803F01A
:100A0C000C03082B08D0FFF7DDFB801B41F2883369
:100A1C009842F2D9032038E01D4B1B6803F0070302
:100A2C00A3420CD91A4A136823F00703234313601B
:100A3C00136803F00703A34201D0012025E02B68C3
:100A4C0013F0040F06D0134A536823F4E063E968EB
:100A5C000B4353602B6813F0080F07D00D4A5368F3
:100A6C0023F46053296943EAC1035360FFF724FF61
:100A7C00084B5B68C3F30313074AD35CD840074B9E
:100A8C0018600020FFF75CFB002070BD0120FCE724
:100A9C0000200240001002409011000808000020C5
:100AAC00014B1868704700BF0800002008B5FFF71D
:100ABC00F7FF044B5B68C3F30223034AD35CD840B3
:100ACC0008BD00BF00100240A011000808B5FFF7D8
:100ADC00E7FF044B5B68C3F3C223034AD35CD840E3
:100AEC0008BD00BF00100240A01100082DE9F8431A
:100AFC0005460268136923F44053C1680B43136124
:100B0C00836802691343426913430168CA6822F47B
:100B1C00B05222F00C021343CB600268536923F4E9
:100B2C00407381690B4353610268594B9A4257D009
:100B3C00FFF7BCFF00EB800000EB80006C68A400AA
:100B4C00B0FBF4F4534FA7FB043464092601FFF700
:100B5C00ADFF00EB800000EB80006C68A400B0FBE4
:100B6C00F4F9FFF7A3FF00EB800000EB80006C684A
:100B7C00A400B0FBF4F4A7FB043464094FF0640840
:100B8C0008FB149424013234A7FB0434640904F0E8
:100B9C00F0043444FFF78AFF00EB800000EB800088
:100BAC006E68B600B0FBF6F6FFF780FF00EB800036
:100BBC0000EB80006B689B00B0FBF3F0A7FB0030F0
:100BCC00400908FB10684FEA081808F13208A7FB27
:100BDC000837C7F343172B6827449F60BDE8F88399
:100BEC00FFF774FF00EB800000EB80006C68A40042
:100BFC00B0FBF4F4274FA7FB043464092601FFF77C
:100C0C0065FF00EB800000EB80006C68A400B0FB7B
:100C1C00F4F9FFF75BFF00EB800000EB80006C68E1
:100C2C00A400B0FBF4F4A7FB043464094FF064088F
:100C3C0008FB149424013234A7FB0434640904F037
:100C4C00F0043444FFF742FF00EB800000EB80001F
:100C5C006E68B600B0FBF6F6FFF738FF00EB8000CD
:100C6C0000EB80006B689B00B0FBF3F0A7FB00303F
:100C7C00400908FB10684FEA081808F13208A7FB76
:100C8C000837C7F343172B6827449F60A6E700BFBC
:100C9C00003801401F85EB512DE9F04105460F4608
:100CAC0016469846069C2B681B6837EA03030CBF54
:100CBC0001230023B3421DD1B4F1FF3FF3D02CB17B
:100CCC00FFF780FAA0EB0800A042ECD92A68D368A1
:100CDC0023F4D073D3602A68536923F00103536162
:100CEC00202385F8393085F83A30002385F83830E0
:100CFC00032000E00020BDE8F08158B310B5044695
:100D0C0090F839300BB3242384F839302268D36837
:100D1C0023F40053D3602046FFF7E8FE22681369E2
:100D2C0023F4904313612268536923F02A0353611F
:100D3C002268D36843F40053D3600020E06320237F
:100D4C0084F8393084F83A3010BD80F8383000F02F
:100D5C0053F9D8E7012070472DE9F04182B01E46C7
:100D6C0090F83930DBB2202B55D104460D46904615
:100D7C00002955D0002A55D090F83830012B53D08B
:100D8C00012380F838300023C363212380F83930E5
:100D9C00FFF718FA0746A4F82480A4F8268010E080
:100DAC0000963B46002280212046FFF775FF002865
:100DBC003CD12B882268C3F3080353602369C3B961
:100DCC000235E38C9BB2B3B1E38C013B9BB2E38461
:100DDC00A368B3F5805FE3D000963B4600228021E8
:100DEC002046FFF759FF18BB2A7823685A60013553
:100DFC00E7E70135E5E700963B4600224021204617
:100E0C00FFF74AFF0346A8B9202284F839200022B4
:100E1C0084F8382000E00223184602B0BDE8F081C7
:100E2C000123F9E70123F7E70223F5E70323F3E7AF
:100E3C000323F1E70323EFE782B0064B9A6942F0F4
:100E4C0004029A619B6903F004030193019B02B0B5
:100E5C00704700BF00100240FEE7000008B50B48C9
:100E6C000B4B03604FF41653436000238360C36045
:100E7C0003610C2242618361C361FFF73EFF00B93D
:100E8C0008BDB7210348FFF7E7FF00BF2C00002087
:100E9C0000380140A811000800B591B00223069358
:100EAC0001220A9210220B920D9300230E934FF401
:100EBC0060130F9306A8FFF711FB08BB0F230193D8
:100ECC0002210291002303934FF480620492059354
:100EDC0001A8FFF729FDB8B9FFF7E2FD0C4BA3FB06
:100EEC0000308009FFF7CEF90420FFF7E1F900226A
:100EFC0011464FF0FF30FFF791F911B05DF804FB8C
:100F0C008C210448FFF7A8FF9A210248FFF7A4FFA1
:100F1C00D34D6210A811000800B583B0FFF734F967
:100F2C00FFF7BAFFFFF788FFFFF798FF084B93E82E
:100F3C00030000908DF804104FF47A730522694673
:100F4C000448FFF709FF4FF4FA70FFF741F9F3E794
:100F5C00881100082C00002000B583B0244B9A693E
:100F6C0042F001029A619A6902F001020092009A21
:100F7C00DA6942F08052DA61DB6903F08053019345
:100F8C00019B0320FFF738F9002211466FF00B008C
:100F9C00FFF744F9002211466FF00A00FFF73EF903
:100FAC00002211466FF00900FFF738F900221146B4
:100FBC006FF00400FFF732F9002211466FF00300C6
:100FCC00FFF72CF9002211466FF00100FFF726F90C
:100FDC00002211464FF0FF30FFF720F9054A536805
:100FEC0023F0E06343F08063536003B05DF804FBCF
:100FFC0000100240000001400268144B9A4200D0DD
:10100C00704710B586B003F558439A6942F4804294
:10101C009A619B6903F480430193019B4FF4007325
:10102C0002930223039303230593094C02A9204640
:10103C00FFF754F94FF48063029300230393049356
:10104C0002A92046FFF74AF906B010BD003801404E
:10105C00000801407047FEE7FEE7FEE7FEE7704739
:10106C007047704708B5FFF7A1F8FFF732F908BDD4
:10107C000F4B1A6842F001021A6059680D4A0A4077
:10108C005A601A6822F0847222F480321A601A684C
:10109C0022F480221A605A6822F4FE025A604FF43D
:1010AC001F029A60044B4FF000629A60704700BFB9
:1010BC00001002400000FFF800ED00E0002103E00A
:1010CC000B4B5B58435004310A480B4B42189A4265
:1010DC00F6D30A4A02E0002342F8043B084B9A423A
:1010EC00F9D3FFF7C5FF00F00FF8FFF715FF7047B6
:1010FC00C0110008000000200C0000200C00002093
:10110C006C000020FEE7000070B500250C4E0D4C65
:10111C00A41BA410A54209D100F01AF800250A4E10
:10112C000A4CA41BA410A54205D170BD56F825305D
:10113C0098470135EEE756F8253098470135F2E728
:10114C00B8110008B8110008B8110008BC1100084B
:10115C00F8B500BFF8BC08BC9E467047F8B500BF98
:08116C00F8BC08BC9E46704768
:1011740002030405060708090A0B0C0D0E0F1010D4
:101184000102000054657374650000000000000053
:101194000000000001020304060708090000000023
:1011A400010203042E2E2F5372632F6D61696E2E7C
:0411B40063000000D4
:0411B80031010008F9
:0411BC000D01000819
:0C11C000010000001000000000A24A0422
:04000005080010C916
:00000001FF
