:020000040800F2
:10000000005000201D220008C5120008C712000879
:10001000C9120008CB120008CD1200080000000031
:10002000000000000000000000000000CF120008E7
:10003000D112000800000000D3120008D5120008F9
:100040006522000865220008652200086522000874
:100050006522000865220008652200086522000864
:100060006522000865220008652200086522000854
:100070006522000865220008652200086522000844
:100080006522000865220008652200086522000834
:100090006522000865220008652200086522000824
:1000A0006522000865220008652200086522000814
:1000B0006522000865220008652200086522000804
:1000C00065220008652200086522000865220008F4
:1000D00065220008652200086522000865220008E4
:1000E0006522000865220008652200080000000063
:1000F0000000000000000000000000000000000000
:0C01000000000000000000005FF808F1A3
:10010C0010B5054C237833B9044B13B10448AFF345
:10011C0000800123237010BD44010020000000006A
:10012C00B022000808B5034B1BB103490348AFF3D9
:10013C00008008BD0000000048010020B02200082B
:10014C0010B504460E4B18784FF47A73B3FBF0F3EA
:10015C000C4A1068B0FBF3F000F094F868B90F2C5F
:10016C0001D901200AE0002221464FF0FF3000F0B7
:10017C0055F8034B5C60002000E0012010BD00BF6F
:10018C00000000200800002008B5074A136843F05F
:10019C0010031360032000F02FF80020FFF7D0FFAE
:1001AC0001F016F8002008BD00200240034A116837
:1001BC00034B1B780B441360704700BF4C080020A6
:1001CC0000000020014B1868704700BF4C0800204D
:1001DC0038B50446FFF7F6FF0546B4F1FF3F02D0F1
:1001EC00044B1B781C44FFF7EDFF401BA042FAD3D5
:1001FC0038BD00BF00000020074AD36823F4E06339
:10020C001B041B0C000200F4E060184340F0BF60BC
:10021C0040F40030D060704700ED00E030B4174B74
:10022C00DB68C3F30223C3F10704042C28BF0424A6
:10023C001D1D062D18D9033B4FF0FF3505FA04F4AC
:10024C0021EA0401994005FA03F322EA0303194356
:10025C0000280BDB0901C9B200F1604000F56140D8
:10026C0080F8001330BC70470023E5E700F00F0066
:10027C000901C9B2024B1954F4E700BF00ED00E0CC
:10028C0014ED00E00138B0F1807F0AD2064B5860C3
:10029C00064AF02182F823100020986007221A6089
:1002AC0070470120704700BF10E000E000ED00E057
:1002BC00042805D0054A136823F004031360704723
:1002CC00024A136843F004031360704710E000E027
:1002DC00704708B5FFF7FCFF08BD0000F0B482B012
:1002EC0000263546A1E0002C59D0012C00D1CE6857
:1002FC00FF2B68D88446FF2B68D8AC00DCF80020B4
:10030C000F27A74022EA070206FA04F42243CCF88E
:10031C0000204A6812F0805F00F086805E4A946983
:10032C0044F001049461926902F001020192019A75
:10033C00AC08A71C594A52F8272005F00307BF0048
:10034C004FF00F0C0CFA07FC22EA0C0C544A9042AA
:10035C0042D002F5806290427FD002F580629042DA
:10036C007DD002F58062904234D0042235E04D4FAE
:10037C00BC4214D00BD94C4FBC4210D007F580377F
:10038C00BC420CD0A7F58017BC42B1D107E0A7F551
:10039C008017BC4203D007F58037BC42A8D18C68CB
:1003AC007CB1012C08D042610826A1E7CE68083642
:1003BC009EE7CE680C369BE70261082698E700267C
:1003CC0096E7042694E700F1040C94E7A5F10804E1
:1003DC00A40093E7032200E00022BA4042EA0C0298
:1003EC0002342E4F47F824204A6812F4803F38D04C
:1003FC002E4C22681A4322604A6812F4003F36D011
:10040C002A4C62681A4362604A6812F4801F34D026
:10041C00264CA2681A43A2604A6812F4001F32D01C
:10042C00224CE2681343E36001350F2D31D80122D1
:10043C00AA400B6813409A42F6D14C68122CB8D0E3
:10044C0095D8022CB2D07FF64EAF032CB7D0112C1E
:10045C007FF44EAFCE6804364AE70122BDE7022294
:10046C00BBE7124C226822EA03022260C4E70F4C5D
:10047C00626822EA03026260C6E70C4CA26822EAB8
:10048C000302A260C8E7094CE26822EA0303E360B6
:10049C00CAE702B0F0BC70470010024000000140F7
:1004AC000008014000002110000031100004014040
:1004BC0003685A6912F4806F0DD06FF480625A6130
:1004CC000423036400230363202280F83D2080F87A
:1004DC003C300120704700207047F8B506460C46AA
:1004EC0017461D461EE02DB1FFF76CFE069BC01A89
:1004FC00A84217D900233363202286F83D2086F8C2
:10050C003E3086F83C3003201AE033685B6924EAFD
:10051C0003039BB2B3FA83F35B099F420FD1B5F18E
:10052C00FF3FE0D1C4F30743012BEED033689B6946
:10053C0024EA03039BB2B3FA83F35B09EDE70020D3
:10054C00F8BDF8B504460D4616461F4632E01A684B
:10055C0042F400721A6023686FF480625A610423BB
:10056C00236400232363202284F83D2084F83C304C
:10057C0001202DE026B1FFF725FEC01BB04219D992
:10058C0000232363202284F83D2084F83C30032090
:10059C001EE023685B6925EA03039BB2003318BF96
:1005AC000123A3B123685A6912F4806FCFD1B6F13D
:1005BC00FF3FDFD1C5F30743012BEAD023689B69CA
:1005CC0025EA03039BB2003318BF0123E9E700209F
:1005DC00F8BD0000F0B583B004460D4616461F4624
:1005EC00C36A042B0DD0012B0BD013F5803F08D020
:1005FC00036B122B0AD10268136843F480731360E7
:10060C0004E02268136843F4807313600097334648
:10061C0000224FF001112046FFF75FFF58BB236902
:10062C00B3F5804F10D1236805F0FE051D613B46E4
:10063C00324615492046FFF784FF0346E0B1236C90
:10064C00042B1ED1012317E0EB11226803F00603E3
:10065C0043F0F00313613B4632460C492046FFF74A
:10066C0070FF20B1236C042B09D1012304E0236813
:10067C00EDB21D61DBE70323184603B0F0BD032385
:10068C00FAE70323F8E700BF0200010008000100AD
:10069C0070B504460D46164623685B6913F0800F4F
:1006AC0019D12046FFF704FFB8B9B5F1FF3FF3D0DD
:1006BC0025B1FFF787FD801BA842EDD9236C43F0D1
:1006CC002003236400232363202284F83D2084F834
:1006DC003C30032000E0002070BD0120FCE770B529
:1006EC0004460D46164623685B6913F0040F19D1B6
:1006FC002046FFF7DDFEB8B9B5F1FF3FF3D025B1C9
:10070C00FFF760FD801BA842EDD9236C43F020035A
:10071C00236400232363202284F83D2084F83C309A
:10072C00032000E0002070BD0120FCE7002800F051
:10073C00A28038B5044690F83D30002B4FD02423CE
:10074C0084F83D302268136823F00103136000F035
:10075C0061FC62684A4B9A4246D84A4B98428CBF1D
:10076C0000230123002B40F08880474BA3FB002380
:10077C009B0C226853606168414A91423AD801331C
:10078C002268136261683E4B99423DD8431E490072
:10079C00B3FBF1F30133C3F30B03042B38BF042376
:1007AC002268D361E369216A22680B4313602369D1
:1007BC00E16822680B4393606369A16922680B436B
:1007CC00D3602268136843F0010313600020206497
:1007DC00202384F83D30206384F83E0038BD80F837
:1007EC003C3000F045FDAAE7284B98428CBF002313
:1007FC000123B7E74FF4967202FB03F3244AA2FBE2
:10080C0003239B090133BBE7A368BBB9421E01EB71
:10081C004105B2FBF5F20132C2F30B02B2FA82F2DD
:10082C00520932BBC3B9013801EB4103B0FBF3F3FE
:10083C000133C3F30B0343F40043B1E7421E01EB56
:10084C00810505EB8505B2FBF5F20132C2F30B0213
:10085C00B2FA82F25209E4E7013801EB810303EBAF
:10086C008303B0FBF3F30133C3F30B0343F44043B3
:10087C0096E7012394E7012070470120AEE700BF03
:10088C00A08601007F841E0083DE1B43FF083D0011
:10089C00D34D62102DE9F04184B004460E469046CB
:1008AC001F46FFF78FFC94F83D30DBB2202B04D0B1
:1008BC000226304604B0BDE8F081054600901923AD
:1008CC00012254492046FFF708FE002840F0998089
:1008DC0094F83C30012B00F09680012384F83C30D6
:1008EC0023681A6812F0010F03D11A6842F0010252
:1008FC001A602268136823F400631360212384F8C0
:10090C003D30102384F83E3000232364C4F8248047
:10091C006785A3F58033E362638D23852B460A9AA2
:10092C0031462046FFF756FE064660B1236C042B79
:10093C0004D1002384F83C300126BAE7002384F864
:10094C003C300326B5E70023039323685A690392CE
:10095C009B690393039B10E0236C042B55D12268F5
:10096C00136843F4007313600126A2E72A460A9920
:10097C002046FFF7B4FE00282BD1238D002B32D05C
:10098C002A460A992046FFF783FE0028E4D1636AC1
:10099C005A1C626222681B781361638D013B9BB207
:1009AC006385238D013B9BB223852268516911F02D
:1009BC00040FDBD0002BD9D0636A591C61621B7801
:1009CC001361638D013B9BB26385238D013B2385B2
:1009DC00CCE7236C042B1AD12268136843F4007300
:1009EC001360012665E72268136843F400731360F3
:1009FC00202384F83D30002384F83E3084F83C30CA
:100A0C0057E7022655E7022653E7032651E703264C
:100A1C004FE700BF0200100082B0084B1B68084A69
:100A2C00A2FB03235B0A00FB03F0019000BF019BB8
:100A3C005A1E0192002BF9D102B070470800002019
:100A4C00D34D621070B582B00446036813F0010FE9
:100A5C002CD0AB4B5B6803F00C03042B1DD0A84BC4
:100A6C005B6803F00C03082B12D06368B3F5803F6E
:100A7C0041D0002B55D103F1804303F504331A68A0
:100A8C0022F480321A601A6822F480221A6037E04D
:100A9C009B4B5B6813F4803FE7D0994B1B6813F4B6
:100AAC00003F03D06368002B00F0AE81236813F085
:100ABC00020F76D0924B5B6813F00C0F5FD0904B0B
:100ACC005B6803F00C03082B54D02369002B00F057
:100ADC008A808C4B01221A60FFF774FB0546884B09
:100AEC001B6813F0020F75D1FFF76CFB401B02283B
:100AFC00F5D903208BE1824A136843F480331360E9
:100B0C00636843B3FFF75EFB05467D4B1B6813F42C
:100B1C00003FCBD1FFF756FB401B6428F5D90320CF
:100B2C0075E1B3F5A02F09D0754B1A6822F4803209
:100B3C001A601A6822F480221A60E1E703F18043FC
:100B4C00A3F53C331A6842F480221A601A6842F406
:100B5C0080321A60D4E7FFF735FB0546684B1B68FB
:100B6C0013F4003FA2D0FFF72DFB401B6428F5D9EE
:100B7C0003204CE1624B5B6813F4803FA5D1604BC2
:100B8C001B6813F0020F04D02369012B01D0012044
:100B9C003DE15B4A136823F0F803616943EAC10342
:100BAC001360236813F0080F32D0A369002B5BD0BD
:100BBC00554B01221A60FFF705FB0546504B5B6A4B
:100BCC0013F0020F21D1FFF7FDFA401B0228F5D9D3
:100BDC0003201CE14A4A136823F0F803616943EAD5
:100BEC00C1031360DDE7474B00221A60FFF7EAFAF6
:100BFC000546434B1B6813F0020FD2D0FFF7E2FA05
:100C0C00401B0228F5D9032001E10120FFF704FF66
:100C1C00236813F0040F00F09780394BDB6913F055
:100C2C00805F33D1364BDA6942F08052DA61DB698E
:100C3C0003F080530193019B0125344B1B6813F483
:100C4C00807F25D0E368012B36D0002B4CD103F1EB
:100C5C00804303F504331A6A22F001021A621A6AFD
:100C6C0022F004021A622CE0274B00221A60FFF7D4
:100C7C00A9FA0546224B5B6A13F0020FC8D0FFF7A6
:100C8C00A1FA401B0228F5D90320C0E00025D4E7C7
:100C9C001E4A136843F480731360FFF793FA0646F9
:100CAC001A4B1B6813F4807FCCD1FFF78BFA801B97
:100CBC006428F5D90320AAE0114A136A43F0010312
:100CCC001362E36873B3FFF77DFA06460C4B1B6A9D
:100CDC0013F0020F37D1FFF775FA801B41F28833FE
:100CEC009842F3D9032092E0052B11D0044B1A6AD9
:100CFC0022F001021A621A6A22F004021A62E0E778
:100D0C000010024000004242800442420070004049
:100D1C00414B1A6A42F004021A621A6A42F001024A
:100D2C001A62CEE7FFF74EFA06463B4B1B6A13F0EE
:100D3C00020F08D0FFF746FA801B41F28833984225
:100D4C00F3D9032063E0E5B9E369002B5ED0324AA6
:100D5C00526802F00C02082A5BD0022B17D02F4BE2
:100D6C0000221A60FFF72EFA04462B4B1B6813F077
:100D7C00007F47D0FFF726FA001B0228F5D9032085
:100D8C0045E0254AD36923F08053D361DCE7234B3C
:100D9C0000221A60FFF716FA05461F4B1B6813F06A
:100DAC00007F06D0FFF70EFA401B0228F5D903206E
:100DBC002DE0236AB3F5803F1AD017494B6823F412
:100DCC007413226A606A024313434B60134B012273
:100DDC001A60FFF7F7F904460F4B1B6813F0007FFE
:100DEC000ED1FFF7EFF9001B0228F5D903200EE016
:100DFC00094A536823F40033A1680B435360DCE7C2
:100E0C00002004E0002002E0012000E0002002B0FD
:100E1C0070BD0120FBE700BF0010024060004242A1
:100E2C0010B487B0164C94E80F000DF1180C0CE9B7
:100E3C000F00238AADF80430124B5B6803F00C02F0
:100E4C00082A1AD1C3F38342624412F8102C13F40B
:100E5C00803F05D10C4800FB02F007B010BC704776
:100E6C00084B5B68C3F34043634413F8143C0748D6
:100E7C0000FB02F0B0FBF3F0EFE70448EDE700BF36
:100E8C00C82200080010024000093D0000127A0040
:100E9C00594B1B6803F007038B420CD2564A13685C
:100EAC0023F007030B431360136803F007038B4213
:100EBC0001D00120704770B5036813F0020F06D003
:100ECC004E4A536823F0F0038468234353600C4666
:100EDC000546036813F0010F52D04368012B23D051
:100EEC00022B28D0454A126812F0020F00F08280C3
:100EFC0042494A6822F0030213434B60FFF762F940
:100F0C0006466B68012B1DD0022B2AD03B4B5B682D
:100F1C0013F00C0F34D0FFF755F9801B41F28833D6
:100F2C009842F3D9032064E0344A126812F4003F6B
:100F3C00DED101205DE0314A126812F0007FD7D17A
:100F4C00012056E02D4B5B6803F00C03042B17D0EB
:100F5C00FFF738F9801B41F288339842F2D903200D
:100F6C0047E0264B5B6803F00C03082B08D0FFF717
:100F7C0029F9801B41F288339842F2D9032038E0DA
:100F8C001D4B1B6803F00703A3420CD91A4A1368C4
:100F9C0023F0070323431360136803F00703A342F2
:100FAC0001D0012025E02B6813F0040F06D0134A62
:100FBC00536823F4E063E9680B4353602B6813F028
:100FCC00080F07D00D4A536823F46053296943EA8C
:100FDC00C1035360FFF724FF084B5B68C3F3031393
:100FEC00074AD35CD840074B18600020FFF7A8F8DD
:100FFC00002070BD0120FCE70020024000100240E0
:10100C00DC22000808000020014B1868704700BF64
:10101C000800002008B5FFF7F7FF044B5B68C3F32B
:10102C000223034AD35CD84008BD00BF0010024025
:10103C00EC22000884B00F4B9A6942F020029A61AE
:10104C009A6902F020020192019A9A6942F0040214
:10105C009A619A6902F004020292029A9A6942F029
:10106C0008029A619B6903F008030393039B04B085
:10107C00704700BF00100240F8B507460E461546F3
:10108C00094800F0A2FE084C0849204600F0E8FD93
:10109C002B46F2B2F9B2204600F085FD204600F056
:1010AC0099FE0028EFD1F8BD60010020C027000890
:1010BC00FEE7000008B50B480B4B03600B4B43607D
:1010CC0000238360C3604FF48042026143618361FB
:1010DC00C3610362FFF72AFB00B908BDC8210448AD
:1010EC00FFF7E6FF5008002000540040A0860100E6
:1010FC00C031000800B591B0012206924FF4803344
:10110C000793002108910A9202220D920E934FF43C
:10111C00E0130F9306A8FFF795FC08BB0F23019370
:10112C0002210291002303934FF4806204920593F1
:10113C0001A8FFF7ADFEB8B9FFF766FF0C4BA3FB98
:10114C0000308009FFF79EF80420FFF7B1F8002269
:10115C0011464FF0FF30FFF761F811B05DF804FB5A
:10116C009C210448FFF7A4FFAA210248FFF7A0FF27
:10117C00D34D6210C031000808B5FFF705F8FFF732
:10118C00B9FFFFF757FFFFF795FF0C4A0C490D48C5
:10119C0000F05EFE0C4A14210020FFF76DFF4FF4A7
:1011AC007A70FFF715F8094A14210A20FFF764FF3B
:1011BC004FF47A70FFF70CF8ECE700BF351300081A
:1011CC00FC00002060010020D0310008D83100085C
:1011DC0000B583B0244B9A6942F001029A619A6976
:1011EC0002F001020092009ADA6942F08052DA6150
:1011FC00DB6903F080530193019B0320FEF7FCFF96
:10120C00002211466FF00B00FFF708F80022114680
:10121C006FF00A00FFF702F8002211466FF0090088
:10122C00FEF7FCFF002211466FF00400FEF7F6FFFC
:10123C00002211466FF00300FEF7F0FF002211466A
:10124C006FF00100FEF7EAFF002211464FF0FF306D
:10125C00FEF7E4FF054A536823F0E06343F00073A4
:10126C00536003B05DF804FB001002400000014025
:10127C0002680E4B9A4200D0704700B587B0C0236D
:10128C000293122303930323059302A90848FFF743
:10129C0025F8084BDA6942F40012DA61DB6903F4D1
:1012AC0000130193019B07B05DF804FB0054004050
:1012BC00000C0140001002407047FEE7FEE7FEE71D
:1012CC00FEE770477047704708B5FEF76FFFFFF7F2
:1012DC0000F808BD0F4B1A6842F001021A605968F9
:1012EC000D4A0A405A601A6822F0847222F4803245
:1012FC001A601A6822F480221A605A6822F4FE02DC
:10130C005A604FF41F029A60044B4FF000629A60CF
:10131C00704700BF001002400000FFF800ED00E035
:10132C0008B5FEF755FF08BD10B5ADF57C7D02394B
:10133C0005291BD8DFE801F0031A1A0B1E1E12B97F
:10134C00184B1A7012E0174B40221A700EE0154B16
:10135C001B788DF808308DF8092042F21073009339
:10136C00022302AA78211048FFF794FA01200DF508
:10137C007C7D10BD0B4909788DF80810012104E023
:10138C001C7802A84454013101338A42F8DA42F243
:10139C0010730093134602AA78210348FFF77AFAD8
:1013AC00E4E700BF9C0100205008002070B49DF8B9
:1013BC000C401444E4B2013CE4B290F8395090F87B
:1013CC003B60964205D3A54207D9A24205D800201E
:1013DC001CE0A54219D8A2421AD90B44DBB2013B3E
:1013EC00DBB290F8382090F83A00884205D39A4244
:1013FC0010D9994210D9012008E09A420ED899428E
:10140C0001D8002002E0012000E0002070BC7047F1
:10141C000020FBE70120F9E70020F7E70020F5E7C3
:10142C0010B58C6800230121A04710BD10B58C6845
:10143C0000230321A04710BD10B58C6800231A4669
:10144C000421A04710BD10B58C6800230122042193
:10145C00A04710BD10B58C6800230221A04710BD19
:10146C0010B58C6800230521A04710BD10B58C6801
:10147C000621A04710BD2DE9F041074688461546C8
:10148C00002607E0224641463846FFF7E9FF0028D0
:10149C0050D001352C781EB9FF2CF3D10126F8E77A
:1014AC00FF2C10D0FE2C46D0EF2C3FD8DF2C13D8BD
:1014BC00CF2C19D8BF2C1FD8BD2C39D814F0800FC5
:1014CC002FD00026E5E7224641463846FFF7C8FFF5
:1014DC00064680B30026DCE704F00F02414638468E
:1014EC00FFF7B8FF0026D4E704F00F024146384658
:1014FC00FFF79CFF0026CCE741463846FFF79CFFE0
:10150C002401E4B2023404F0FE042046FFF708FF85
:10151C0041463846FFF797FF2046FFF701FF0026AC
:10152C00B7E72046FFF7FCFE0026B2E70026B0E73F
:10153C000026AEE706463046BDE8F0810120704734
:10154C002DE9F04105460C4616461F46A2F10A034A
:10155C000B2B0FD8DFE803F0060E0E0E0E0E383DE7
:10156C000E0E0E180222FFF75BFF1C4A214628467E
:10157C00FFF781FF3B4632462146284600F0EFFD3F
:10158C0003461846BDE8F081D1F80480144AFFF7F1
:10159C0072FF98F8042042F0B00221462846FFF76B
:1015AC005FFF012221462846FFF754FF22462946B9
:1015BC00404600F0B6FC03460028E2D0002221464B
:1015CC002846FFF733FFD5E7064AFFF754FF012300
:1015DC00D7E7054AFFF74FFF0123D2E7F4220008B3
:1015EC001C23000824230008302300082DE9F041B7
:1015FC0005460C4616461F46A2F10A030B2B0FD8C4
:10160C00DFE803F0060E0E0E0E0E383D0E0E0E1811
:10161C000222FFF705FF1C4A21462846FFF72BFF45
:10162C003B4632462146284600F099FD03461846B3
:10163C00BDE8F081D1F80480144AFFF71CFF98F83C
:10164C00042042F0B00221462846FFF709FF012290
:10165C0021462846FFF7FEFE22462946404600F06A
:10166C0060FC03460028E2D0002221462846FFF702
:10167C00DDFED5E7064AFFF7FEFE0123D7E7054A54
:10168C00FFF7F9FE0123D2E73C2300081C230008D6
:10169C0024230008302300082DE9F04105460C46B0
:1016AC0016461F46A2F10A030B2B0FD8DFE803F0F6
:1016BC00060E0E0E0E0E383D0E0E0E180222FFF701
:1016CC00AFFE1C4A21462846FFF7D5FE3B46324664
:1016DC002146284600F043FD03461846BDE8F0813C
:1016EC00D1F80480144AFFF7C6FE98F8042042F0A3
:1016FC00B00221462846FFF7B3FE012221462846B8
:10170C00FFF7A8FE22462946404600F00AFC034695
:10171C000028E2D0002221462846FFF787FED5E7B5
:10172C00064AFFF7A8FE0123D7E7054AFFF7A3FEF9
:10173C000123D2E73C23000864230008242300087B
:10174C00302300082DE9F84305460C4616461F4683
:10175C00A2F10A030B2B0FD8DFE803F0060E0E0ED6
:10176C000E0E5F640E0E0E160222FFF759FE304A63
:10177C0021462846FFF77FFE3B4632462146284647
:10178C0000F03FFCBDE8F883D1F80480DFF8AC90A2
:10179C004A46FFF770FE98F80420520062F04F02A0
:1017AC0002F0FE0221462846FFF75AFE012221468E
:1017BC002846FFF74FFED8F8083098F80520214648
:1017CC002846FFF753FE002221462846FFF72EFE3F
:1017DC004A4621462846FFF74EFE98F80420520050
:1017EC00013252B262F04F02D2B221462846FFF7C4
:1017FC0037FE012221462846FFF72CFE98F80520DB
:10180C00D8F80830134421462846FFF72FFE002253
:10181C0021462846FFF70AFEAEE7064AFFF72BFEE5
:10182C000120AFE7044AFFF726FE0120AAE700BF1C
:10183C003C23000824230008302300081C23000844
:10184C002DE9F84305460C4616461F46A2F10A033D
:10185C000B2B0FD8DFE803F0060E0E0E0E0E5F6496
:10186C000E0E0E160222FFF7DBFD304A21462846EB
:10187C00FFF701FE3B4632462146284600F0C1FBED
:10188C00BDE8F883D1F80480DFF8AC904A46FFF746
:10189C00F2FD98F80420520062F04F0202F0FE02B2
:1018AC0021462846FFF7DCFD012221462846FFF79A
:1018BC00D1FDD8F8083098F8052021462846FFF7C6
:1018CC00D5FD002221462846FFF7B0FD4A462146A9
:1018DC002846FFF7D0FD98F804205200013252B28E
:1018EC0062F04F02D2B221462846FFF7B9FD012221
:1018FC0021462846FFF7AEFD98F80520D8F80830A9
:10190C00134421462846FFF7B1FD00222146284604
:10191C00FFF78CFDAEE7064AFFF7ADFD0120AFE700
:10192C00044AFFF7A8FD0120AAE700BF3C230008EA
:10193C00242300083023000864230008405C70470F
:10194C004218435C507800EB032080B2704708B516
:10195C000021FFF7F3FF08BD08B5FFF7F8FF18B13A
:10196C00022801D0032008BD0620FCE710B50C4668
:10197C00FFF7F2FF204410BD38B504460D468068D1
:10198C00FFF7E5FF98B1022811D02B7803F00F0276
:10199C00023AA2771B0963776B7803F00F0284F885
:1019AC0020201B09E377AB781B09237738BD2B78F4
:1019BC00E3776B7884F8203095F90330237795F929
:1019CC000430637795F90530A377EFE700230377AD
:1019DC00C37780F8203043778377704700207047B7
:1019EC0008B50521FFF7AAFF08BD08B50621FFF7CA
:1019FC00A7FF08BD08B50821FFF7A2FF08BD08B571
:101A0C000A21FFF79BFF08BD08B50B21FFF796FFD6
:101A1C0008BD08B50C21FFF791FF40B208BD08B511
:101A2C000D21FFF78BFF40B208BD08B50E21FFF763
:101A3C0085FF40B208BD08B50F21FFF77FFF40B20C
:101A4C0008BD08B51021FFF779FF40B208BD2DE99C
:101A5C00F04782460F4685682846FFF778FF044614
:101A6C002846FFF779FF8146012C12D04FF0FF0872
:101A7C002846FFF7C4FF04462846FFF7C5FF064675
:101A8C002846FFF7B7FF602F06D928B1054461241B
:101A9C000CE04FF00F08EBE72846FFF7A6FF402FAE
:101AAC0003D910B10544412400E01135BE4208D3DE
:101ABC00B44210D95046FFF789FF00252846BDE8EF
:101ACC00F0875046FFF782FF0025F7E70135B44257
:101ADC00F0D00134E4B22B78FF2BF7D0BC4205D008
:101AEC00AB7803EA08034B441D44F0E72946504603
:101AFC00FFF742FFE2E72DE9F04F85B080460D4637
:101B0C0014461946FFF7A3FF002848D00146D8F821
:101B1C000800FFF72BFF074698F81F9098F820B0A5
:101B2C0098F81D102944C9B2039198F81E60A61BA1
:101B3C00F6B2013EF6B2A6EB0B06F6B20136F6B2E1
:101B4C00CDF800B04B4632464046FFF72FFC30B183
:101B5C0009F10709C9F3C4094FF0000A17E098F915
:101B6C001C001DE017F8013B009300233246294668
:101B7C00404600F039F90835EDB20134E4B24C4579
:101B8C00F0D30136F6B20AF1010A5FFA8AFADA45A5
:101B9C0002D2039D0024F2E798F91C0000E000201B
:101BAC0005B0BDE8F08F2DE9F04180460C46174694
:101BBC001E46436A98470744FFB200250AE03A469E
:101BCC0021464046FFF797FFC0B20444E4B20544F7
:101BDC00EDB201363378002BF1D12846BDE8F08107
:101BEC0038B58568EDB1044690F82830D3B928464D
:101BFC00FFF7F6FE84F829002846FFF70AFF84F861
:101C0C002A0094F9293094F92A209B1A9BB294F853
:101C1C002B20402A03D0DBB202FB03F39B0984F890
:101C2C002C3038BD012B0AD02846FFF7F8FE84F87B
:101C3C0029002846FFF7F9FE84F82A00E1E7284638
:101C4C00FFF7F9FE84F829002846FFF7FAFE84F81E
:101C5C002A00D6E7014B4362704700BFE919000820
:101C6C0083688B4208D010B504468160FFF7B8FF3B
:101C7C002046FFF7EFFF10BD704710B50C68A0476A
:101C8C0010BD38B504460D46436B0220984700231F
:101C9C000A2229462046FFF7F0FF0546636B032016
:101CAC009847636B00209847284638BD38B50446E2
:101CBC000D46436B02209847636B01209847002325
:101CCC00142229462046FFF7D8FF04F138031722C7
:101CDC0029462046FFF7D1FF636B0020984738BD9B
:101CEC0070B504460D46436B02209847636B012088
:101CFC0098470023152229462046FFF7BEFF0646CB
:101D0C0020B9636B00209847304670BD04F138034E
:101D1C00172229462046FFF7B0FFF2E710B580F8EE
:101D2C002D2080F82E309DF8083080F830309DF84A
:101D3C000C3080F82F3000F12D033B22FFF79DFF74
:101D4C0010BD00B583B00DF107034622FFF795FFD8
:101D5C009DF8070003B05DF804FB00B583B00DF1EE
:101D6C0007034722FFF789FF9DF8070003B05DF8D2
:101D7C0004FB08B500234822FFF77FFF08BD10B510
:101D8C0004464168FFF7DDFF207061682046FFF7CD
:101D9C00E4FF607061682046FFF7EBFFE07404F12C
:101DAC003803172261682046FFF767FF10BD10B596
:101DBC0004464168FFF765FF034608B9184610BD95
:101DCC002046FFF7DCFF0123F8E708B54168FFF771
:101DDC006DFF08BD10B50446836903B1984761686F
:101DEC002046FFF77DFF10BD30B583B044689DF8E9
:101DFC0018500195009313460A462146FFF78EFFB3
:101E0C0003B030BD80F831107047000070B5044647
:101E1C0000258560C56045740126067422238374F1
:101E2C0085613146FFF7EEFF2046FFF713FF84F87C
:101E3C00286084F8295084F82A50402384F82B30E9
:101E4C0084F82C50014B636370BD00BF1B2200084B
:101E5C0070B504460D461646FFF7D8FF6560AE60B8
:101E6C002046FFF7A4FF70BD002282700378013B6F
:101E7C00C37002717047027883781344DBB28370AD
:101E8C0041788B420CD2037901330371C3781A4425
:101E9C00D2B2914201D84A1ED2B2C2700120704710
:101EAC00002070478368407918445A1C002119702F
:101EBC0013469042F9D1704710B4C3788B4234BFAB
:101ECC00002301238478914294BF0021012143EA2D
:101EDC00010094428CBF002000F001000B4018431D
:101EEC0010BC704700230B7083784B704379013B17
:101EFC008B70C378CB70704708B54B78CA78012AC1
:101F0C0003D0032A08D01A4602E003F10802D2B229
:101F1C001946FFF7D1FF08BDA3F108011A46CBB251
:101F2C00F6E710B50C461146836842792046FFF758
:101F3C009DFA10BD8368407903EB40005A1C0021C8
:101F4C00197013469042F9D1704730B48568847883
:101F5C00121BD2B2072A03D94079054402F00702BA
:101F6C00012000FA02F2D2B22BB96B5C23EA020216
:101F7C006A5430BC70476B5C1A436A54F9E74A7870
:101F8C0083789A420DD3C3789A420AD810B50C784C
:101F9C0043799C4200D310BD0B792146FFF7D5FF46
:101FAC00F9E770472DE9F04180460D468C78CB78E7
:101FBC00032B03D8DFE803F00E05080B0026374689
:101FCC0015E00126002712E00026FF270FE0FF2670
:101FDC0000270CE00026012709E02B783B442B70EE
:101FEC006B7833446B70640014F0FF0407D014F06A
:101FFC00800FF2D029464046FFF7C1FFEDE7BDE860
:10200C00F08138B51D464C68143A332A4ED8DFE8B7
:10201C0002F02D354D3F4D4D4D4D4D4D4D4D4D4DD2
:10202C004D4D4D4D4D4D4D4D4D4D4D4D4D4D4D4DD4
:10203C00274D4D4D4D4D4D4D4D1A4D4D4D4D4D4D1D
:10204C004D4D4D4D454929462046FFF755FF08B9E2
:10205C0001232CE029462046FFF7A4FF012326E0AC
:10206C0029462046FFF78BFF012320E02046FFF78F
:10207C0061FF2046FFF7F8FE012318E02046FFF72A
:10208C00FAFE034698B12046FFF754FF01230EE0F9
:10209C0029462046FFF726FF012308E063792B70C1
:1020AC00012304E063782B70012300E00123184620
:1020BC0038BD10B484688078101A00F00700012233
:1020CC008240D2B22BB9635C23EA0202625410BC88
:1020DC007047635C1A436254F9E74A7883789A42F2
:1020EC000DD3C3789A420AD810B50C7843799C4228
:1020FC0000D310BD0B792146FFF7DBFFF9E77047E2
:10210C002DE9F04180460D468C78CB78032B03D813
:10211C00DFE803F00E05080B0026374615E0012614
:10212C00002712E00026FF270FE0FF2600270CE017
:10213C000026012709E02B783B442B706B78334445
:10214C006B70640014F0FF0407D014F0800FF2D011
:10215C0029464046FFF7C1FFEDE7BDE8F08138B5F1
:10216C001D464C68143A332A4ED8DFE802F02D3560
:10217C004D3F4D4D4D4D4D4D4D4D4D4D4D4D4D4D91
:10218C004D4D4D4D4D4D4D4D4D4D4D4D274D4D4D99
:10219C004D4D4D4D4D1A4D4D4D4D4D4D4D4D4D4D96
:1021AC00454929462046FFF7A7FE08B901232CE034
:1021BC0029462046FFF7A4FF012326E029462046A6
:1021CC00FFF78BFF012320E02046FFF76BFE204634
:1021DC00FFF74AFE012318E02046FFF74CFE0346AA
:1021EC0098B12046FFF75EFE01230EE029462046FB
:1021FC00FFF778FE012308E063792B70012304E0DC
:10220C0063782B70012300E00123184638BD70471A
:10221C00002103E00B4B5B58435004310A480B4B35
:10222C0042189A42F6D30A4A02E0002342F8043BD1
:10223C00084B9A42F9D3FFF74DF800F00FF8FEF770
:10224C009BFF7047E831000800000020440100208B
:10225C0044010020A4080020FEE7000070B5002512
:10226C000C4E0D4CA41BA410A54209D100F01AF879
:10227C0000250A4E0A4CA41BA410A54205D170BD22
:10228C0056F8253098470135EEE756F82530984733
:10229C000135F2E7E0310008E0310008E0310008D8
:1022AC00E4310008F8B500BFF8BC08BC9E46704786
:0C22BC00F8B500BFF8BC08BC9E46704797
:1022C80002030405060708090A0B0C0D0E0F10106F
:1022D80001020000000000000000000001020304E9
:1022E800060708090000000001020304FFD0FFE010
:1022F800FFC1FFD1AED580A83FD300408D14200088
:10230800A1C8DA1281CFD9F1DB402EA4A6AFFFD045
:10231800FFFE0000FFE0FFD11000FFFEFFE0FFD14D
:10232800AEFFD0FFFE000000FFE0FFD1AFFF32FF9D
:10233800D0FFFE00FFD0FFE0FFC1FFD1AED580A8DF
:102348003FD300408D142002A1C8DA1281CFD9F101
:10235800DB402EA4A6AFFFD0FFFE0000FFE0FFD1B8
:102368001002FFFE00050900FE06017E02F8207F2C
:10237800FE07FE07FE000000050000010606050234
:1023880000808080800080030202050105A0A0056E
:10239800050505000150F850F8500508080500FF2C
:1023A8002078A07028A8702005060605000078A8E7
:1023B800B068A89004060605000040A04050A05050
:1023C80001020205020480800308080501FF20407D
:1023D8008080808040200308080500FF804020207E
:1023E80020204080040505050001409060902003EE
:1023F800030305000140E0400203030500FE4040DE
:1024080080020101050102C00101010502008004EA
:1024180008080500FE1010202040408080040606B1
:102428000500006090B0D0906003060605010040EA
:10243800C0404040E00406060500006090102040BF
:10244800F00406060500006090201090600406065F
:102458000500002060A0F02070040606050000F0CA
:1024680080E01090600406060500006080E090900F
:1024780060040606050000F01020404040040606EF
:1024880005000060906090906004060605000060FA
:102498009090701060010404050200800000800222
:1024A80006060500FE4000004040800305050501C2
:1024B800002040804020040303050001F000F003E1
:1024C800050505010080402040800406060500003F
:1024D8006090204000400406060500006090B0B0FF
:1024E8008070040606050000609090F09090040645
:1024F80006050000E090E09090E004060605000064
:10250800609080809060040606050000E09090903E
:1025180090E0040606050000F080E08080F00406E4
:1025280006050000F080E0808080040606050000B3
:10253800609080B090600406060500009090F090CE
:102548009090030606050100E040404040E0040684
:102558000605000010101010906004060605000023
:1025680090A0C0C0A090040606050000808080806E
:1025780080F004060605000090F0F09090900406A4
:102588000605000090D0B090909004060605000063
:10259800609090909060040606050000E09090E03E
:1025A80080800407070500FF60909090B0601004D9
:1025B8000606050000E09090E090900406060500ED
:1025C80000609060109060030606050100E040403E
:1025D80040404004060605000090909090906004EA
:1025E800060605000090909090A04004060605009D
:1025F80000909090F0F0900406060500009090601E
:102608006090900406060500009090A040404004A9
:102618000606050000F010204080F00208080502B8
:10262800FFC0808080808080C00408080501FE808B
:10263800804040202010100208080501FFC04040DB
:1026480040404040C003020205010440A0050101CA
:102658000500FEF802020205010580400404040595
:1026680000007090B0500406060500008080E090DD
:1026780090E00404040500006090807004060605DC
:10268800000010107090907004040405000060F0C1
:1026980080700306060501002040E0404040040623
:1026A800060500FE70909070106004060605000094
:1026B8008080E09090900306060501004000C0402D
:1026C80040E00208080501FE4000C040404040804C
:1026D8000406060500008080A0C0A0900306060539
:1026E8000100C040404040E0050404050000F0A897
:1026F800A8A8040404050000A0D0909004040405D0
:102708000000609090600406060500FEE09090E0EE
:1027180080800406060500FE709090701010040476
:1027280004050000A0D0808004040405000070E0C7
:1027380010E00306060501004040E0404020040484
:10274800040500009090B050040404050000909027
:10275800A040050404050000A8A8A8500404040526
:102768000000906060900406060500FE909090704E
:102778001060040404050000F02040F00309090576
:1027880001FE2040404080404040200108080502EA
:10279800FF80808080808080800309090501FE8099
:1027A800404040204040408004020205000250A002
:1027B800000000050000000000050900FE06017E7B
:1027C80002F820FFFE08FE07FE00000005000001D9
:1027D8000606050200808080800080030202050151
:1027E80005A0A005050505000150F850F85005089A
:1027F800080500FF2078A07028A8702005060605A7
:10280800000078A8B068A89004060605000040A05B
:102818004050A05001020205020480800308080508
:1028280001FF20408080808040200308080500FFC9
:1028380080402020202040800405050500014090AC
:1028480060902003030305000140E04002030305F4
:1028580000FE404080020101050102C0010101059E
:102868000200800408080500FE1010202040408067
:10287800800406060500006090B0D090600306064C
:1028880005010040C0404040E00406060500006025
:1028980090102040F004060605000060902010907B
:1028A800600406060500002060A0F02070040606FB
:1028B800050000F080E01090600406060500006046
:1028C80080E0909060040606050000F0102040406B
:1028D80040040606050000609060909060040606BB
:1028E80005000060909070106001040405020080EB
:1028F8000000800206060500FE40000040408003FC
:10290800050505010020408040200403030500015F
:10291800F000F00305050501008040204080040612
:1029280006050000609020400040040606050000EF
:102938006090B0B08070040606050000609090F0CA
:102948009090040606050000E090E09090E00406F0
:10295800060500006090808090600406060500006F
:10296800E090909090E0040606050000F080E0807A
:1029780080F0040606050000F080E08080800406F0
:1029880006050000609080B090600406060500000F
:102998009090F0909090030606050100E0404040BA
:1029A80040E00406060500001010101090600406B0
:1029B8000605000090A0C0C0A0900406060500000F
:1029C8008080808080F004060605000090F0F0907A
:1029D800909004060605000090D0B09090900406F0
:1029E80006050000609090909060040606050000BF
:1029F800E09090E080800407070500FF60909090C9
:102A0800B06010040606050000E09090E090900485
:102A18000606050000609060109060030606050138
:102A280000E04040404040040606050000909090B9
:102A380090906004060605000090909090A04004D5
:102A48000606050000909090F0F090040606050038
:102A5800009090606090900406060500009090A099
:102A6800404040040606050000F010204080F002B7
:102A780008080502FFC0808080808080C0040808A4
:102A88000501FE8080404020201010020808050142
:102A9800FFC0404040404040C003020205010440DE
:102AA800A00501010500FEF80202020501058040AB
:102AB8000404040500007090B050040606050000E8
:102AC8008080E09090E0040404050000609080702D
:102AD80004060605000010107090907004040405A8
:102AE800000060F080700306060501002040E04009
:102AF80040400406060500FE7090907010600406C1
:102B0800060500008080E09090900306060501000D
:102B18004000C04040E00208080501FE4000C040F7
:102B2800404040800406060500008080A0C0A090B8
:102B3800030606050100C040404040E005040405C6
:102B48000000F0A8A8A8040404050000A0D09090F4
:102B5800040404050000609090600406060500FE69
:102B6800E09090E080800406060500FE709090706A
:102B78001010040404050000A0D08080040404059B
:102B8800000070E010E00306060501004040E04048
:102B980040200404040500009090B050040404058B
:102BA80000009090A040050404050000A8A8A850C3
:102BB800040404050000906060900406060500FE09
:102BC800909090701060040404050000F02040F01C
:102BD8000309090501FE2040404080404040200193
:102BE80008080502FF8080808080808080030909B2
:102BF8000501FE804040402040404080040202051C
:102C0800000250A0000000050000000000050000C0
:102C18000000000500000203030500FF4040800398
:102C280009090501FE204040E0404040408004037F
:102C3800030500FF5050A0050101050000A8030589
:102C48000505010140E0404040030505050101403C
:102C5800E040E04003020205010540A00506060524
:102C6800000078D0E070F8700408080500005020D3
:102C780070806010906002030305000040804004EB
:102C8800060605000070A0B0A0A0700000000500B6
:102C98000000000005000000000005000000000022
:102CA80005000002030305020340808002030305B8
:102CB800010340408004030305000350A0A004035F
:102CC800030500035050A004040405000160F0F05F
:102CD80060020101050102C0050101050002F804B6
:102CE800020205000550A0050303050003F8585823
:102CF80004070705000050200070E010E0020303FD
:102D080005000080408004040405000070B0A05055
:102D18000000000500000000000500000408080588
:102D2800000050009090A0404040000000050000C6
:102D380001060605020080008080808004060605E2
:102D480000FF2060B0C070400406060500006080E7
:102D5800C08090E0040404050000906060900306C1
:102D680006050100A040E040E0400108080502FF18
:102D780080808000008080800408080500FF609043
:102D880040A050209060020101050105C00406061C
:102D9800050000C020D0D020C00305050501026051
:102DA800A06000E005030305000048904804020203
:102DB800050001F010030101050002E00405050506
:102DC8000001C020D0D0B0020101050105C00303F5
:102DD8000305010340A04003040405000040E0404F
:102DE800E00203030501048040C002030305010457
:102DF800C040C0020101050205C00405050500FF29
:102E0800A0A0A0D08004060605000070B0B0703005
:102E180030010101050202800202020501FEC0C064
:102E2800020303050104C0404003050505010240F3
:102E3800A04000E00503030500009048900507073F
:102E4800050000C0485020489808050707050000FD
:102E5800C0485020508818050707050000C048D012
:102E680020489808040606050000200020409060CD
:102E78000408080500004020609090F09090040835
:102E8800080500002040609090F090900408080524
:102E980000002050006090F09090040808050000A1
:102EA80050A0006090F090900408080500005000C1
:102EB800609090F090900408080500002050206071
:102EC80090F0909004060605000070A0F0A0A0B055
:102ED8000408080500FE6090808090602040040887
:102EE800080500004020F080E08080F00408080514
:102EF80000002040F080E08080F004080805000011
:102F08002050F080E08080F00408080500005000A0
:102F1800F080E08080F00308080501008040E04070
:102F2800404040E00308080501002040E0404040E0
:102F380040E003080805010040A000E0404040E0F0
:102F4800030808050100A000E040404040E00406F6
:102F5800060500006050D0505060040808050000C5
:102F680050A090D0B0909090040808050000402030
:102F780060909090906004080805000020406090E0
:102F88009090906004080805000020500060909020
:102F9800906004080805000050A0006090909060C0
:102FA80004080805000050006090909090600303AA
:102FB80003050001A040A00406060500006090B0CB
:102FC800D0906004080805000040209090909090F0
:102FD80060040808050000204090909090906004DC
:102FE80008080500002050009090909060040808A0
:102FF800050000500090909090906004080805002B
:10300800002040009090A040400406060500008083
:10301800E090E080800407070500FF6090A0A09082
:10302800A0800407070500004020007090B05004FD
:1030380007070500002040007090B05004070705FE
:1030480000002050007090B05004070705000050A1
:10305800A0007090B0500406060500005000709063
:10306800B0500407070500002050207090B05004AD
:10307800040405000070B0A0700406060500FE6098
:10308800908070204004070705000040200060F091
:10309800807004070705000020400060F08070047D
:1030A800070705000020500060F080700406060540
:1030B8000000500060F080700307070501008040A1
:1030C80000C04040E0030707050100408000C04001
:1030D80040E003070705010040A000C04040E003AE
:1030E8000606050100A000C04040E00407070500EF
:1030F80000C0C0207090906004070705000050A031
:1031080000A0D090900407070500004020006090C0
:10311800906004070705000020400060909060045C
:10312800070705000020500060909060040707051D
:10313800000050A000609090600406060500005052
:1031480000609090600305050500004000E0004025
:1031580004040405000060B0D060040707050000FF
:103168004020009090B05004070705000020400060
:103178009090B0500407070500002050009090B0D0
:103188005004060605000050009090B0500409094C
:103198000500FE102000909090701060040808054B
:1031A80000FE8080E09090E080800408080500FE22
:1031B80050009090907010602E2E2F5372632F6DD8
:1031C80061696E2E630000007465737465310000D8
:0831D800746573746532000098
:0431E00031010008B1
:0431E4000D010008D1
:1031E800010000001000000000A24A044D18000869
:1031F80030000020491500084D1800083000002054
:10320800491500084D18000830000020491500082D
:103218001040000000810000A0010020A516000851
:1032280048000020491500080840000000810000FF
:10323800A4020020A5160008600000204915000817
:10324800084000000081000028030020A51600089F
:10325800780000204915000808400000008100009F
:10326800AC03002051170008A800002049150008E9
:1032780051170008A8000020491500085117000838
:10328800A800002049150008104000000081000037
:1032980030040020F9150008C00000204915000876
:1032A800084000000081000034050020F9150008DE
:1032B800D8000020491500080840000000810000DF
:1032C800B8050020F9150008F0000020491500088D
:1032D80008400000008100003C0600204D15000851
:1032E800080100204915000808400000008100007E
:1032F800C00600204D1500082001002049150008CF
:103308000840000000810000440700204D15000817
:10331800380100204915000808400000008100001D
:04332800C8070020B2
:040000050800221DB0
:00000001FF
